:100000000C9460000C947F000C947F000C947F0093
:100010000C947F000C947F000C947F000C947F0064
:100020000C947F000C947F000C947F000C947F0054
:100030000C947F000C94A5020C947F000C947F001C
:100040000C947F000C947F000C947F000C947F0034
:100050000C947F000C947F000C947F000C947F0024
:100060000C947F000C947F000C947F000C947F0014
:100070000C947F000C947F000C947F000C947F0004
:100080000C947F000C947F000C947F0077077E0710
:100090008507B807BF07C607CD07DE0721084D084B
:1000A0003F0844084D0882096B0882097C088208D1
:1000B000880894089F0831094C096D09750982095F
:1000C00011241FBECFEFD0E4DEBFCDBF12E0A0E011
:1000D000B1E0E4E3FCE100E00BBF02C007900D9249
:1000E000A039B107D9F723E0A0E9B2E001C01D9221
:1000F000A330B207E1F70E94350A0C94180E0C9455
:100100000000CF93DF93CDB7DEB781E00E94A80057
:100110000000DF91CF910895CF93DF93CDB7DEB785
:1001200084E690E00E944C0188E30E94A80086E0EB
:100130000E94A8008FE00E94A80081E00E94A80011
:100140008AE090E00E944C010000DF91CF91089579
:10015000CF93DF931F92CDB7DEB789838BE290E018
:100160002BE230E0F90120812F7BFC01208388E223
:1001700090E02981FC0120838BE290E02BE230E0CB
:10018000F90120812068FC01208300008BE290E0CF
:100190002BE230E0F90120812F77FC01208382E0FF
:1001A00090E00E944C0100000F90DF91CF910895E4
:1001B000CF93DF931F92CDB7DEB789838BE290E0B8
:1001C0002BE230E0F90120812064FC01208388E2E9
:1001D00090E02981FC0120838BE290E02BE230E06B
:1001E000F90120812068FC01208300008BE290E06F
:1001F0002BE230E0F90120812F77FC01208381E0A0
:1002000090E00E944C0100000F90DF91CF91089583
:10021000CF93DF9300D000D0CDB7DEB78A837C8345
:100220006B830E9481008A81898311C0898191E05A
:10023000980F99830E9435018B819C819C012F5FCF
:100240003F4F3C832B83FC0180810E94D8008B812F
:100250009C81FC018081882349F700000F900F905A
:100260000F900F90DF91CF910895CF93DF931F925E
:10027000CDB7DEB789838981813128F4898181589E
:100280000E94A80004C0898181550E94A800000036
:100290000F90DF91CF910895CF93DF9300D000D0DE
:1002A00000D0CDB7DEB79E838D831A82198213C02A
:1002B0001C821B8206C000008B819C8101969C835E
:1002C0008B838B819C8187309340ACF389819A81A9
:1002D00001969A83898329813A818D819E8128178D
:1002E000390734F3000026960FB6F894DEBF0FBE30
:1002F000CDBFDF91CF9108950F931F93CF93DF93DD
:100300001F92CDB7DEB71982A4C08981282F30E0B3
:10031000C901880F991F820F931F880F991F880F9B
:10032000991F89559D4FFC01208131814281538164
:100330008981682F70E0CB01880F991F860F971F66
:10034000880F991F880F991F8D559D4FFC01808143
:100350009181A281B381281739074A075B0708F406
:1003600049C08981082F10E08981282F30E0C90118
:10037000880F991F820F931F880F991F880F991F4D
:1003800085559D4FFC01408151818981282F30E0A6
:10039000C901880F991F820F931F880F991F880F1B
:1003A000991F8F559D4FFC0180819181FA0109951C
:1003B0009C01C801880F991F800F911F880F991FFA
:1003C000880F991F8F559D4FFC01318320838981B0
:1003D000282F30E0C901880F991F820F931F880FC3
:1003E000991F880F991F89559D4FFC01108211821A
:1003F000128213828981682F70E08981282F30E072
:10040000C901880F991F820F931F880F991F880FAA
:10041000991F89559D4FFC0180819181A281B381F3
:100420009C01AD012C593F4F4F4F5F4FCB01880FBF
:10043000991F860F971F880F991F880F991F89553D
:100440009D4FFC01208331834283538389818F5FD9
:1004500089838981863008F458CF00000F90DF919E
:10046000CF911F910F910895CF93DF93CDB7DEB752
:1004700081E890E02BE0FC01208388E890E02DE704
:1004800030E0FC01318320838FE690E022E0FC0124
:10049000208384E890E0FC011182108280910001A9
:1004A00090910101A0910201B0910301809391020A
:1004B00090939202A0939302B09394028FE590E000
:1004C0002FE530E0F90120812068FC012083000045
:1004D000DF91CF910895CF93DF93CDB7DEB781E859
:1004E00090E0FC0110820000DF91CF910895CF933E
:1004F000DF9300D000D0CDB7DEB769837A838B83DA
:100500009C8389819A81AB81BC8180930001909307
:100510000101A0930201B093030180910001909129
:100520000101A0910201B091030180939102909387
:100530009202A0939302B093940200000F900F9048
:100540000F900F90DF91CF9108951F920F9200901E
:100550005F000F92112400905B000F922F933F9346
:100560004F935F936F937F938F939F93AF93BF93BB
:10057000EF93FF93CF93DF93CDB7DEB780919102D6
:1005800090919202A0919302B09194020197A109D7
:10059000B1098093910290939202A0939302B09339
:1005A00094028091910290919202A0919302B09155
:1005B0009402892B8A2B8B2B91F40E947C018091D1
:1005C000000190910101A0910201B091030180937B
:1005D000910290939202A0939302B0939402000030
:1005E000DF91CF91FF91EF91BF91AF919F918F914B
:1005F0007F916F915F914F913F912F910F9000925A
:100600005B000F9000925F000F901F9018950F9362
:100610001F93CF93DF9300D000D0CDB7DEB76983AF
:100620007A838B839C838091980290919902A09108
:100630009A02B0919B029C01AD0169817A818B8104
:100640009C810E946A0C882309F477C020E030E086
:10065000A90169817A818B819C810E946A0C88231F
:1006600051F481E990E021E930E0F901208128701E
:10067000FC01208309C081E990E021E930E0F90123
:1006800020812360FC01208328E539E344E75FE310
:1006900069817A818B819C810E946A0C882344F451
:1006A00088E990E02FEF3FEFFC013183208334C0D5
:1006B00020E034E244EF56E469817A818B819C81A9
:1006C0000E948C0D181634F488E990E0FC01118228
:1006D000108222C008E910E020E030E040E053E45E
:1006E00069817A818B819C810E94910DDC01CB0113
:1006F0009C01AD0160E074E284EF9AE40E946F0C0B
:10070000DC01CB01BC01CD010E94E10CDC01CB017D
:100710000197F8019183808384E990E0FC011182C4
:10072000108289819A81AB81BC81809398029093D9
:100730009902A0939A02B0939B0200000F900F9031
:100740000F900F90DF91CF911F910F910895CF934C
:10075000DF93CDB7DEB780E990E020E4FC01208391
:1007600081E990E02BE0FC01208360E070E0CB01A8
:100770000E9407030000DF91CF910895CF93DF938C
:10078000CDB7DEB780E990E0FC01108281E990E00E
:10079000FC0110820000DF91CF910895CF93DF9389
:1007A000CDB7DEB78CE790E02CE730E0F90120818F
:1007B0002064FC0120838AE790E027E8FC01208385
:1007C0000000DF91CF910895CF93DF931F92CDB7B3
:1007D000DEB789838981877089838CE790E02CE775
:1007E00030E0F9012081322F387F2981232BFC0151
:1007F00020838AE790E02AE730E0F9012081206435
:10080000FC01208300008AE790E0FC018081882FB2
:1008100090E080749927892BB1F788E790E0FC017C
:10082000808191810F90DF91CF910895CF93DF93D5
:1008300000D01F92CDB7DEB789837B836A8389811D
:100840008A3031F48A819B81BC018DE00E941604BC
:1008500080EC90E0FC018081882F90E080729927E5
:10086000892BB1F386EC90E02981FC01208380E0A4
:1008700090E00F900F900F90DF91CF910895CF935C
:10088000DF93CDB7DEB783E090E09093FE028093D4
:10089000FD0283E090E09093F3028093F20283E004
:1008A00090E090930203809301038AE090E090939C
:1008B000FA028093F9028BE290E02FE3FC0120839F
:1008C0001092FC021092FB020000DF91CF9108957C
:1008D000CF93DF9300D0CDB7DEB79A838983809121
:1008E000FD029091FE028130910581F081309105E9
:1008F00030F08230910589F00397B1F019C081E0A2
:1009000090E09093FE028093FD0213C082E090E09D
:100910009093FE028093FD020CC082E090E09093E1
:10092000FE028093FD0205C01092FE021092FD02AD
:1009300000008091FD029091FE028130910549F006
:1009400081309105D0F08230910551F00397B9F0D4
:1009500017C084E090E0909396028093950210C0B7
:1009600085E290E020919502309196022E5E3E4FF6
:10097000F9012081FC01208303C0000001C00000B8
:100980008091FD029091FE020F900F90DF91CF9128
:100990000895CF93DF9300D0CDB7DEB79A838983D4
:1009A00080E290E0FC018081809584708093EA026F
:1009B0008091F2029091F30282309105E9F0833048
:1009C000910528F4009751F0019779F04BC08330DE
:1009D000910551F1049709F440C044C082E090E0D1
:1009E0009093F3028093F2023DC082E090E09093F6
:1009F000F3028093F20236C08091FB029091FC02D8
:100A0000019759F48091A002882339F083E090E0A7
:100A10009093F3028093F20225C082E090E09093DD
:100A2000F3028093F2021EC080919702282F30E0DB
:100A30008091F4029091F502821793073CF083E0D5
:100A400090E09093F3028093F2020CC082E090E079
:100A50009093F3028093F20205C01092F302109279
:100A6000F20200008091F2029091F302823091052F
:100A7000A9F08330910530F4009709F491C00197F3
:100A800049F093C08330910509F449C0049709F4F3
:100A900080C08BC01092FC021092FB021092970251
:100AA00060E070E0CB010E9407038091CA01909141
:100AB000CB01019769F48EE391E090939D028093BE
:100AC0009C028BE090E09093F5028093F4026AC060
:100AD0008091CA019091CB01029769F48AE691E076
:100AE00090939D0280939C0287E090E09093F502A2
:100AF0008093F40257C08091CA019091CB01039773
:100B000009F050C086E891E090939D0280939C028A
:100B100081E190E09093F5028093F40243C08091CC
:100B20009702282F30E08091F4029091F50282170D
:100B30009307E4F020919C0230919D0280919702EE
:100B4000882F90E0880F991F880F991F820F931F9D
:100B5000FC0180819181A281B381BC01CD010E9401
:100B60000703809197028F5F80939702809197028D
:100B7000282F30E08091F4029091F5020196281719
:100B8000390794F082E090E09093FC028093FB029E
:100B90000BC064EA70ED82E893E40E94070305C08D
:100BA000000003C0000001C000008091F20290919B
:100BB000F3020F900F90DF91CF910895CF93DF93C1
:100BC00000D0CDB7DEB79A838983809101039091DD
:100BD00002038130910581F08130910530F082303F
:100BE0009105F1F00397A9F138C081E090E090936E
:100BF00002038093010332C08091FB029091FC02BA
:100C0000019739F482E090E090930203809301030E
:100C100025C081E090E090930203809301031EC001
:100C200080919702282F30E08091F4029091F50294
:100C3000821793073CF481E090E090930203809345
:100C400001030CC082E090E09093020380930103C3
:100C500005C010920203109201030000809101036D
:100C6000909102038130910559F08130910508F48B
:100C700049C08230910559F1039709F445C047C036
:100C80008091CA019091CB01019739F489E191E0FB
:100C90009093ED028093EC0239C08091CA0190914B
:100CA000CB01029739F484E291E09093ED028093B6
:100CB000EC022CC08091CA019091CB01039731F5D1
:100CC0008CE291E09093ED028093EC021FC0809142
:100CD0009702882389F08BE290E04091EC025091DA
:100CE000ED0220919702222F30E0240F351FF901E9
:100CF0002081FC0120830BC08BE290E02FE3FC01FC
:100D0000208305C0000003C0000001C000008091E6
:100D10000103909102030F900F90DF91CF910895FE
:100D2000CF93DF9300D0CDB7DEB79A8389838091CC
:100D3000EE029091EF028230910591F1833091059E
:100D400028F4009749F0019771F04FC08330910566
:100D500071F1049799F149C081E090E09093EF021E
:100D60008093EE0242C08091EA02882391F0909134
:100D7000A00281E08927882361F082E090E09093CF
:100D8000EF028093EE028BE290E02FE3FC012083E0
:100D90002CC081E090E09093EF028093EE0225C09A
:100DA00083E090E09093EF028093EE021EC084E017
:100DB00090E09093EF028093EE0217C08091EA02D8
:100DC000882391F08091A002882371F08091FB022A
:100DD0009091FC02892B41F481E090E09093EF0226
:100DE0008093EE021092A00200008091EE0290919A
:100DF000EF0282309105C9F08330910528F4009705
:100E000071F1019739F02EC083309105A9F0049754
:100E100041F128C080E090E00E94FE0D8093170110
:100E20008BE290E0FC0110821DC060E070E08CED70
:100E300093E40E94070316C060E070E0CB010E94BB
:100E400007036CEC71E081E00E94080180911701BA
:100E5000805D0E94D80081E08093A00203C0000062
:100E600001C000008091EE029091EF020F900F9070
:100E7000DF91CF910895CF93DF9300D0CDB7DEB748
:100E80009A83898380E290E0FC018081882F90E042
:100E90008170992721E0892B09F020E0822F80932F
:100EA000F60280E290E0FC01808180958270809360
:100EB000E90280E290E0FC01808180958870809357
:100EC000F1028091F9029091FA02CC01A0E0B0E029
:100ED00040E050E02CE030E0841B950B28173907E8
:100EE00008F4D9C08A5B9F4FFC010C94610C81E02F
:100EF00090E09093FA028093F902D6C082E090E0ED
:100F00009093FA028093F902CFC080911801882F44
:100F100090E0AC014151510980911801882F90E077
:100F20009C0127513109429FC001439F900D529F60
:100F3000900D112499235CF48091F102882339F0FB
:100F400083E090E09093FA028093F902A8C0809128
:100F50001801873109F0A3C08091F102882309F4B8
:100F60009EC086E090E09093FA028093F90297C0C9
:100F700084E090E09093FA028093F90295C085E0B6
:100F800090E09093FA028093F9028EC087E090E09F
:100F90009093FA028093F90287C08091F10288232E
:100FA00009F47FC06CEC71E081E00E94080182E0EE
:100FB00090E09093FA028093F90273C080919502B9
:100FC00090919602892B39F489E090E09093FA028F
:100FD0008093F90269C08091FB029091FC02029714
:100FE00041F58091950290919602892B11F18091A3
:100FF000CA019091CB0101969093CB018093CA01D5
:101000008091F0028F5F8093F0028091CA019091ED
:10101000CB01049739F088E090E09093FA02809336
:10102000F9020EC08BE090E09093FA028093F902EF
:1010300007C087E090E09093FA028093F90234C0F1
:1010400033C08091F102882369F08091CA019091A8
:10105000CB01049739F083E090E09093FA028093FB
:10106000F90221C08091CA019091CB010497D9F473
:101070008BE090E09093FA028093F90214C01092F2
:10108000FA021092F90210C08CE090E09093FA02FC
:101090008093F90209C0000007C0000005C00000ED
:1010A00003C0000001C000008091F9029091FA0293
:1010B000CC01A0E0B0E040E050E02CE030E0841B48
:1010C000950B2817390708F41BC18D5A9F4FFC0157
:1010D0000C94610C00008FE390E0FC018081882F6C
:1010E00090E082709927892BA9F781E090E00E9417
:1010F000FE0D8093170109C165EE71E081E00E9449
:10110000080103C162EF71E081E00E940801FDC0A7
:1011100069EF71E081E00E94080181E090E0909326
:10112000FC028093FB02F1C06DEF71E081E00E9450
:10113000080180911701805D0E94D800E6C080916F
:1011400097028170882351F580919702893031F19F
:101150008091FB029091FC02019701F56AE072E038
:1011600081E00E9408018091F602882329F4809191
:10117000F102882309F471C0809195029091960242
:10118000181619060CF069C080919502909196028C
:10119000019790939602809395025FC08091970289
:1011A000853071F180919702813051F180919702E1
:1011B0008170882329F18091FB029091FC020197B4
:1011C000F9F46BE172E081E00E9408018091E9028C
:1011D000882329F48091F102882309F440C080918A
:1011E00095029091960218161906CCF580919502F9
:1011F00090919602019790939602809395022FC04A
:1012000080919702853049F080919702813029F0D2
:1012100080919702893009F077C064E272E081E042
:101220000E9408018091F602882329F48091E90246
:10123000882309F469C0809195029091960218164E
:1012400019060CF061C08091950290919602019769
:10125000909396028093950257C0000055C00000FD
:1012600053C06BE272E081E00E9408019091170187
:101270008091F002981738F48091F002682F81E095
:1012800090E00E94060E60E070ED82E094E40E941F
:1012900007030E943F0439C081E090E00E94FE0DE8
:1012A00080931701909117018091F002981768F4CC
:1012B0008091F002682F81E090E00E94060E6BE4BE
:1012C00072E081E00E94080120C067E672E081E0E0
:1012D0000E9408011092F00218C00E943F0460E0D2
:1012E00070E0CB010E94070310C061E772E081E06B
:1012F0000E9408018091F002805D0E94D80005C024
:10130000000003C0000001C000008091F90290912C
:10131000FA020F900F90DF91CF910895CF93DF9352
:1013200000D0CDB7DEB79A83898385E00E94E403BD
:1013300090939F0280939E0284E00E94E403909326
:10134000F8028093F7028091FF02909100038130B0
:10135000910569F08130910518F0029779F015C078
:1013600081E090E0909300038093FF020EC082E042
:1013700090E0909300038093FF0207C082E090E02A
:10138000909300038093FF0200008091FF029091F0
:1013900000038130910509F45CC08130910508F4A7
:1013A0005AC0029709F058C080919E0290919F0206
:1013B0008935924070F081E08093EB0280911801B2
:1013C000803208F041C0809118018F5F809318012E
:1013D0003BC08091F7029091F8028935924068F005
:1013E00082E08093EB0280911801813168F5809151
:1013F0001801805F8093180127C080919E02909110
:101400009F028436910568F483E08093EB0280911B
:1014100018018230C8F08091180181508093180122
:1014200013C08091F7029091F8028436910560F420
:1014300084E08093EB0280911801813128F0809143
:101440001801805180931801809118010E94350184
:1014500003C0000001C000008091FF0290910003D2
:101460000F900F90DF91CF910895CF93DF931F924C
:10147000CDB7DEB781E290E0FC01108282E290E01D
:101480002FEFFC01208384E290E02FEFFC0120830A
:1014900085E290E0FC01108287E290E02FEFFC01F2
:1014A000208388E290E0FC0110828AE290E02FEF36
:1014B000FC0120838BE290E0FC011082198289817B
:1014C000282F30E0C901880F991F820F931F880FC2
:1014D000991F880F991F8F559D4FFC011182108213
:1014E0008981282F30E0C901880F991F820F931F2F
:1014F000880F991F880F991F9C012D553D4F8CE235
:1015000091E0A0E0B0E0F90180839183A283B383EE
:101510008981282F30E0C901880F991F820F931FFE
:10152000880F991F880F991F89559D4FFC011082C4
:101530001182128213828981282F30E0C901880F1D
:10154000991F820F931F880F991F880F991F855528
:101550009D4F28E634E0FC013183208389818F5F31
:1015600089838981282F30E0C901880F991F820F54
:10157000931F880F991F880F991F8F559D4FFC014E
:10158000118210828981282F30E0C901880F991FAC
:10159000820F931F880F991F880F991F9C012D554B
:1015A0003D4F80E293E0A0E0B0E0F90180839183B9
:1015B000A283B3838981282F30E0C901880F991F46
:1015C000820F931F880F991F880F991F9C0129551F
:1015D0003D4F80E293E0A0E0B0E0F9018083918389
:1015E000A283B3838981282F30E0C901880F991F16
:1015F000820F931F880F991F880F991F85559D4F44
:1016000029EC34E0FC013183208389818F5F898359
:101610008981282F30E0C901880F991F820F931FFD
:10162000880F991F880F991F8F559D4FFC011182BC
:1016300010828981282F30E0C901880F991F820FFD
:10164000931F880F991F880F991F9C012D553D4F9F
:1016500080E293E0A0E0B0E0F90180839183A2836F
:10166000B3838981282F30E0C901880F991F820F29
:10167000931F880F991F880F991F9C0129553D4F73
:1016800080E293E0A0E0B0E0F90180839183A2833F
:10169000B3838981282F30E0C901880F991F820FF9
:1016A000931F880F991F880F991F85559D4F2EED09
:1016B00035E0FC013183208389818F5F89838981B3
:1016C000282F30E0C901880F991F820F931F880FC0
:1016D000991F880F991F8F559D4FFC011182108211
:1016E0008981282F30E0C901880F991F820F931F2D
:1016F000880F991F880F991F9C012D553D4F84EF2E
:1017000091E0A0E0B0E0F90180839183A283B383EC
:101710008981282F30E0C901880F991F820F931FFC
:10172000880F991F880F991F89559D4FFC011082C2
:101730001182128213828981282F30E0C901880F1B
:10174000991F820F931F880F991F880F991F855526
:101750009D4F20E936E0FC013183208389818F5F32
:1017600089838981282F30E0C901880F991F820F52
:10177000931F880F991F880F991F8F559D4FFC014C
:10178000118210828981282F30E0C901880F991FAA
:10179000820F931F880F991F880F991F9C012D5549
:1017A0003D4F84EF91E0A0E0B0E0F90180839183A8
:1017B000A283B3838981282F30E0C901880F991F44
:1017C000820F931F880F991F880F991F89559D4F6E
:1017D000FC0110821182128213828981282F30E04D
:1017E000C901880F991F820F931F880F991F880FB7
:1017F000991F85559D4F2BE337E0FC0131832083F2
:1018000089818F5F89838981282F30E0C901880F02
:10181000991F820F931F880F991F880F991F8F554B
:101820009D4FFC01118210828981282F30E0C9016F
:10183000880F991F820F931F880F991F880F991F78
:101840009C012D553D4F84E690E0A0E0B0E0F90109
:1018500080839183A283B3838981282F30E0C901DB
:10186000880F991F820F931F880F991F880F991F48
:1018700089559D4FFC011082118212821382898149
:10188000282F30E0C901880F991F820F931F880FFE
:10189000991F880F991F85559D4F2EE839E0FC014F
:1018A0003183208364E670E080E090E00E9477025C
:1018B0000E9434020E94A7030E94CE030E948C0063
:1018C000FFCFEE0FFF1F0024001C0BBE0790F69108
:1018D000E02D09940E94170D08F481E008950E94FC
:1018E000830C0C94520D0E944B0D58F00E94440D35
:1018F00040F029F45F3F29F00C943B0D51110C94FA
:10190000860D0C94410D0E94630D68F39923B1F389
:10191000552391F3951B550BBB27AA276217730715
:10192000840738F09F5F5F4F220F331F441FAA1FA9
:10193000A9F335D00E2E3AF0E0E832D09150504065
:10194000E695001CCAF72BD0FE2F29D0660F771F13
:10195000881FBB1F261737074807AB07B0E809F0F9
:10196000BB0B802DBF01FF2793585F4F3AF09E3F7E
:10197000510578F00C943B0D0C94860D5F3FE4F319
:10198000983ED4F3869577956795B795F7959F5FC1
:10199000C9F7880F911D9695879597F90895E1E00D
:1019A000660F771F881FBB1F621773078407BA076C
:1019B00020F0621B730B840BBA0BEE1F88F7E095C7
:1019C00008950E94E80C6894B1110C94860D089556
:1019D0000E946B0D88F09F5798F0B92F9927B75147
:1019E000B0F0E1F0660F771F881F991F1AF0BA95C3
:1019F000C9F714C0B13091F00E94850DB1E008958F
:101A00000C94850D672F782F8827B85F39F0B93F80
:101A1000CCF3869577956795B395D9F73EF4909575
:101A20008095709561957F4F8F4F9F4F0895990FC7
:101A30000008550FAA0BE0E8FEEF16161706E80798
:101A4000F907C0F012161306E407F50798F0621BB9
:101A5000730B840B950B39F40A2661F0232B242B8E
:101A6000252B21F408950A2609F4A140A6958FEFAD
:101A7000811D811D089597F99F6780E870E060E0FF
:101A800008959FEF80EC089500240A941616170617
:101A900018060906089500240A941216130614065F
:101AA00005060895092E0394000C11F4882352F0C2
:101AB000BB0F40F4BF2B11F460FF04C06F5F7F4F7A
:101AC0008F4F9F4F089557FD9058440F551F59F061
:101AD0005F3F71F04795880F97FB991F61F09F3F1B
:101AE00079F087950895121613061406551FF2CF44
:101AF0004695F1DF08C0161617061806991FF1CF94
:101B000086957105610508940895E894BB276627BA
:101B10007727CB0197F908950E94170D08F48FEFEE
:101B200008950E94A40D0C94520D0E94440D38F0AB
:101B30000E944B0D20F0952311F00C943B0D0C945A
:101B4000410D11240C94860D0E94630D70F3959F36
:101B5000C1F3950F50E0551F629FF001729FBB27A4
:101B6000F00DB11D639FAA27F00DB11DAA1F649F40
:101B70006627B00DA11D661F829F2227B00DA11DF3
:101B8000621F739FB00DA11D621F839FA00D611D79
:101B9000221F749F3327A00D611D231F849F600D9A
:101BA000211D822F762F6A2F11249F5750409AF0C3
:101BB000F1F088234AF0EE0FFF1FBB1F661F771F4F
:101BC000881F91505040A9F79E3F510580F00C941A
:101BD0003B0D0C94860D5F3FE4F3983ED4F386955D
:101BE00077956795B795F795E7959F5FC1F7FE2BBA
:101BF000880F911D9695879597F90895F999FECFCD
:101C000092BD81BDF89A992780B50895262FF9993C
:101C1000FECF92BD81BDF89A019700B4021639F04B
:101C20001FBA20BD0FB6F894FA9AF99A0FBE08951C
:041C3000F894FFCF56
:101C34000100000000000002000000001604000083
:101C440000000000040607052000020408100FF03D
:101C54000F00FFFF00303C3F3C30FF0000203038D5
:101C64003C3E3F0103070F3F30030C00FF007BD4D1
:101C74009243A4D08243D7A3764300005C43000080
:101C8400C443A4D0A443B8FEB843A4D0A4437BD493
:101C940092430000000000000000A4D0A443000010
:101CA400C44300D0244400D002441FD512445CFF36
:101CB400434400000000719DAE430000DC43A4F0E7
:101CC400F643719DAE430000DC43A4F0F643719DDE
:101CD400AE430000DC43A4F0F64300D024441FD5F7
:101CE4001244A4F0F64300D00244A4F0F6430000EA
:101CF400C443A4D0A44300000000010057656C63F2
:101D04006F6D6520746F2044445221205354415216
:101D140054202A20004765742072656164792E2E50
:101D24002E005365742E2E2E00474F2100486967FC
:101D3400682073636F72653A2000202020202020E1
:101D44002020202020477265656E0020202020423C
:101D54006C75650059656C6C6F7700526F756E64B5
:101D640020776F6E21202B31202020526561647909
:101D74003F20507265737320594200596F75206C6F
:101D84006F7365212020202020202053636F72650B
:101D940020736176656400596F75206C6F736521DB
:101DA400005961792120596F7520776F6E212020A9
:101DB40020546F74616C2073636F72653A20000065
:00000001FF
