:100000000C945A000C9479000C9479000C947900AB
:100010000C9479000C9479000C9479000C9479007C
:100020000C9479000C9479000C9479000C9479006C
:100030000C9479000C949F020C9479000C94790034
:100040000C9479000C9479000C9479000C9479004C
:100050000C9479000C9479000C9479000C9479003C
:100060000C9479000C9479000C9479000C9479002C
:100070000C9479000C9479000C9479000C9479001C
:100080000C9479000C9479000C947900010708070E
:100090003B074207490750075B0789078907820723
:1000A000BC08BC08A407AA07B007BC07C2075408CD
:1000B0008A08B20811241FBECFEFD0E4DEBFCDBF47
:1000C00011E0A0E0B1E0E0EAFAE100E00BBF02C01D
:1000D00007900D92AE3DB107D9F722E0AEEDB1E049
:1000E00001C01D92AC34B207E1F70E946F090C9475
:1000F0004E0D0C940000CF93DF93CDB7DEB781E0B7
:100100000E94A2000000DF91CF910895CF93DF936A
:10011000CDB7DEB784E690E00E94460188E30E94F6
:10012000A20086E00E94A2008FE00E94A20081E06F
:100130000E94A2008AE090E00E9446010000DF9148
:10014000CF910895CF93DF931F92CDB7DEB7898308
:100150008BE290E02BE230E0F90120812F7BFC0163
:10016000208388E290E02981FC0120838BE290E0EB
:100170002BE230E0F90120812068FC01208300009F
:100180008BE290E02BE230E0F90120812F77FC0137
:10019000208382E090E00E94460100000F90DF91F2
:1001A000CF910895CF93DF931F92CDB7DEB78983A8
:1001B0008BE290E02BE230E0F90120812064FC0129
:1001C000208388E290E02981FC0120838BE290E08B
:1001D0002BE230E0F90120812068FC01208300003F
:1001E0008BE290E02BE230E0F90120812F77FC01D7
:1001F000208381E090E00E94460100000F90DF9193
:10020000CF910895CF93DF9300D000D0CDB7DEB764
:100210008A837C836B830E947B008A81898311C0DF
:10022000898191E0980F99830E942F018B819C8195
:100230009C012F5F3F4F3C832B83FC0180810E94F8
:10024000D2008B819C81FC018081882349F70000CA
:100250000F900F900F900F90DF91CF910895CF9353
:10026000DF931F92CDB7DEB789838981813128F46E
:10027000898181580E94A20004C0898181550E9411
:10028000A20000000F90DF91CF910895CF93DF93EC
:1002900000D000D000D0CDB7DEB79E838D831A8208
:1002A000198213C01C821B8206C000008B819C81B6
:1002B00001969C838B838B819C8187309340ACF328
:1002C00089819A8101969A83898329813A818D81D6
:1002D0009E812817390734F3000026960FB6F8944C
:1002E000DEBF0FBECDBFDF91CF9108950F931F9357
:1002F000CF93DF931F92CDB7DEB71982A4C0898157
:10030000282F30E0C901880F991F820F931F880F93
:10031000991F880F991F8D509E4FFC0120813181BC
:10032000428153818981682F70E0CB01880F991F2A
:10033000860F971F880F991F880F991F81519E4F15
:10034000FC0180819181A281B381281739074A0776
:100350005B0708F449C08981082F10E08981282FA4
:1003600030E0C901880F991F820F931F880F991FD2
:10037000880F991F89509E4FFC01408151818981CE
:10038000282F30E0C901880F991F820F931F880F13
:10039000991F880F991F83519E4FFC018081918185
:1003A000FA0109959C01C801880F991F800F911FC0
:1003B000880F991F880F991F83519E4FFC0131832D
:1003C00020838981282F30E0C901880F991F820F6F
:1003D000931F880F991F880F991F8D509E4FFC0106
:1003E00010821182128213828981682F70E08981C4
:1003F000282F30E0C901880F991F820F931F880FA3
:10040000991F880F991F8D509E4FFC01808191810B
:10041000A281B3819C01AD012C593F4F4F4F5F4FDB
:10042000CB01880F991F860F971F880F991F880F80
:10043000991F8D509E4FFC0120833183428353834B
:1004400089818F5F89838981863008F458CF0000C5
:100450000F90DF91CF911F910F910895CF93DF936C
:10046000CDB7DEB781E890E02BE0FC01208388E87F
:1004700090E02DE730E0FC01318320838FE690E0AF
:1004800022E0FC01208384E890E0FC0111821082CC
:100490008091000190910101A0910201B0910301AE
:1004A0008093DF019093E001A093E101B093E2011A
:1004B0008FE590E02FE530E0F90120812068FC0114
:1004C00020830000DF91CF910895CF93DF93CDB7C4
:1004D000DEB781E890E0FC0110820000DF91CF914F
:1004E0000895CF93DF9300D000D0CDB7DEB76983F6
:1004F0007A838B839C8389819A81AB81BC81809331
:10050000000190930101A0930201B0930301809137
:10051000000190910101A0910201B091030180932B
:10052000DF019093E001A093E101B093E2010000AC
:100530000F900F900F900F90DF91CF9108951F9221
:100540000F9200905F000F92112400905B000F92B9
:100550002F933F934F935F936F937F938F939F93CB
:10056000AF93BF93EF93FF93CF93DF93CDB7DEB7F6
:100570008091DF019091E001A091E101B091E20151
:100580000197A109B1098093DF019093E001A09345
:10059000E101B093E2018091DF019091E001A0912F
:1005A000E101B091E201892B8A2B8B2B91F40E94FF
:1005B00076018091000190910101A0910201B0911A
:1005C00003018093DF019093E001A093E101B093D8
:1005D000E2010000DF91CF91FF91EF91BF91AF91C8
:1005E0009F918F917F916F915F914F913F912F914B
:1005F0000F9000925B000F9000925F000F901F9091
:1006000018950F931F93CF93DF9300D000D0CDB7F1
:10061000DEB769837A838B839C838091E601909116
:10062000E701A091E801B091E9019C01AD01698168
:100630007A818B819C810E94A40B882309F477C066
:1006400020E030E0A90169817A818B819C810E9440
:10065000A40B882351F481E990E021E930E0F9010D
:1006600020812870FC01208309C081E990E021E904
:1006700030E0F90120812360FC01208328E539E383
:1006800044E75FE369817A818B819C810E94A40B9E
:10069000882344F488E990E02FEF3FEFFC01318399
:1006A000208334C020E034E244EF56E469817A814B
:1006B0008B819C810E94C60C181634F488E990E066
:1006C000FC011182108222C008E910E020E030E035
:1006D00040E053E469817A818B819C810E94CB0C3C
:1006E000DC01CB019C01AD0160E074E284EF9AE48F
:1006F0000E94A90BDC01CB01BC01CD010E941B0CA7
:10070000DC01CB010197F8019183808384E990E0BB
:10071000FC011182108289819A81AB81BC81809316
:10072000E6019093E701A093E801B093E90100008E
:100730000F900F900F900F90DF91CF911F910F911D
:100740000895CF93DF93CDB7DEB780E990E020E442
:10075000FC01208381E990E02BE0FC01208360E034
:1007600070E0CB010E9401030000DF91CF9108955A
:10077000CF93DF93CDB7DEB780E990E0FC01108224
:1007800081E990E0FC0110820000DF91CF91089593
:10079000CF93DF93CDB7DEB78CE790E02CE730E066
:1007A000F90120812064FC0120838AE790E027E89A
:1007B000FC0120830000DF91CF910895CF93DF9358
:1007C0001F92CDB7DEB789838981877089838CE7D3
:1007D00090E02CE730E0F9012081322F387F298129
:1007E000232BFC0120838AE790E02AE730E0F9011F
:1007F00020812064FC01208300008AE790E0FC0156
:100800008081882F90E080749927892BB1F788E741
:1008100090E0FC01808191810F90DF91CF9108954C
:10082000CF93DF9300D01F92CDB7DEB789837B8350
:100830006A8389818A3031F48A819B81BC018DE091
:100840000E94100480EC90E0FC018081882F90E0F1
:1008500080729927892BB1F386EC90E02981FC0105
:10086000208380E090E00F900F900F90DF91CF9168
:100870000895CF93DF93CDB7DEB783E090E09093F8
:1008800047028093460283E090E090933D0280937C
:100890003C0283E090E090934B0280934A0289E00F
:1008A00090E090934302809342028BE290E02FE32A
:1008B000FC0120830000DF91CF910895CF93DF9357
:1008C00000D0CDB7DEB79A8389838091460290919C
:1008D00047028130910581F08130910530F08230FE
:1008E000910589F00397B1F019C081E090E09093F1
:1008F00047028093460213C082E090E09093470243
:10090000809346020CC082E090E09093470280936F
:10091000460205C0109247021092460200008091E4
:100920004602909147028130910549F0813091054E
:10093000D0F08230910551F00397B9F017C084E0F0
:1009400090E09093E4018093E30110C085E290E091
:100950002091E3013091E4012E5E3E4FF9012081A8
:10096000FC01208303C0000001C00000809146020A
:10097000909147020F900F90DF91CF910895CF9300
:10098000DF9300D0CDB7DEB79A83898380E290E011
:10099000FC018081809584708093360280913C02B6
:1009A00090913D0282309105E9F08330910528F461
:1009B000009751F0019779F04BC08330910551F1C8
:1009C000049709F440C044C082E090E090933D0257
:1009D00080933C023DC082E090E090933D02809382
:1009E0003C0236C08091440290914502019759F42F
:1009F0008091EC01882339F083E090E090933D02F0
:100A000080933C0225C082E090E090933D02809369
:100A10003C021EC08091E501282F30E08091460104
:100A200090914701821793073CF083E090E0909308
:100A30003D0280933C020CC082E090E090933D0226
:100A400080933C0205C010923D0210923C020000CF
:100A500080913C0290913D0282309105A1F083305B
:100A6000910530F4009709F453C0019741F053C049
:100A70008330910581F0049709F443C04CC0109273
:100A80004502109244021092E50160E070E0CB0153
:100A90000E94010340C08091E501282F30E0809141
:100AA00046019091470182179307C4F08091E501B8
:100AB000882F90E0880F991F880F991F8E5D9E4F99
:100AC000FC0180819181A281B381BC01CD010E9492
:100AD00001038091E5018F5F8093E5018091E5013D
:100AE000282F30E080914601909147010196281708
:100AF000390784F082E090E09093450280934402AD
:100B000009C064EA70ED82E893E40E94010303C027
:100B1000000001C0000080913C0290913D020F90C6
:100B20000F90DF91CF910895CF93DF9300D0CDB791
:100B3000DEB79A83898380914A0290914B0281307B
:100B4000910581F08130910530F082309105F1F00E
:100B50000397A9F138C081E090E090934B02809315
:100B60004A0232C08091440290914502019739F4C3
:100B700082E090E090934B0280934A0225C081E08E
:100B800090E090934B0280934A021EC08091E50151
:100B9000282F30E0809146019091470182179307FA
:100BA0003CF481E090E090934B0280934A020CC0A9
:100BB00082E090E090934B0280934A0205C010922D
:100BC0004B0210924A02000080914A0290914B021F
:100BD0008130910501F181309105F8F08230910565
:100BE00019F00397E1F01CC08091E501882369F0BA
:100BF0008BE290E02091E501222F30E0285E3E4F0D
:100C0000F9012081FC0120830BC08BE290E02FE3EF
:100C1000FC01208305C0000003C0000001C00000EB
:100C200080914A0290914B020F900F90DF91CF91EB
:100C30000895CF93DF9300D0CDB7DEB79A83898331
:100C400080913802909139028230910591F1833080
:100C5000910528F4009749F0019771F04FC0833057
:100C6000910571F1049799F149C081E090E090936A
:100C700039028093380242C080913602882391F075
:100C80009091EC0181E08927882361F082E090E077
:100C900090933902809338028BE290E02FE3FC01BD
:100CA00020832CC081E090E0909339028093380239
:100CB00025C083E090E090933902809338021EC0F3
:100CC00084E090E0909339028093380217C08091BD
:100CD0003602882391F08091EC01882371F0809195
:100CE000440290914502892B41F481E090E0909379
:100CF0003902809338021092EC0100008091380292
:100D00009091390282309105C9F08330910528F421
:100D1000009769F1019739F02DC083309105A9F052
:100D2000049739F127C080E090E00E94380D80934D
:100D30003E028BE290E0FC0110821CC060E070E09B
:100D40008CED93E40E94010315C060E070E0CB01DC
:100D50000E94010368E471E081E00E940201809139
:100D60003E020E94D20081E08093EC0103C00000AB
:100D700001C0000080913802909139020F900F90CD
:100D8000DF91CF910895CF93DF9300D0CDB7DEB739
:100D90009A83898380E290E0FC018081882F90E033
:100DA0008170992721E0892B09F020E0822F809320
:100DB0003F0280E290E0FC01808180958270809308
:100DC000350280E290E0FC018081809588708093FC
:100DD0003B0210923E028091420290914302CC016C
:100DE000A0E0B0E040E050E029E030E0841B950B4B
:100DF0002817390708F48BC08A5B9F4FFC010C94BD
:100E00009B0B81E090E0909343028093420286C066
:100E100080911701882F90E0AC01415151098091D8
:100E20001701882F90E09C0127513109429FC00192
:100E3000439F900D529F900D112499235CF4809153
:100E40003B02882339F082E090E090934302809344
:100E5000420261C080911701883109F05CC0809125
:100E60003B02882309F457C085E090E09093430249
:100E70008093420250C083E090E0909343028093BD
:100E800042024CC084E090E090934302809342027F
:100E900045C086E090E090934302809342023EC0BA
:100EA00080913B028823C9F181E090E09093430256
:100EB0008093420232C08091E3019091E401892B3A
:100EC00039F488E090E0909343028093420226C078
:100ED0008091440290914502029769F48091E30168
:100EE0009091E401892B39F087E090E090934302E0
:100EF0008093420213C086E090E090934302809377
:100F000042020CC0109243021092420207C000003D
:100F100005C0000003C0000001C000008091420233
:100F200090914302CC01A0E0B0E040E050E029E025
:100F300030E0841B950B2817390708F41BC1805B30
:100F40009F4FFC010C949B0B61E671E081E00E94D5
:100F5000020115C16EE671E081E00E9402010FC13D
:100F600065E771E081E00E94020181E090E09093EA
:100F700045028093440203C180913E02805D0E943D
:100F8000D200FDC08091E5018170882351F58091E8
:100F9000E501893031F18091440290914502019739
:100FA00001F569E771E081E00E94020180913F0252
:100FB000882329F480913B02882309F471C0809131
:100FC000E3019091E401181619060CF069C08091B4
:100FD000E3019091E40101979093E4018093E30190
:100FE0005FC08091E501853071F18091E50181302C
:100FF00051F18091E5018170882329F180914402AB
:10100000909145020197F9F46AE871E081E00E944D
:10101000020180913502882329F480913B028823C4
:1010200009F440C08091E3019091E401181619067B
:10103000CCF58091E3019091E40101979093E40154
:101040008093E3012FC08091E501853049F08091C4
:10105000E501813029F08091E501893009F08EC0E9
:1010600063E971E081E00E94020180913F028823E0
:1010700029F480913502882309F480C08091E3012E
:101080009091E401181619060CF078C08091E301E4
:101090009091E40101979093E4018093E3016EC085
:1010A00000006CC000006AC06AE971E081E00E9443
:1010B000020180913A028F5F80933A0280913A0256
:1010C000813041F480913A02682F80E090E00E94E4
:1010D000400D17C080913A02823098F080E090E095
:1010E0000E94380D80933E0290913E0280913A0218
:1010F000981738F480913A02682F80E090E00E94BF
:10110000400D60E070ED82E094E40E9401030E94D3
:10111000390435C080E090E00E94380D80933E0293
:1011200090913E0280913A02981768F480913A02B9
:10113000682F80E090E00E94400D68EB71E081E054
:101140000E94020107C064ED71E081E00E9402018B
:1011500010923A0280913A02682F80E090E00E945B
:10116000400D0DC00E94390460E070E0CB010E9488
:10117000010305C0000003C0000001C00000809111
:101180004202909143020F900F90DF91CF9108950A
:10119000CF93DF9300D0CDB7DEB79A83898385E004
:1011A0000E94DE039093EB018093EA0184E00E94A9
:1011B000DE03909341028093400280914802909117
:1011C00049028130910569F08130910518F002974C
:1011D00079F015C081E090E0909349028093480235
:1011E0000EC082E090E0909349028093480207C0CD
:1011F00082E090E090934902809348020000809141
:101200004802909149028130910509F45CC0813017
:10121000910508F45AC0029709F058C08091EA017C
:101220009091EB018935924070F081E08093370214
:1012300080911701803208F041C0809117018F5FC3
:10124000809317013BC08091400290914102893503
:10125000924068F082E080933702809117018131DB
:1012600068F580911701805F8093170127C08091F6
:10127000EA019091EB018436910568F483E0809354
:101280003702809117018230C8F080911701815098
:101290008093170113C080914002909141028436DF
:1012A000910560F484E080933702809117018131C9
:1012B00028F08091170180518093170180911701C8
:1012C0000E942F0103C0000001C00000809148026D
:1012D000909149020F900F90DF91CF910895CF9395
:1012E000DF931F92CDB7DEB781E290E0FC01108260
:1012F00082E290E02FEFFC01208384E290E02FEF68
:10130000FC01208385E290E0FC01108287E290E0FE
:101310002FEFFC01208388E290E0FC0110828AE23A
:1013200090E02FEFFC0120838BE290E0FC01108223
:1013300019828981282F30E0C901880F991F820FF7
:10134000931F880F991F880F991F83519E4FFC018F
:10135000118210828981282F30E0C901880F991FDE
:10136000820F931F880F991F880F991F9C0121518D
:101370003E4F8CE291E0A0E0B0E0F90180839183E0
:10138000A283B3838981282F30E0C901880F991F78
:10139000820F931F880F991F880F991F8D509E4FA2
:1013A000FC0110821182128213828981282F30E081
:1013B000C901880F991F820F931F880F991F880FEB
:1013C000991F89509E4F2EE534E0FC013183208324
:1013D00089818F5F89838981282F30E0C901880F37
:1013E000991F820F931F880F991F880F991F835190
:1013F0009E4FFC01118210828981282F30E0C901A3
:10140000880F991F820F931F880F991F880F991FAC
:101410009C0121513E4F80E293E0A0E0B0E0F90151
:1014200080839183A283B3838981282F30E0C9010F
:10143000880F991F820F931F880F991F880F991F7C
:101440009C012D503E4F80E293E0A0E0B0E0F90116
:1014500080839183A283B3838981282F30E0C901DF
:10146000880F991F820F931F880F991F880F991F4C
:1014700089509E4F2FEB34E0FC013183208389811A
:101480008F5F89838981282F30E0C901880F991FD8
:10149000820F931F880F991F880F991F83519E4FAA
:1014A000FC01118210828981282F30E0C901880F48
:1014B000991F820F931F880F991F880F991F9C01F6
:1014C00021513E4F80E293E0A0E0B0E0F90180833B
:1014D0009183A283B3838981282F30E0C901880FCB
:1014E000991F820F931F880F991F880F991F9C01C6
:1014F0002D503E4F80E293E0A0E0B0E0F901808300
:101500009183A283B3838981282F30E0C901880F9A
:10151000991F820F931F880F991F880F991F895059
:101520009E4F24E935E0FC013183208389818F5F60
:1015300089838981282F30E0C901880F991F820F84
:10154000931F880F991F880F991F83519E4FFC018D
:10155000118210828981282F30E0C901880F991FDC
:10156000820F931F880F991F880F991F9C0121518B
:101570003E4F84EF91E0A0E0B0E0F90180839183D9
:10158000A283B3838981282F30E0C901880F991F76
:10159000820F931F880F991F880F991F8D509E4FA0
:1015A000FC0110821182128213828981282F30E07F
:1015B000C901880F991F820F931F880F991F880FE9
:1015C000991F89509E4F29E136E0FC013183208329
:1015D00089818F5F89838981282F30E0C901880F35
:1015E000991F820F931F880F991F880F991F83518E
:1015F0009E4FFC01118210828981282F30E0C901A1
:10160000880F991F820F931F880F991F880F991FAA
:101610009C0121513E4F84EF91E0A0E0B0E0F90140
:1016200080839183A283B3838981282F30E0C9010D
:10163000880F991F820F931F880F991F880F991F7A
:101640008D509E4FFC01108211821282138289817B
:10165000282F30E0C901880F991F820F931F880F30
:10166000991F880F991F89509E4F23EC36E0FC018B
:101670003183208389818F5F89838981282F30E09E
:10168000C901880F991F820F931F880F991F880F18
:10169000991F83519E4FFC01118210828981282F4E
:1016A00030E0C901880F991F820F931F880F991F7F
:1016B000880F991F9C0121513E4F84E690E0A0E0E5
:1016C000B0E0F90180839183A283B3838981282FBD
:1016D00030E0C901880F991F820F931F880F991F4F
:1016E000880F991F8D509E4FFC011082118212822B
:1016F00013828981282F30E0C901880F991F820F3A
:10170000931F880F991F880F991F89509E4F28ECAF
:1017100038E0FC013183208364E670E080E090E0F3
:101720000E9471020E942E020E94A1030E94C8031F
:101730000E948600FFCFEE0FFF1F0024001C0BBE8F
:101740000790F691E02D09940E94510C08F481E075
:1017500008950E94BD0B0C948C0C0E94850C58F0CF
:101760000E947E0C40F029F45F3F29F00C94750C28
:1017700051110C94C00C0C947B0C0E949D0C68F3CE
:101780009923B1F3552391F3951B550BBB27AA273A
:1017900062177307840738F09F5F5F4F220F331F74
:1017A000441FAA1FA9F335D00E2E3AF0E0E832D03C
:1017B00091505040E695001CCAF72BD0FE2F29D03F
:1017C000660F771F881FBB1F261737074807AB0711
:1017D000B0E809F0BB0B802DBF01FF2793585F4F86
:1017E0003AF09E3F510578F00C94750C0C94C00CA7
:1017F0005F3FE4F3983ED4F3869577956795B79568
:10180000F7959F5FC9F7880F911D9695879597F972
:101810000895E1E0660F771F881FBB1F62177307EB
:101820008407BA0720F0621B730B840BBA0BEE1F00
:1018300088F7E09508950E94220C6894B1110C94E9
:10184000C00C08950E94A50C88F09F5798F0B92FFE
:101850009927B751B0F0E1F0660F771F881F991FE5
:101860001AF0BA95C9F714C0B13091F00E94BF0CBC
:10187000B1E008950C94BF0C672F782F8827B85FCC
:1018800039F0B93FCCF3869577956795B395D9F73D
:101890003EF490958095709561957F4F8F4F9F4F47
:1018A0000895990F0008550FAA0BE0E8FEEF1616F1
:1018B0001706E807F907C0F012161306E407F50744
:1018C00098F0621B730B840B950B39F40A2661F0B8
:1018D000232B242B252B21F408950A2609F4A1405B
:1018E000A6958FEF811D811D089597F99F6780E868
:1018F00070E060E008959FEF80EC089500240A9462
:101900001616170618060906089500240A941216DA
:101910001306140605060895092E0394000C11F40D
:10192000882352F0BB0F40F4BF2B11F460FF04C0BA
:101930006F5F7F4F8F4F9F4F089557FD9058440F13
:10194000551F59F05F3F71F04795880F97FB991F1E
:1019500061F09F3F79F087950895121613061406DB
:10196000551FF2CF4695F1DF08C016161706180668
:10197000991FF1CF86957105610508940895E89443
:10198000BB2766277727CB0197F908950E94510C52
:1019900008F48FEF08950E94DE0C0C948C0C0E94CA
:1019A0007E0C38F00E94850C20F0952311F00C94E9
:1019B000750C0C947B0C11240C94C00C0E949D0C93
:1019C00070F3959FC1F3950F50E0551F629FF00192
:1019D000729FBB27F00DB11D639FAA27F00DB11DAB
:1019E000AA1F649F6627B00DA11D661F829F222734
:1019F000B00DA11D621F739FB00DA11D621F839FBB
:101A0000A00D611D221F749F3327A00D611D231F90
:101A1000849F600D211D822F762F6A2F11249F57DE
:101A200050409AF0F1F088234AF0EE0FFF1FBB1FE1
:101A3000661F771F881F91505040A9F79E3F5105A0
:101A400080F00C94750C0C94C00C5F3FE4F3983E4E
:101A5000D4F3869577956795B795F795E7959F5F4A
:101A6000C1F7FE2B880F911D9695879597F90895DC
:101A7000F999FECF92BD81BDF89A992780B5089556
:101A8000262FF999FECF1FBA92BD81BD20BD0FB69A
:101A9000F894FA9AF99A0FBE01960895F894FFCF38
:101AA000010000000000000200000000100400001F
:101AB000000000000406072000804020100FF00FF7
:101AC00000FF7BD49243A4D08243D7A37643000087
:101AD0005C430000C443A4D0A443B8FEB843A4D0E0
:101AE000A4437BD49243090057656C636F6D6520F6
:101AF000746F2044445221205354415254202A20D0
:101B0000004765742072656164792E2E2E0053653E
:101B1000742E2E2E00474F21002020202020202030
:101B200020202020477265656E0020202020426C16
:101B300075650059656C6C6F7700596F7520776F0C
:101B40006E21202B312020202020436F6E74696E7F
:101B500075653F20592F4E00596F75206C6F736566
:101B6000212020202020202053636F726520736184
:0E1B700076656400596F75206C6F73652100F7
:00000001FF
