:100000000C9446000C9465000C9465000C946500FB
:100010000C9465000C9465000C9465000C946500CC
:100020000C9465000C9465000C9465000C946500BC
:100030000C9465000C948B020C9465000C94650084
:100040000C9465000C9465000C9465000C9465009C
:100050000C9465000C9465000C9465000C9465008C
:100060000C9465000C9465000C9465000C9465007C
:100070000C9465000C9465000C9465000C9465006C
:100080000C9465000C9465000C94650011241FBE4F
:10009000CFEFD0E4DEBFCDBF11E0A0E0B1E0EAE4F5
:1000A000F9E100E00BBF02C007900D92A838B1073C
:1000B000D9F721E0A8E8B1E001C01D92A63FB20740
:1000C000E1F70E9493080C94A30C0C940000CF93CA
:1000D000DF93CDB7DEB781E00E948E000000DF9194
:1000E000CF910895CF93DF93CDB7DEB784E690E04C
:1000F0000E94320188E30E948E0086E00E948E00FA
:100100008FE00E948E0081E00E948E008AE090E0E5
:100110000E9432010000DF91CF910895CF93DF93C9
:100120001F92CDB7DEB789838BE290E02BE230E0FF
:10013000F90120812F7BFC01208388E290E0298156
:10014000FC0120838BE290E02BE230E0F90120817A
:100150002068FC01208300008BE290E02BE230E07D
:10016000F90120812F77FC01208382E090E00E943A
:10017000320100000F90DF91CF910895CF93DF936C
:100180001F92CDB7DEB789838BE290E02BE230E09F
:10019000F90120812064FC01208388E290E029811C
:1001A000FC0120838BE290E02BE230E0F90120811A
:1001B0002068FC01208300008BE290E02BE230E01D
:1001C000F90120812F77FC01208381E090E00E94DB
:1001D000320100000F90DF91CF910895CF93DF930C
:1001E00000D000D0CDB7DEB78A837C836B830E94BA
:1001F00067008A81898311C0898191E0980F998372
:100200000E941B018B819C819C012F5F3F4F3C838F
:100210002B83FC0180810E94BE008B819C81FC01AC
:100220008081882349F700000F900F900F900F9066
:10023000DF91CF910895CF93DF931F92CDB7DEB7B3
:1002400089838981813128F4898181580E948E00B7
:1002500004C0898181550E948E0000000F90DF91BB
:10026000CF910895CF93DF9300D000D000D0CDB7C9
:10027000DEB79E838D831A82198213C01C821B8273
:1002800006C000008B819C8101969C838B838B81AF
:100290009C8187309340ACF389819A8101969A833F
:1002A000898329813A818D819E812817390734F30A
:1002B000000026960FB6F894DEBF0FBECDBFDF91CB
:1002C000CF9108950F931F93CF93DF931F92CDB7D4
:1002D000DEB71982A4C08981282F30E0C901880FB8
:1002E000991F820F931F880F991F880F991F83569C
:1002F0009E4FFC0120813181428153818981682F89
:1003000070E0CB01880F991F860F971F880F991FE8
:10031000880F991F87569E4FFC0180819181A28191
:10032000B381281739074A075B0708F449C0898158
:10033000082F10E08981282F30E0C901880F991F0C
:10034000820F931F880F991F880F991F8F559E4FFB
:10035000FC01408151818981282F30E0C901880F3B
:10036000991F820F931F880F991F880F991F895615
:100370009E4FFC0180819181FA0109959C01C80181
:10038000880F991F800F911F880F991F880F991F41
:1003900089569E4FFC01318320838981282F30E0CC
:1003A000C901880F991F820F931F880F991F880F0B
:1003B000991F83569E4FFC01108211821282138274
:1003C0008981682F70E08981282F30E0C901880F6A
:1003D000991F820F931F880F991F880F991F8356AB
:1003E0009E4FFC0180819181A281B3819C01AD016E
:1003F0002C593F4F4F4F5F4FCB01880F991F860FEE
:10040000971F880F991F880F991F83569E4FFC01D5
:10041000208331834283538389818F5F89838981DC
:10042000863008F458CF00000F90DF91CF911F91D4
:100430000F910895CF93DF93CDB7DEB781E890E0B9
:100440002BE0FC01208388E890E02DE730E0FC0100
:10045000318320838FE690E022E0FC01208384E852
:1004600090E0FC01118210828091000190910101C5
:10047000A0910201B09103018093890190938A01B8
:10048000A0938B01B0938C018FE590E02FE530E0D5
:10049000F90120812068FC0120830000DF91CF91C9
:1004A0000895CF93DF93CDB7DEB781E890E0FC01EC
:1004B00010820000DF91CF910895CF93DF9300D099
:1004C00000D0CDB7DEB769837A838B839C83898123
:1004D0009A81AB81BC818093000190930101A0932C
:1004E0000201B09303018091000190910101A0915C
:1004F0000201B09103018093890190938A01A09336
:100500008B01B0938C0100000F900F900F900F9013
:10051000DF91CF9108951F920F9200905F000F928C
:10052000112400905B000F922F933F934F935F93A2
:100530006F937F938F939F93AF93BF93EF93FF93AB
:10054000CF93DF93CDB7DEB78091890190918A0177
:10055000A0918B01B0918C010197A109B109809301
:10056000890190938A01A0938B01B0938C018091B3
:10057000890190918A01A0918B01B0918C01892B06
:100580008A2B8B2B91F40E94620180910001909143
:100590000101A0910201B091030180938901909320
:1005A0008A01A0938B01B0938C010000DF91CF9161
:1005B000FF91EF91BF91AF919F918F917F916F913B
:1005C0005F914F913F912F910F9000925B000F90A0
:1005D00000925F000F901F9018950F931F93CF9379
:1005E000DF9300D000D0CDB7DEB769837A838B83E9
:1005F0009C838091900190919101A0919201B09182
:1006000093019C01AD0169817A818B819C810E945B
:10061000F90A882309F477C020E030E0A901698154
:100620007A818B819C810E94F90A882351F481E9A7
:1006300090E021E930E0F90120812870FC0120835D
:1006400009C081E990E021E930E0F90120812360CF
:10065000FC01208328E539E344E75FE369817A817F
:100660008B819C810E94F90A882344F488E990E0F8
:100670002FEF3FEFFC013183208334C020E034E2D0
:1006800044EF56E469817A818B819C810E941B0C26
:10069000181634F488E990E0FC011182108222C01F
:1006A00008E910E020E030E040E053E469817A811D
:1006B0008B819C810E94200CDC01CB019C01AD014F
:1006C00060E074E284EF9AE40E94FE0ADC01CB0150
:1006D000BC01CD010E94700BDC01CB010197F80138
:1006E0009183808384E990E0FC01118210828981EA
:1006F0009A81AB81BC818093900190939101A093EA
:100700009201B093930100000F900F900F900F9003
:10071000DF91CF911F910F910895CF93DF93CDB7C4
:10072000DEB780E990E020E4FC01208381E990E0DD
:100730002BE0FC01208360E070E0CB010E94ED0221
:100740000000DF91CF910895CF93DF93CDB7DEB74F
:1007500080E990E0FC01108281E990E0FC011082C8
:100760000000DF91CF910895CF93DF93CDB7DEB72F
:100770008CE790E02CE730E0F90120812064FC0157
:1007800020838AE790E027E8FC0120830000DF91C6
:10079000CF910895CF93DF931F92CDB7DEB78983B2
:1007A0008981877089838CE790E02CE730E0F9013C
:1007B0002081322F387F2981232BFC0120838AE777
:1007C00090E02AE730E0F90120812064FC012083D9
:1007D00000008AE790E0FC018081882F90E080741F
:1007E0009927892BB1F788E790E0FC0180819181FE
:1007F0000F90DF91CF910895CF93DF9300D01F9298
:10080000CDB7DEB789837B836A8389818A3031F4EF
:100810008A819B81BC018DE00E94FC0380EC90E00A
:10082000FC018081882F90E080729927892BB1F399
:1008300086EC90E02981FC01208380E090E00F901D
:100840000F900F90DF91CF910895CF93DF93CDB7A5
:10085000DEB783E090E09093F1018093F00183E0B4
:1008600090E09093E7018093E60183E090E090931D
:10087000F5018093F40184E090E09093ED01809382
:10088000EC018BE290E02FE3FC0120830000DF917C
:10089000CF910895CF93DF9300D0CDB7DEB79A8381
:1008A00089838091F0019091F1018130910581F06F
:1008B0008130910530F08230910589F00397B1F0D5
:1008C00019C081E090E09093F1018093F00113C092
:1008D00082E090E09093F1018093F0010CC082E0FF
:1008E00090E09093F1018093F00105C01092F10126
:1008F0001092F00100008091F0019091F10181309F
:10090000910549F08130910568F08230910561F0E0
:10091000039761F00CC084E090E090938E01809387
:100920008D0105C0000003C0000001C000008091DF
:10093000F0019091F1010F900F90DF91CF91089508
:10094000CF93DF9300D0CDB7DEB79A83898380E25F
:1009500090E0FC018081809584708093E00180911B
:10096000E6019091E7018130910581F08130910598
:1009700030F08230910501F10397B9F13BC081E07D
:1009800090E09093E7018093E60134C08091E0010C
:10099000882359F080919601882339F082E090E015
:1009A0009093E7018093E60125C081E090E0909369
:1009B000E7018093E6011EC080918F01282F30E06F
:1009C0008091460190914701821793073CF082E0A5
:1009D00090E09093E7018093E6010CC081E090E005
:1009E0009093E7018093E60105C01092E701109211
:1009F000E60100008091E6019091E70181309105C8
:100A000059F08130910508F456C08230910581F08B
:100A1000039709F449C052C01092EF011092EE0101
:100A200010928F0160E070E0CB010E94ED0246C0A1
:100A300081E090E09093EF018093EE0180918F012F
:100A4000282F30E08091460190914701821793074B
:100A5000C4F080918F01882F90E0880F991F880F34
:100A6000991F8E5D9E4FFC0180819181A281B3818F
:100A7000BC01CD010E94ED0280918F018F5F8093B8
:100A80008F0180918F01282F30E080914601909155
:100A9000470101962817390781F482E090E090938E
:100AA000EF018093EE0109C064EA70ED82E893E4FF
:100AB0000E94ED0203C0000001C000008091E60129
:100AC0009091E7010F900F90DF91CF910895CF9310
:100AD000DF9300D0CDB7DEB79A8389838091F4018C
:100AE0009091F5018130910581F08130910530F0D0
:100AF00082309105E1F0039799F136C081E090E0F2
:100B00009093F5018093F40130C08091E001882337
:100B100039F082E090E09093F5018093F40125C0D4
:100B200081E090E09093F5018093F4011EC08091E4
:100B30008F01282F30E08091460190914701821764
:100B400093073CF481E090E09093F5018093F401E9
:100B50000CC082E090E09093F5018093F40105C011
:100B60001092F5011092F40100008091F40190912F
:100B7000F5018130910501F181309105F8F0823065
:100B8000910519F00397E1F01CC080918F01882333
:100B900069F08BE290E020918F01222F30E0285EF7
:100BA0003E4FF9012081FC0120830BC08BE290E0D5
:100BB0002FE3FC01208305C0000003C0000001C03A
:100BC00000008091F4019091F5010F900F90DF915A
:100BD000CF910895CF93DF9300D0CDB7DEB79A833E
:100BE00089838091E2019091E3018230910591F136
:100BF0008330910528F4009749F0019771F04FC0B8
:100C00008330910571F1049799F149C081E090E03A
:100C10009093E3018093E20142C08091E001882338
:100C200091F09091960181E08927882361F082E01C
:100C300090E09093E3018093E2018BE290E02FE358
:100C4000FC0120832CC081E090E09093E30180932D
:100C5000E20125C083E090E09093E3018093E201FC
:100C60001EC084E090E09093E3018093E20117C0FE
:100C70008091E001882391F080919601882371F0A2
:100C80008091EE019091EF01892B41F481E090E099
:100C90009093E3018093E20110929601000080910D
:100CA000E2019091E3018230910599F08330910542
:100CB00028F4009719F1019739F023C0833091058A
:100CC00079F00497E9F01DC08BE290E0FC011082FE
:100CD00018C060E070E08CED93E40E94ED0211C05A
:100CE00060E070E0CB010E94ED0268E471E081E019
:100CF0000E94EE0081E08093960103C0000001C0D5
:100D000000008091E2019091E3010F900F90DF913C
:100D1000CF910895CF93DF9300D0CDB7DEB79A83FC
:100D2000898380E290E0FC018081882F90E08170CF
:100D3000992721E0892B09F020E0822F8093E90197
:100D400080E290E0FC018081809582708093DF01D9
:100D500080E290E0FC018081809584708093E501C1
:100D60008091EC019091ED0182309105E1F08330AA
:100D7000910528F4009749F0019771F03DC0833048
:100D80009105C9F1049791F137C081E090E090930B
:100D9000ED018093EC0130C082E090E09093ED0192
:100DA0008093EC0129C080918D0190918E01892B57
:100DB00019F40E94250420C08091EE019091EF016A
:100DC000029769F480918D0190918E01892B39F001
:100DD00083E090E09093ED018093EC010DC082E000
:100DE00090E09093ED018093EC0106C01092ED012C
:100DF0001092EC0101C000008091EC019091ED0196
:100E00008230910591F08330910538F4009709F410
:100E1000D5C0019709F4D4C0D6C08330910509F438
:100E200096C0049709F4C4C0CEC080918F01817030
:100E3000882351F580918F01893031F18091EE0145
:100E40009091EF01019701F567E671E081E00E9462
:100E5000EE008091E901882329F48091E50188233F
:100E600009F471C080918D0190918E0118161906B8
:100E70000CF069C080918D0190918E010197909343
:100E80008E0180938D015FC080918F01853071F15B
:100E900080918F01813051F180918F018170882381
:100EA00029F18091EE019091EF010197F9F468E743
:100EB00071E081E00E94EE008091DF01882329F437
:100EC0008091E501882309F440C080918D019091C3
:100ED0008E0118161906CCF580918D0190918E0126
:100EE000019790938E0180938D012FC080918F0187
:100EF000853049F080918F01813029F080918F01F8
:100F0000893009F05FC061E871E081E00E94EE0085
:100F10008091E901882329F48091DF01882309F475
:100F200051C080918D0190918E01181619060CF018
:100F300049C080918D0190918E01019790938E010F
:100F400080938D013FC000003DC000003BC08091F8
:100F5000E4018F5F8093E4018091E401813041F4EA
:100F60008091E401682F80E090E00E94950C17C00A
:100F70008091E401823098F080E090E00E948D0C36
:100F80008093E8019091E8018091E401981738F48A
:100F90008091E401682F80E090E00E94950C60E071
:100FA00070ED82E094E40E94ED020E9425040BC0E3
:100FB00060E070E0CB010E94ED0205C0000003C0BC
:100FC000000001C000008091EC019091ED010F90B4
:100FD0000F90DF91CF910895CF93DF9300D0CDB7DD
:100FE000DEB79A83898385E00E94CA0390939501B6
:100FF0008093940184E00E94CA039093EB01809354
:10100000EA018091F2019091F3018130910569F03C
:101010008130910518F0029779F015C081E090E0D9
:101020009093F3018093F2010EC082E090E09093E0
:10103000F3018093F20107C082E090E09093F30106
:101040008093F20100008091F2019091F3018130D0
:10105000910509F45CC08130910508F45AC00297EB
:1010600009F058C080919401909195018935924082
:1010700070F081E08093E10180911701803208F0E7
:1010800041C0809117018F5F809317013BC0809111
:10109000EA019091EB018935924068F082E08093FB
:1010A000E10180911701813168F580911701805F1E
:1010B0008093170127C08091940190919501843607
:1010C000910568F483E08093E101809117018231FA
:1010D000C8F08091170181508093170113C080914F
:1010E000EA019091EB018436910560F484E08093ED
:1010F000E10180911701813128F080911701805121
:1011000080931701809117010E941B0103C000000A
:1011100001C000008091F2019091F3010F900F90B7
:10112000DF91CF910895CF93DF931F92CDB7DEB7B4
:1011300081E290E0FC01108282E290E02FEFFC015E
:10114000208384E290E02FEFFC01208385E290E091
:10115000FC01108287E290E02FEFFC01208388E2FF
:1011600090E0FC0110828AE290E02FEFFC012083E6
:101170008BE290E0FC01108219828981282F30E0F7
:10118000C901880F991F820F931F880F991F880F1D
:10119000991F89569E4FFC01118210828981282F48
:1011A00030E0C901880F991F820F931F880F991F84
:1011B000880F991F9C0127563E4F8CE291E0A0E0DA
:1011C000B0E0F90180839183A283B3838981282FC2
:1011D00030E0C901880F991F820F931F880F991F54
:1011E000880F991F83569E4FFC0110821182128234
:1011F00013828981282F30E0C901880F991F820F3F
:10120000931F880F991F880F991F8F559E4F2AE4AF
:1012100034E0FC013183208389818F5F8983898158
:10122000282F30E0C901880F991F820F931F880F64
:10123000991F880F991F89569E4FFC0111821082B9
:101240008981282F30E0C901880F991F820F931FD1
:10125000880F991F880F991F9C0127563E4F80E2E7
:1012600093E0A0E0B0E0F90180839183A283B3838F
:101270008981282F30E0C901880F991F820F931FA1
:10128000880F991F880F991F9C0123563E4F80E2BB
:1012900093E0A0E0B0E0F90180839183A283B3835F
:1012A0008981282F30E0C901880F991F820F931F71
:1012B000880F991F880F991F8F559E4F20EA34E0A1
:1012C000FC013183208389818F5F89838981282F65
:1012D00030E0C901880F991F820F931F880F991F53
:1012E000880F991F89569E4FFC01118210828981B7
:1012F000282F30E0C901880F991F820F931F880F94
:10130000991F880F991F9C0127563E4F80E293E05A
:10131000A0E0B0E0F90180839183A283B383898147
:10132000282F30E0C901880F991F820F931F880F63
:10133000991F880F991F9C0123563E4F80E293E02E
:10134000A0E0B0E0F90180839183A283B383898117
:10135000282F30E0C901880F991F820F931F880F33
:10136000991F880F991F8F559E4F27E635E0FC0186
:101370003183208389818F5F89838981282F30E0A1
:10138000C901880F991F820F931F880F991F880F1B
:10139000991F89569E4FFC01118210828981282F46
:1013A00030E0C901880F991F820F931F880F991F82
:1013B000880F991F9C0127563E4F84EF91E0A0E0D3
:1013C000B0E0F90180839183A283B3838981282FC0
:1013D00030E0C901880F991F820F931F880F991F52
:1013E000880F991F83569E4FFC0110821182128232
:1013F00013828981282F30E0C901880F991F820F3D
:10140000931F880F991F880F991F8F559E4F2AEEA3
:1014100035E0FC013183208389818F5F8983898155
:10142000282F30E0C901880F991F820F931F880F62
:10143000991F880F991F89569E4FFC0111821082B7
:101440008981282F30E0C901880F991F820F931FCF
:10145000880F991F880F991F9C0127563E4F84EFD4
:1014600091E0A0E0B0E0F90180839183A283B3838F
:101470008981282F30E0C901880F991F820F931F9F
:10148000880F991F880F991F83569E4FFC01108269
:101490001182128213828981282F30E0C901880FBE
:1014A000991F820F931F880F991F880F991F8F55BF
:1014B0009E4F2AE836E0FC013183208389818F5FCB
:1014C00089838981282F30E0C901880F991F820FF5
:1014D000931F880F991F880F991F89569E4FFC01F3
:1014E000118210828981282F30E0C901880F991F4D
:1014F000820F931F880F991F880F991F9C012756F1
:101500003E4F84E690E0A0E0B0E0F9018083918353
:10151000A283B3838981282F30E0C901880F991FE6
:10152000820F931F880F991F880F991F83569E4F14
:10153000FC0110821182128213828981282F30E0EF
:10154000C901880F991F820F931F880F991F880F59
:10155000991F8F559E4F2CEE37E0FC01318320837D
:1015600064E670E080E090E00E945D020E941A0252
:101570000E948D030E94B4030E94720085E00E94C5
:10158000CA03909395018093940184E00E94CA035A
:101590009093EB018093EA018091940190919501E1
:1015A0008835924038F48091EA019091EB018835BA
:1015B000924030F085E290E021E0FC01208318C0E9
:1015C00080919401909195018536910538F0809134
:1015D000EA019091EB018536910530F485E290E0C7
:1015E00022E0FC01208304C085E290E0FC0110822F
:1015F000C5CF0E94A60B08F481E008950E94120B4B
:101600000C94E10B0E94DA0B58F00E94D30B40F0CF
:1016100029F45F3F29F00C94CA0B51110C94150C5E
:101620000C94D00B0E94F20B68F39923B1F355236D
:1016300091F3951B550BBB27AA27621773078407E5
:1016400038F09F5F5F4F220F331F441FAA1FA9F37B
:1016500035D00E2E3AF0E0E832D091505040E69569
:10166000001CCAF72BD0FE2F29D0660F771F881FCA
:10167000BB1F261737074807AB07B0E809F0BB0BBD
:10168000802DBF01FF2793585F4F3AF09E3F5105D1
:1016900078F00C94CA0B0C94150C5F3FE4F3983E61
:1016A000D4F3869577956795B795F7959F5FC9F7BA
:1016B000880F911D9695879597F90895E1E0660F3B
:1016C000771F881FBB1F621773078407BA0720F0B4
:1016D000621B730B840BBA0BEE1F88F7E09508951D
:1016E0000E94770B6894B1110C94150C08950E9418
:1016F000FA0B88F09F5798F0B92F9927B751B0F09F
:10170000E1F0660F771F881F991F1AF0BA95C9F785
:1017100014C0B13091F00E94140CB1E008950C9403
:10172000140C672F782F8827B85F39F0B93FCCF3B6
:10173000869577956795B395D9F73EF49095809502
:10174000709561957F4F8F4F9F4F0895990F0008B7
:10175000550FAA0BE0E8FEEF16161706E807F90783
:10176000C0F012161306E407F50798F0621B730B1E
:10177000840B950B39F40A2661F0232B242B252B9F
:1017800021F408950A2609F4A140A6958FEF811D42
:10179000811D089597F99F6780E870E060E00895E3
:1017A0009FEF80EC089500240A9416161706180679
:1017B0000906089500240A94121613061406050655
:1017C0000895092E0394000C11F4882352F0BB0FE6
:1017D00040F4BF2B11F460FF04C06F5F7F4F8F4F49
:1017E0009F4F089557FD9058440F551F59F05F3F84
:1017F00071F04795880F97FB991F61F09F3F79F033
:1018000087950895121613061406551FF2CF4695B4
:10181000F1DF08C0161617061806991FF1CF869536
:101820007105610508940895E894BB27662777271A
:10183000CB0197F908950E94A60B08F48FEF089545
:101840000E94330C0C94E10B0E94D30B38F00E94E1
:10185000DA0B20F0952311F00C94CA0B0C94D00BEA
:1018600011240C94150C0E94F20B70F3959FC1F398
:10187000950F50E0551F629FF001729FBB27F00D3E
:10188000B11D639FAA27F00DB11DAA1F649F662793
:10189000B00DA11D661F829F2227B00DA11D621FE2
:1018A000739FB00DA11D621F839FA00D611D221F9C
:1018B000749F3327A00D611D231F849F600D211D80
:1018C000822F762F6A2F11249F5750409AF0F1F003
:1018D00088234AF0EE0FFF1FBB1F661F771F881F6C
:1018E00091505040A9F79E3F510580F00C94CA0BCF
:1018F0000C94150C5F3FE4F3983ED4F386957795EE
:101900006795B795F795E7959F5FC1F7FE2B880F11
:10191000911D9695879597F90895F999FECF92BDF7
:1019200081BDF89A992780B50895262FF999FECFA1
:101930001FBA92BD81BD20BD0FB6F894FA9AF99AEC
:0A1940000FBE01960895F894FFCF42
:10194A00010000000000000200000000FC0300008B
:10195A00000000000406072000804020100FF00F4E
:10196A0000FF7BD49243A4D08243D7A376430000DE
:10197A005C430000C443A4D0A443B8FEB843A4D037
:10198A00A4437BD49243090057656C636F6D65204D
:10199A00746F20444452210A205354415254202047
:1019AA0045584954202A0020202020202020202089
:1019BA002020477265656E0020202020426C7565E4
:0819CA000059656C6C6F770099
:00000001FF
