:100000000C9446000C9465000C9465000C946500FB
:100010000C9465000C9465000C9465000C946500CC
:100020000C9465000C9465000C9465000C946500BC
:100030000C9465000C9490010C9465000C94650080
:100040000C9465000C9465000C9465000C9465009C
:100050000C9465000C9465000C9465000C9465008C
:100060000C9465000C9465000C9465000C9465007C
:100070000C9465000C9465000C9465000C9465006C
:100080000C9465000C9465000C94650011241FBE4F
:10009000CFEFD0E4DEBFCDBF11E0A0E0B1E0E6E3FA
:1000A000F3E100E00BBF02C007900D92A834B10746
:1000B000D9F721E0A8E4B1E001C01D92A13AB2074E
:1000C000E1F70E942F060C9499090C9400000F93FD
:1000D0001F93CF93DF931F92CDB7DEB71982A4C0D1
:1000E0008981282F30E0C901880F991F820F931F43
:1000F000880F991F880F991F855A9E4FFC012081F8
:100100003181428153818981682F70E0CB01880F52
:10011000991F860F971F880F991F880F991F895A5B
:100120009E4FFC0180819181A281B38128173907FC
:100130004A075B0708F449C08981082F10E08981CC
:10014000282F30E0C901880F991F820F931F880F55
:10015000991F880F991F815A9E4FFC014081518140
:100160008981282F30E0C901880F991F820F931FC2
:10017000880F991F880F991F8B5A9E4FFC01808111
:100180009181FA0109959C01C801880F991F800F80
:10019000911F880F991F880F991F8B5A9E4FFC0142
:1001A000318320838981282F30E0C901880F991F6E
:1001B000820F931F880F991F880F991F855A9E4F92
:1001C000FC0110821182128213828981682F70E0F3
:1001D0008981282F30E0C901880F991F820F931F52
:1001E000880F991F880F991F855A9E4FFC018081A7
:1001F0009181A281B3819C01AD012C593F4F4F4F9A
:100200005F4FCB01880F991F860F971F880F991F8B
:10021000880F991F855A9E4FFC01208331834283AA
:10022000538389818F5F89838981853008F458CF12
:1002300000000F90DF91CF911F910F910895CF9300
:10024000DF93CDB7DEB781E890E02BE0FC0120839F
:1002500088E890E02DE730E0FC01318320838FE6D1
:1002600090E022E0FC01208384E890E0FC01118210
:1002700010828091000190910101A0910201B09142
:1002800003018093490190934A01A0934B01B093DD
:100290004C018FE590E02FE530E0F90120812068E6
:1002A000FC0120830000DF91CF910895CF93DF936D
:1002B000CDB7DEB781E890E0FC0110820000DF914D
:1002C000CF910895CF93DF9300D000D0CDB7DEB7A4
:1002D00069837A838B839C8389819A81AB81BC817A
:1002E0008093000190930101A0930201B093030158
:1002F0008091000190910101A0910201B091030150
:100300008093490190934A01A0934B01B0934C0113
:1003100000000F900F900F900F90DF91CF910895F4
:100320001F920F9200905F000F92112400905B00CB
:100330000F922F933F934F935F936F937F938F937E
:100340009F93AF93BF93EF93FF93CF93DF93CDB77B
:10035000DEB78091490190914A01A0914B01B09183
:100360004C010197A109B1098093490190934A0179
:10037000A0934B01B0934C018091490190914A01A7
:10038000A0914B01B0914C01892B8A2B8B2B91F4BE
:100390000E9467008091000190910101A0910201EB
:1003A000B09103018093490190934A01A0934B01BE
:1003B000B0934C010000DF91CF91FF91EF91BF917D
:1003C000AF919F918F917F916F915F914F913F91ED
:1003D0002F910F9000925B000F9000925F000F90A2
:1003E0001F9018950F931F93CF93DF9300D000D0E9
:1003F000CDB7DEB769837A838B839C83809150016C
:1004000090915101A0915201B09153019C01AD0115
:1004100069817A818B819C810E940508882309F477
:1004200077C020E030E0A90169817A818B819C81CD
:100430000E940508882351F481E990E021E930E029
:10044000F90120812870FC01208309C081E990E036
:1004500021E930E0F90120812360FC01208328E5B7
:1004600039E344E75FE369817A818B819C810E9453
:100470000508882344F488E990E02FEF3FEFFC0162
:100480003183208334C020E034E244EF56E46981B4
:100490007A818B819C810E942709181634F488E99F
:1004A00090E0FC011182108222C008E910E020E0F7
:1004B00030E040E053E469817A818B819C810E9425
:1004C0002C09DC01CB019C01AD0160E074E284EFFA
:1004D0009AE40E940A08DC01CB01BC01CD010E9414
:1004E0007C08DC01CB010197F8019183808384E9CA
:1004F00090E0FC011182108289819A81AB81BC81DC
:100500008093500190935101A0935201B0935301F5
:1005100000000F900F900F900F90DF91CF911F91DF
:100520000F910895CF93DF93CDB7DEB780E990E0C8
:1005300020E4FC01208381E990E02BE0FC01208392
:1005400060E070E0CB010E94F2010000DF91CF91EA
:100550000895CF93DF93CDB7DEB780E990E0FC013B
:10056000108281E990E0FC0110820000DF91CF91C0
:100570000895CF93DF9300D01F92CDB7DEB7898364
:100580007B836A8389818A3031F48A819B81BC01B3
:100590008DE00E94B90280EC90E0FC018081882F00
:1005A00090E080729927892BB1F386EC90E0298145
:1005B000FC01208380E090E00F900F900F90DF917E
:1005C000CF910895CF93DF93CDB7DEB783E090E06E
:1005D00090939E0180939D0183E090E0909397011A
:1005E0008093960183E090E09093A00180939F0117
:1005F00084E090E090939A01809399010000DF914C
:10060000CF910895CF93DF9300D0CDB7DEB79A8313
:10061000898380919D0190919E018130910581F0A7
:100620008130910530F08230910589F00397B1F067
:1006300019C081E090E090939E0180939D0113C0CA
:1006400082E090E090939E0180939D010CC082E037
:1006500090E090939E0180939D0105C010929E01B1
:1006600010929D01000080919D0190919E0181302A
:10067000910549F081309105D0F08230910551F01B
:100680000397B9F017C084E090E090934E018093F7
:100690004D0110C088E290E020914D0130914E0153
:1006A0002E5E3E4FF9012081FC01208303C0000033
:1006B00001C0000080919D0190919E010F900F90CC
:1006C000DF91CF910895CF93DF9300D0CDB7DEB700
:1006D0009A83898380E290E0FC0180818095847018
:1006E00080939201809196019091970181309105BC
:1006F00081F08130910530F08230910501F103974E
:10070000B9F13BC081E090E090939701809396010E
:1007100034C080919201882359F08091540188233C
:1007200039F082E090E0909397018093960125C084
:1007300081E090E090939701809396011EC0809194
:100740004F01282F30E0809145019091460182179A
:1007500093073CF082E090E090939701809396019C
:100760000CC081E090E0909397018093960105C0C2
:10077000109297011092960100008091960190913D
:1007800097018130910559F08130910508F456C0E8
:100790008230910581F0039709F449C052C010924C
:1007A0009C0110929B0110924F0160E070E0CB0120
:1007B0000E94F20146C081E090E090939C018093FA
:1007C0009B0180914F01282F30E08091450190914D
:1007D000460182179307C4F080914F01882F90E063
:1007E000880F991F880F991F8F5D9E4FFC01808194
:1007F0009181A281B381BC01CD010E94F20180915F
:100800004F018F5F80934F0180914F01282F30E07F
:10081000809145019091460101962817390781F48E
:1008200082E090E090939C0180939B0109C064EA70
:1008300070ED82E893E40E94F20103C0000001C061
:10084000000080919601909197010F900F90DF9199
:10085000CF910895CF93DF9300D0CDB7DEB79A83C1
:10086000898380919F019091A0018130910581F051
:100870008130910530F082309105E1F0039799F1D4
:1008800036C081E090E09093A00180939F0130C03A
:1008900080919201882339F082E090E09093A0014A
:1008A00080939F0125C081E090E09093A001809308
:1008B0009F011EC080914F01282F30E0809145019B
:1008C00090914601821793073CF481E090E0909369
:1008D000A00180939F010CC082E090E09093A00162
:1008E00080939F0105C01092A00110929F0100000B
:1008F00080919F019091A0018130910501F181309B
:100900009105F8F08230910519F00397E1F01CC0D1
:1009100080914F01882369F08BE290E020914F0194
:10092000222F30E0295E3E4FF9012081FC01208317
:100930000BC08BE290E02FEFFC01208305C000008C
:1009400003C0000001C0000080919F019091A001B0
:100950000F900F90DF91CF910895CF93DF9300D048
:10096000CDB7DEB79A8389838091930190919401EA
:100970008230910591F18330910528F4009749F078
:10098000019771F04FC08330910571F1049799F18F
:1009900049C081E090E0909394018093930142C01C
:1009A00080919201882391F09091540181E08927F0
:1009B000882361F082E090E090939401809393010A
:1009C0008BE290E02FEFFC0120832CC081E090E0CF
:1009D000909394018093930125C083E090E09093DD
:1009E0009401809393011EC084E090E09093940161
:1009F0008093930117C080919201882391F0809198
:100A00005401882371F080919B0190919C01892B66
:100A100041F481E090E090939401809393011092CF
:100A200054010000809193019091940182309105CE
:100A300099F08330910528F40097F1F0019739F08F
:100A40001EC08330910579F00497C1F018C08BE285
:100A500090E0FC01108213C060E070E08CED93E444
:100A60000E94F2010CC060E070E0CB010E94F20134
:100A700081E08093540103C0000001C00000809118
:100A80009301909194010F900F90DF91CF91089571
:100A9000CF93DF9300D0CDB7DEB79A83898380E20E
:100AA00090E0FC018081882F90E08170992721E0FF
:100AB000892B09F020E0822F8093980180E290E05A
:100AC000FC018081809582708093910180919901D1
:100AD00090919A0182309105E1F08330910528F4DC
:100AE000009749F0019771F03DC083309105C9F13D
:100AF000049791F137C081E090E090939A01809340
:100B0000990130C082E090E090939A01809399011E
:100B100029C080914D0190914E01892B19F40E94BA
:100B2000E20220C080919B0190919C01029769F4A0
:100B300080914D0190914E01892B39F083E090E036
:100B400090939A01809399010DC082E090E0909378
:100B50009A018093990106C010929A01109299010E
:100B600001C000008091990190919A018230910515
:100B700091F08330910538F4009709F462C0019731
:100B800009F461C063C08330910509F446C004973D
:100B900009F451C05BC080914F0181708823D9F462
:100BA00080919B0190919C010197A9F480919801FB
:100BB000882389F180914D0190914E0118161906F4
:100BC00054F580914D0190914E01019790934E0103
:100BD00080934D0120C080914F0181708823A9F13D
:100BE00080919B0190919C01019779F580919101F1
:100BF000882359F180914D0190914E0118161906E4
:100C000024F580914D0190914E01019790934E01F2
:100C100080934D011AC0000018C0809195018F5F2C
:100C20008093950160E070ED82E094E40E94F2010F
:100C30000E94E2020BC060E070E0CB010E94F20172
:100C400005C0000003C0000001C0000080919901B0
:100C500090919A010F900F90DF91CF910895CF93CB
:100C6000DF931F92CDB7DEB781E290E0FC011082E6
:100C700082E290E02FEFFC01208384E290E02FEFEE
:100C8000FC01208385E290E0FC01108287E290E085
:100C90002FEFFC01208388E290E0FC0110828AE2C1
:100CA00090E02FEFFC0120838BE290E0FC011082AA
:100CB00019828981282F30E0C901880F991F820F7E
:100CC000931F880F991F880F991F8B5A9E4FFC0105
:100CD000118210828981282F30E0C901880F991F65
:100CE000820F931F880F991F880F991F9C01295A03
:100CF0003E4F8CE291E0A0E0B0E0F9018083918367
:100D0000A283B3838981282F30E0C901880F991FFE
:100D1000820F931F880F991F880F991F855A9E4F26
:100D2000FC0110821182128213828981282F30E007
:100D3000C901880F991F820F931F880F991F880F71
:100D4000991F815A9E4F22E033E0FC0131832083BA
:100D500089818F5F89838981282F30E0C901880FBD
:100D6000991F820F931F880F991F880F991F8B5A05
:100D70009E4FFC01118210828981282F30E0C90129
:100D8000880F991F820F931F880F991F880F991F33
:100D90009C01295A3E4F8CEB92E0A0E0B0E0F901B3
:100DA00080839183A283B3838981282F30E0C90196
:100DB000880F991F820F931F880F991F880F991F03
:100DC0009C01255A3E4F8CEB92E0A0E0B0E0F90187
:100DD00080839183A283B3838981282F30E0C90166
:100DE000880F991F820F931F880F991F880F991FD3
:100DF000815A9E4F23E633E0FC01318320838981B1
:100E00008F5F89838981282F30E0C901880F991F5E
:100E1000820F931F880F991F880F991F8B5A9E4F1F
:100E2000FC01118210828981282F30E0C901880FCE
:100E3000991F820F931F880F991F880F991F9C017C
:100E4000295A3E4F8CEB92E0A0E0B0E0F90180839C
:100E50009183A283B3838981282F30E0C901880F51
:100E6000991F820F931F880F991F880F991F9C014C
:100E7000255A3E4F8CEB92E0A0E0B0E0F901808370
:100E80009183A283B3838981282F30E0C901880F21
:100E9000991F820F931F880F991F880F991F815ADE
:100EA0009E4F2AE234E0FC013183208389818F5FE9
:100EB00089838981282F30E0C901880F991F820F0B
:100EC000931F880F991F880F991F8B5A9E4FFC0103
:100ED000118210828981282F30E0C901880F991F63
:100EE000820F931F880F991F880F991F9C01295A01
:100EF0003E4F84EF91E0A0E0B0E0F9018083918360
:100F0000A283B3838981282F30E0C901880F991FFC
:100F1000820F931F880F991F880F991F855A9E4F24
:100F2000FC0110821182128213828981282F30E005
:100F3000C901880F991F820F931F880F991F880F6F
:100F4000991F815A9E4F2DEA34E0FC0131832083A2
:100F500089818F5F89838981282F30E0C901880FBB
:100F6000991F820F931F880F991F880F991F8B5A03
:100F70009E4FFC01118210828981282F30E0C90127
:100F8000880F991F820F931F880F991F880F991F31
:100F90009C01295A3E4F8CEB92E0A0E0B0E0F901B1
:100FA00080839183A283B3838981282F30E0C90194
:100FB000880F991F820F931F880F991F880F991F01
:100FC000855A9E4FFC011082118212821382898100
:100FD000282F30E0C901880F991F820F931F880FB7
:100FE000991F880F991F815A9E4F28E435E0FC0114
:100FF0003183208364E670E080E090E00E9462012B
:101000000E941F010E949202FFCF0E94B20808F4C2
:1010100081E008950E941E080C94ED080E94E608E5
:1010200058F00E94DF0840F029F45F3F29F00C944B
:10103000D60851110C9421090C94DC080E94FE087A
:1010400068F39923B1F3552391F3951B550BBB27F7
:10105000AA2762177307840738F09F5F5F4F220F3C
:10106000331F441FAA1FA9F335D00E2E3AF0E0E833
:1010700032D091505040E695001CCAF72BD0FE2F7D
:1010800029D0660F771F881FBB1F26173707480711
:10109000AB07B0E809F0BB0B802DBF01FF279358C9
:1010A0005F4F3AF09E3F510578F00C94D6080C94AF
:1010B00021095F3FE4F3983ED4F3869577956795D1
:1010C000B795F7959F5FC9F7880F911D96958795FE
:1010D00097F90895E1E0660F771F881FBB1F62171D
:1010E00073078407BA0720F0621B730B840BBA0BDB
:1010F000EE1F88F7E09508950E9483086894B11167
:101100000C94210908950E94060988F09F5798F0D1
:10111000B92F9927B751B0F0E1F0660F771F881FFC
:10112000991F1AF0BA95C9F714C0B13091F00E9416
:101130002009B1E008950C942009672F782F8827A3
:10114000B85F39F0B93FCCF3869577956795B3953D
:10115000D9F73EF490958095709561957F4F8F4FAC
:101160009F4F0895990F0008550FAA0BE0E8FEEF76
:1011700016161706E807F907C0F012161306E4075B
:10118000F50798F0621B730B840B950B39F40A2654
:1011900061F0232B242B252B21F408950A2609F432
:1011A000A140A6958FEF811D811D089597F99F6736
:1011B00080E870E060E008959FEF80EC08950024DF
:1011C0000A941616170618060906089500240A94AC
:1011D00012161306140605060895092E0394000C32
:1011E00011F4882352F0BB0F40F4BF2B11F460FFC1
:1011F00004C06F5F7F4F8F4F9F4F089557FD9058EA
:10120000440F551F59F05F3F71F04795880F97FBCA
:10121000991F61F09F3F79F0879508951216130684
:101220001406551FF2CF4695F1DF08C016161706B3
:101230001806991FF1CF86957105610508940895E8
:10124000E894BB2766277727CB0197F908950E947A
:10125000B20808F48FEF08950E943F090C94ED083E
:101260000E94DF0838F00E94E60820F0952311F074
:101270000C94D6080C94DC0811240C9421090E94CB
:10128000FE0870F3959FC1F3950F50E0551F629FC4
:10129000F001729FBB27F00DB11D639FAA27F00DCF
:1012A000B11DAA1F649F6627B00DA11D661F829FF6
:1012B0002227B00DA11D621F739FB00DA11D621FDB
:1012C000839FA00D611D221F749F3327A00D611DF8
:1012D000231F849F600D211D822F762F6A2F1124DA
:1012E0009F5750409AF0F1F088234AF0EE0FFF1F0D
:1012F000BB1F661F771F881F91505040A9F79E3F64
:10130000510580F00C94D6080C9421095F3FE4F35A
:10131000983ED4F3869577956795B795F795E795B9
:101320009F5FC1F7FE2B880F911D9695879597F9C2
:061330000895F894FFCFC0
:10133600010000000000000200000000B9020000E9
:101346000000000004060700804020100FF00F0088
:10135600FF7BD49243A4D08243D7A3764300005C9C
:10136600430000C443A4D0A443B8FEB843A4D0A409
:08137600437BD49243090000FF
:00000001FF
