:100000000C9446000C9465000C9465000C946500FB
:100010000C9465000C9465000C9465000C946500CC
:100020000C9465000C9465000C9465000C946500BC
:100030000C9465000C94E3000C9465000C9465002E
:100040000C9465000C9465000C9465000C9465009C
:100050000C9465000C9465000C9465000C9465008C
:100060000C9465000C9465000C9465000C9465007C
:100070000C9465000C9465000C9465000C9465006C
:100080000C9465000C9465000C94650011241FBE4F
:10009000CFEFD0E4DEBFCDBF11E0A0E0B1E0EEEFE6
:1000A000FCE000E00BBF02C007900D92AA33B1073D
:1000B000D9F721E0AAE3B1E001C01D92A535B2074E
:1000C000E1F70E94A0040C947D060C940000CF93ED
:1000D000DF93CDB7DEB781E080933A010000DF9176
:1000E000CF910895CF93DF93CDB7DEB781E890E04D
:1000F0002BE0FC01208388E890E02DE730E0FC0154
:10010000318320838FE690E022E0FC01208384E8A5
:1001100090E0FC0111821082809100019091010118
:10012000A0910201B091030180933B0190933C01A7
:10013000A0933D01B0933E018FE590E02FE530E0C4
:10014000F90120812068FC0120830000DF91CF911C
:100150000895CF93DF93CDB7DEB781E890E0FC013F
:1001600010820000DF91CF910895CF93DF9300D0EC
:1001700000D0CDB7DEB769837A838B839C83898176
:100180009A81AB81BC818093000190930101A0937F
:100190000201B09303018091000190910101A091AF
:1001A0000201B091030180933B0190933C01A09325
:1001B0003D01B0933E0100000F900F900F900F9003
:1001C000DF91CF9108951F920F9200905F000F92E0
:1001D000112400905B000F922F933F934F935F93F6
:1001E0006F937F938F939F93AF93BF93EF93FF93FF
:1001F000CF93DF93CDB7DEB780913B0190913C0167
:10020000A0913D01B0913E010197A109B1098093F0
:100210003B0190933C01A0933D01B0933E0180913E
:100220003B0190913C01A0913D01B0913E01892B91
:100230008A2B8B2B91F40E94670080910001909192
:100240000101A0910201B091030180933B019093C1
:100250003C01A0933D01B0933E010000DF91CF919E
:10026000FF91EF91BF91AF919F918F917F916F918E
:100270005F914F913F912F910F9000925B000F90F3
:1002800000925F000F901F9018950F931F93CF93CC
:10029000DF9300D000D0CDB7DEB769837A838B833C
:1002A0009C838091420190914301A0914401B091BF
:1002B00045019C01AD0169817A818B819C810E94FD
:1002C000E904882309F477C020E030E0A9016981BE
:1002D0007A818B819C810E94E904882351F481E911
:1002E00090E021E930E0F90120812870FC012083B1
:1002F00009C081E990E021E930E0F9012081236023
:10030000FC01208328E539E344E75FE369817A81D2
:100310008B819C810E94E904882344F488E990E061
:100320002FEF3FEFFC013183208334C020E034E223
:1003300044EF56E469817A818B819C810E940B068F
:10034000181634F488E990E0FC011182108222C072
:1003500008E910E020E030E040E053E469817A8170
:100360008B819C810E941006DC01CB019C01AD01B8
:1003700060E074E284EF9AE40E94EE04DC01CB01B9
:10038000BC01CD010E946005DC01CB010197F801A1
:100390009183808384E990E0FC011182108289813D
:1003A0009A81AB81BC818093420190934301A093D9
:1003B0004401B093450100000F900F900F900F90F3
:1003C000DF91CF911F910F910895CF93DF93CDB718
:1003D000DEB780E990E020E4FC01208381E990E031
:1003E0002BE0FC01208360E070E0CB010E9445011E
:1003F0000000DF91CF910895CF93DF93CDB7DEB7A3
:1004000080E990E0FC01108281E990E0FC0110821B
:100410000000DF91CF910895CF93DF9300D01F921A
:10042000CDB7DEB789837B836A8389818A3031F4D3
:100430008A819B81BC018DE00E940C0280EC90E0DF
:10044000FC018081882F90E080729927892BB1F37D
:1004500086EC90E02981FC01208380E090E00F9001
:100460000F900F90DF91CF910895CF93DF93CDB789
:10047000DEB780915101909152018130910569F070
:100480008130910518F0029779F015C081E090E075
:1004900090935201809351010EC082E090E09093BE
:1004A00052018093510107C082E090E09093520185
:1004B000809351010000809151019091520181304F
:1004C000910531F081309105B8F0029741F015C0E7
:1004D00083E090E09093400180933F010EC088E25A
:1004E00090E020913F01309140012E5E3E4FF90196
:1004F0002081FC01208301C000000000DF91CF912A
:100500000895CF93DF9300D0CDB7DEB780E290E0BF
:10051000FC018081809584708093490189E090E09E
:100520009A83898380914C0190914D01813091058E
:1005300081F08130910530F08230910511F10397FF
:1005400039F13DC081E090E090934D0180934C01E2
:1005500036C01092460180914901882359F080915C
:100560004701882339F082E090E090934D01809319
:100570004C0125C081E090E090934D0180934C01A7
:100580001EC083E090E090934D0180934C0117C012
:1005900080914101282F30E089819A818217930749
:1005A0003CF083E090E090934D0180934C0106C0B5
:1005B00081E090E090934D0180934C010000809188
:1005C0004C0190914D018130910549F081309105A8
:1005D00098F18230910591F1039749F032C0109261
:1005E000410160E070E0CB010E9445012AC081E03A
:1005F0008093460180914101282F30E089819A81C2
:1006000082179307ECF080914101882F90E0880FCA
:10061000991F880F991F8A5E9E4FFC0180819181EE
:10062000A281B381BC01CD010E94450180914101AD
:100630008F5F8093410104C0000003C0000001C02F
:10064000000000000F900F90DF91CF910895CF939D
:10065000DF93CDB7DEB78091530190915401813083
:10066000910569F08130910518F00297D1F02BC007
:1006700081E090E0909354018093530124C08091D5
:100680004901882339F082E090E0909354018093EF
:10069000530119C081E090E090935401809353017D
:1006A00012C080914101893038F081E090E0909350
:1006B00054018093530106C082E090E0909354016E
:1006C0008093530100008091530190915401813037
:1006D000910509F440C08130910508F43EC00297AD
:1006E00009F03EC080914101813021F080914101AB
:1006F000853031F48BE290E028E8FC0120832AC0A9
:1007000080914101823021F080914101863031F4A5
:100710008BE290E024E4FC0120831CC08091410125
:10072000833021F080914101873031F48BE290E0F9
:1007300022E2FC0120830EC080914101843021F02F
:1007400080914101883059F48BE290E021E1FC0175
:10075000208305C004C0000003C0000001C00000E9
:100760000000DF91CF910895CF93DF93CDB7DEB72F
:1007700080914A0190914B018130910569F081305F
:10078000910518F0029741F13EC081E090E090930E
:100790004B0180934A0137C0809149018823A9F019
:1007A0009091470181E08927882379F082E090E0E9
:1007B00090934B0180934A018BE290E02FEFFC0174
:1007C000208381E0809347011EC081E090E09093F8
:1007D0004B0180934A0117C080914901882391F011
:1007E00080914701882371F09091460181E089272B
:1007F000882341F081E090E090934B0180934A017F
:1008000010924701000080914A0190914B01813084
:10081000910531F08130910528F0029729F005C04B
:10082000000003C0000001C000000000DF91CF9174
:100830000895CF93DF93CDB7DEB780E290E0FC015F
:100840008081882F90E08170992721E0892B09F021
:1008500020E0822F80934E0180E290E0FC018081B5
:10086000809582708093480180914F019091500152
:100870008130910569F08130910518F0029779F087
:1008800015C081E090E09093500180934F010EC01D
:1008900082E090E09093500180934F0107C082E086
:1008A00090E09093500180934F01000080914F01A0
:1008B0009091500181309105D1F181309105C8F1BD
:1008C000029709F039C08091410181708823A9F411
:1008D00080914E01882379F180913F0190914001F0
:1008E0001816190644F580913F0190914001019737
:1008F0009093400180933F011EC08091410181701F
:100900008823C9F0809148018823A9F080913F0194
:10091000909140011816190674F480913F0190914E
:10092000400101979093400180933F0104C0000073
:1009300003C0000001C000000000DF91CF910895C6
:10094000CF93DF93CDB7DEB781E290E0FC01108258
:1009500082E290E02FEFFC01208384E290E02FEF11
:10096000FC01208385E290E0FC01108287E290E0A8
:100970002FEFFC01208388E290E0FC0110828AE2E4
:1009800090E02FEFFC0120838BE290E0FC011082CD
:100990000E94E50160E070E0CB010E94450168EE35
:1009A00073E080E090E00E94B5000E9472000E9417
:1009B00035020E9481020E9427030E94B4030E9414
:1009C0001904000080913A018823E1F310923A0162
:1009D000EECF0E94960508F481E008950E9402057A
:1009E0000C94D1050E94CA0558F00E94C30540F03E
:1009F00029F45F3F29F00C94BA0551110C940506B7
:100A00000C94C0050E94E20568F39923B1F35523C5
:100A100091F3951B550BBB27AA2762177307840711
:100A200038F09F5F5F4F220F331F441FAA1FA9F3A7
:100A300035D00E2E3AF0E0E832D091505040E69595
:100A4000001CCAF72BD0FE2F29D0660F771F881FF6
:100A5000BB1F261737074807AB07B0E809F0BB0BE9
:100A6000802DBF01FF2793585F4F3AF09E3F5105FD
:100A700078F00C94BA050C9405065F3FE4F3983EB9
:100A8000D4F3869577956795B795F7959F5FC9F7E6
:100A9000880F911D9695879597F90895E1E0660F67
:100AA000771F881FBB1F621773078407BA0720F0E0
:100AB000621B730B840BBA0BEE1F88F7E095089549
:100AC0000E9467056894B1110C94050608950E9470
:100AD000EA0588F09F5798F0B92F9927B751B0F0E1
:100AE000E1F0660F771F881F991F1AF0BA95C9F7B2
:100AF00014C0B13091F00E940406B1E008950C9446
:100B00000406672F782F8827B85F39F0B93FCCF3F8
:100B1000869577956795B395D9F73EF4909580952E
:100B2000709561957F4F8F4F9F4F0895990F0008E3
:100B3000550FAA0BE0E8FEEF16161706E807F907AF
:100B4000C0F012161306E407F50798F0621B730B4A
:100B5000840B950B39F40A2661F0232B242B252BCB
:100B600021F408950A2609F4A140A6958FEF811D6E
:100B7000811D089597F99F6780E870E060E008950F
:100B80009FEF80EC089500240A94161617061806A5
:100B90000906089500240A94121613061406050681
:100BA0000895092E0394000C11F4882352F0BB0F12
:100BB00040F4BF2B11F460FF04C06F5F7F4F8F4F75
:100BC0009F4F089557FD9058440F551F59F05F3FB0
:100BD00071F04795880F97FB991F61F09F3F79F05F
:100BE00087950895121613061406551FF2CF4695E1
:100BF000F1DF08C0161617061806991FF1CF869563
:100C00007105610508940895E894BB276627772746
:100C1000CB0197F908950E94960508F48FEF089587
:100C20000E9423060C94D1050E94C30538F00E944F
:100C3000CA0520F0952311F00C94BA050C94C00558
:100C400011240C9405060E94E20570F3959FC1F3F0
:100C5000950F50E0551F629FF001729FBB27F00D6A
:100C6000B11D639FAA27F00DB11DAA1F649F6627BF
:100C7000B00DA11D661F829F2227B00DA11D621F0E
:100C8000739FB00DA11D621F839FA00D611D221FC8
:100C9000749F3327A00D611D231F849F600D211DAC
:100CA000822F762F6A2F11249F5750409AF0F1F02F
:100CB00088234AF0EE0FFF1FBB1F661F771F881F98
:100CC00091505040A9F79E3F510580F00C94BA0511
:100CD0000C9405065F3FE4F3983ED4F38695779530
:100CE0006795B795F795E7959F5FC1F7FE2B880F3E
:0E0CF000911D9695879597F90895F894FFCF7A
:100CFE000100000000000002000000000C020000D5
:100D0E000000000102077BD49243A4D08243D7A3F4
:100D1E00764300005C430000C443A4D0A443B8FE55
:0A0D2E00B843A4D0A4437BD4924341
:00000001FF
