:100000000C9446000C9465000C9465000C946500FB
:100010000C9465000C9465000C9465000C946500CC
:100020000C9465000C9465000C9465000C946500BC
:100030000C9465000C9490010C9465000C94650080
:100040000C9465000C9465000C9465000C9465009C
:100050000C9465000C9465000C9465000C9465008C
:100060000C9465000C9465000C9465000C9465007C
:100070000C9465000C9465000C9465000C9465006C
:100080000C9465000C9465000C94650011241FBE4F
:10009000CFEFD0E4DEBFCDBF11E0A0E0B1E0E0E003
:1000A000F2E100E00BBF02C007900D92AA33B10746
:1000B000D9F721E0AAE3B1E001C01D92A139B2074E
:1000C000E1F70E9494050C94FE080C9400000F9335
:1000D0001F93CF93DF931F92CDB7DEB71982A4C0D1
:1000E0008981282F30E0C901880F991F820F931F43
:1000F000880F991F880F991F825B9E4FFC012081FA
:100100003181428153818981682F70E0CB01880F52
:10011000991F860F971F880F991F880F991F865B5D
:100120009E4FFC0180819181A281B38128173907FC
:100130004A075B0708F449C08981082F10E08981CC
:10014000282F30E0C901880F991F820F931F880F55
:10015000991F880F991F8E5A9E4FFC014081518133
:100160008981282F30E0C901880F991F820F931FC2
:10017000880F991F880F991F885B9E4FFC01808113
:100180009181FA0109959C01C801880F991F800F80
:10019000911F880F991F880F991F885B9E4FFC0144
:1001A000318320838981282F30E0C901880F991F6E
:1001B000820F931F880F991F880F991F825B9E4F94
:1001C000FC0110821182128213828981682F70E0F3
:1001D0008981282F30E0C901880F991F820F931F52
:1001E000880F991F880F991F825B9E4FFC018081A9
:1001F0009181A281B3819C01AD012C593F4F4F4F9A
:100200005F4FCB01880F991F860F971F880F991F8B
:10021000880F991F825B9E4FFC01208331834283AC
:10022000538389818F5F89838981853008F458CF12
:1002300000000F90DF91CF911F910F910895CF9300
:10024000DF93CDB7DEB781E890E02BE0FC0120839F
:1002500088E890E02DE730E0FC01318320838FE6D1
:1002600090E022E0FC01208384E890E0FC01118210
:1002700010828091000190910101A0910201B09142
:10028000030180933B0190933C01A0933D01B09307
:100290003E018FE590E02FE530E0F90120812068F4
:1002A000FC0120830000DF91CF910895CF93DF936D
:1002B000CDB7DEB781E890E0FC0110820000DF914D
:1002C000CF910895CF93DF9300D000D0CDB7DEB7A4
:1002D00069837A838B839C8389819A81AB81BC817A
:1002E0008093000190930101A0930201B093030158
:1002F0008091000190910101A0910201B091030150
:1003000080933B0190933C01A0933D01B0933E014B
:1003100000000F900F900F900F90DF91CF910895F4
:100320001F920F9200905F000F92112400905B00CB
:100330000F922F933F934F935F936F937F938F937E
:100340009F93AF93BF93EF93FF93CF93DF93CDB77B
:10035000DEB780913B0190913C01A0913D01B091AD
:100360003E010197A109B10980933B0190933C01A3
:10037000A0933D01B0933E0180913B0190913C01DF
:10038000A0913D01B0913E01892B8A2B8B2B91F4DA
:100390000E9467008091000190910101A0910201EB
:1003A000B091030180933B0190933C01A0933D01E8
:1003B000B0933E010000DF91CF91FF91EF91BF918B
:1003C000AF919F918F917F916F915F914F913F91ED
:1003D0002F910F9000925B000F9000925F000F90A2
:1003E0001F9018950F931F93CF93DF9300D000D0E9
:1003F000CDB7DEB769837A838B839C83809142017A
:1004000090914301A0914401B09145019C01AD013F
:1004100069817A818B819C810E946A07882309F413
:1004200077C020E030E0A90169817A818B819C81CD
:100430000E946A07882351F481E990E021E930E0C5
:10044000F90120812870FC01208309C081E990E036
:1004500021E930E0F90120812360FC01208328E5B7
:1004600039E344E75FE369817A818B819C810E9453
:100470006A07882344F488E990E02FEF3FEFFC01FE
:100480003183208334C020E034E244EF56E46981B4
:100490007A818B819C810E948C08181634F488E93B
:1004A00090E0FC011182108222C008E910E020E0F7
:1004B00030E040E053E469817A818B819C810E9425
:1004C0009108DC01CB019C01AD0160E074E284EF96
:1004D0009AE40E946F07DC01CB01BC01CD010E94B0
:1004E000E107DC01CB010197F8019183808384E966
:1004F00090E0FC011182108289819A81AB81BC81DC
:100500008093420190934301A0934401B09345012D
:1005100000000F900F900F900F90DF91CF911F91DF
:100520000F910895CF93DF93CDB7DEB780E990E0C8
:1005300020E4FC01208381E990E02BE0FC01208392
:1005400060E070E0CB010E94F2010000DF91CF91EA
:100550000895CF93DF93CDB7DEB780E990E0FC013B
:10056000108281E990E0FC0110820000DF91CF91C0
:100570000895CF93DF9300D01F92CDB7DEB7898364
:100580007B836A8389818A3031F48A819B81BC01B3
:100590008DE00E94B90280EC90E0FC018081882F00
:1005A00090E080729927892BB1F386EC90E0298145
:1005B000FC01208380E090E00F900F900F90DF917E
:1005C000CF910895CF93DF9300D0CDB7DEB79A8354
:1005D000898380918D0190918E018130910569F020
:1005E0008130910518F0029779F015C081E090E014
:1005F00090938E0180938D010EC082E090E09093E5
:100600008E0180938D0107C082E090E090938E016F
:1006100080938D01000080918D0190918E01813039
:10062000910531F081309105B8F0029741F015C085
:1006300083E090E09093400180933F010EC088E2F8
:1006400090E020913F01309140012E5E3E4FF90134
:100650002081FC01208301C0000080918D019091D8
:100660008E010F900F90DF91CF910895CF93DF937C
:1006700000D000D0CDB7DEB79C838B8380E290E0C2
:10068000FC018081809584708093850189E090E0F1
:100690009A838983809188019091890181309105A5
:1006A00069F08130910518F00297F1F034C081E0D3
:1006B00090E090938901809388012DC080918501FD
:1006C000882359F080914701882339F082E090E037
:1006D00090938901809388011EC081E090E09093FF
:1006E00089018093880117C080914101282F30E053
:1006F00089819A81821793073CF082E090E0909381
:1007000089018093880106C081E090E0909389017F
:100710008093880100008091880190918901813047
:10072000910531F08130910590F1029759F032C076
:10073000109246011092410160E070E0CB010E94EE
:10074000F20128C081E08093460180914101282F69
:1007500030E089819A8182179307DCF08091410112
:10076000882F90E0880F991F880F991F8A5E9E4FEF
:10077000FC0180819181A281B381BC01CD010E94E5
:10078000F201809141018F5F8093410102C000001E
:1007900001C0000080918801909189010F900F9015
:1007A0000F900F90DF91CF910895CF93DF9300D0FA
:1007B000CDB7DEB79A83898380918F0190919001A4
:1007C0008130910569F08130910518F00297D1F0E0
:1007D0002BC081E090E09093900180938F0124C022
:1007E00080918501882339F082E090E09093900118
:1007F00080938F0119C081E090E0909390018093E5
:100800008F0112C080914101893038F081E090E081
:100810009093900180938F0106C082E090E09093C6
:10082000900180938F01000080918F019091900141
:100830008130910509F440C08130910508F43EC033
:10084000029709F03EC080914101813021F08091F2
:100850004101853031F48BE290E028E8FC012083EF
:100860002AC080914101823021F08091410186307F
:1008700031F48BE290E024E4FC0120831CC08091E1
:100880004101833021F080914101873031F48BE2C6
:1008900090E022E2FC0120830EC08091410184306F
:1008A00021F080914101883059F48BE290E021E100
:1008B000FC01208305C004C0000003C0000001C08B
:1008C000000080918F01909190010F900F90DF9127
:1008D000CF910895CF93DF9300D0CDB7DEB79A8341
:1008E000898380918601909187018230910591F1F1
:1008F0008330910528F4009749F0019771F04FC0BB
:100900008330910571F1049799F149C081E090E03D
:10091000909387018093860142C08091850188234E
:1009200091F09091470181E08927882361F082E06E
:1009300090E090938701809386018BE290E02FEF07
:10094000FC0120832CC081E090E09093870180938C
:10095000860125C083E090E0909387018093860113
:100960001EC084E090E0909387018093860117C0B9
:1009700080918501882391F080914701882371F04F
:100980009091460181E08927882341F081E090E041
:100990009093870180938601109247010000809117
:1009A0008601909187018230910599F083309105FD
:1009B00028F40097F1F0019739F01EC083309105BB
:1009C00079F00497C1F018C08BE290E0FC0110822E
:1009D00013C060E070E08CED93E40E94F2010CC063
:1009E00060E070E0CB010E94F20181E0809347015A
:1009F00003C0000001C00000809186019091870132
:100A00000F900F90DF91CF910895CF93DF9300D097
:100A1000CDB7DEB79A83898380E290E0FC018081C4
:100A2000882F90E08170992721E0892B09F020E040
:100A3000822F80938A0180E290E0FC018081809582
:100A400082708093840180918B0190918C01813020
:100A5000910569F08130910518F0029779F015C081
:100A600081E090E090938C0180938B010EC082E036
:100A700090E090938C0180938B0107C082E090E01E
:100A800090938C0180938B01000080918B01909159
:100A90008C0181309105D1F181309105C8F1029727
:100AA00009F039C08091410181708823A9F48091B7
:100AB0008A01882379F180913F01909140011816B5
:100AC000190644F580913F01909140010197909360
:100AD000400180933F011EC08091410181708823B5
:100AE000C9F0809184018823A9F080913F01909101
:100AF00040011816190674F480913F01909140014D
:100B000001979093400180933F0104C0000003C00F
:100B1000000001C0000080918B0190918C010F902A
:100B20000F90DF91CF910895CF93DF931F92CDB7B0
:100B3000DEB781E290E0FC01108282E290E02FEFCC
:100B4000FC01208384E290E02FEFFC01208385E20A
:100B500090E0FC01108287E290E02FEFFC012083FF
:100B600088E290E0FC0110828AE290E02FEFFC0125
:100B700020838BE290E0FC01108219828981282F6A
:100B800030E0C901880F991F820F931F880F991FAA
:100B9000880F991F885B9E4FFC011182108289810A
:100BA000282F30E0C901880F991F820F931F880FEB
:100BB000991F880F991F9C01265B3E4F8CE291E0A4
:100BC000A0E0B0E0F90180839183A283B38389819F
:100BD000282F30E0C901880F991F820F931F880FBB
:100BE000991F880F991F825B9E4FFC011082118212
:100BF000128213828981282F30E0C901880F991F42
:100C0000820F931F880F991F880F991F8E5A9E4F2E
:100C100022EE32E0FC013183208389818F5F89835A
:100C20008981282F30E0C901880F991F820F931FF7
:100C3000880F991F880F991F885B9E4FFC011182B6
:100C400010828981282F30E0C901880F991F820FF7
:100C5000931F880F991F880F991F9C01265B3E4F99
:100C60008CEB92E0A0E0B0E0F90180839183A28355
:100C7000B3838981282F30E0C901880F991F820F23
:100C8000931F880F991F880F991F9C01225B3E4F6D
:100C90008CEB92E0A0E0B0E0F90180839183A28325
:100CA000B3838981282F30E0C901880F991F820FF3
:100CB000931F880F991F880F991F8E5A9E4F26E306
:100CC00033E0FC013183208389818F5F89838981AF
:100CD000282F30E0C901880F991F820F931F880FBA
:100CE000991F880F991F885B9E4FFC01118210820B
:100CF0008981282F30E0C901880F991F820F931F27
:100D0000880F991F880F991F9C01265B3E4F8CEB23
:100D100092E0A0E0B0E0F90180839183A283B383E5
:100D20008981282F30E0C901880F991F820F931FF6
:100D3000880F991F880F991F9C01225B3E4F8CEBF7
:100D400092E0A0E0B0E0F90180839183A283B383B5
:100D50008981282F30E0C901880F991F820F931FC6
:100D6000880F991F880F991F8E5A9E4F25ED33E0EB
:100D7000FC013183208389818F5F89838981282FBA
:100D800030E0C901880F991F820F931F880F991FA8
:100D9000880F991F885B9E4FFC0111821082898108
:100DA000282F30E0C901880F991F820F931F880FE9
:100DB000991F880F991F9C01265B3E4F8CE291E0A2
:100DC000A0E0B0E0F90180839183A283B38389819D
:100DD000282F30E0C901880F991F820F931F880FB9
:100DE000991F880F991F825B9E4FFC011082118210
:100DF000128213828981282F30E0C901880F991F40
:100E0000820F931F880F991F880F991F8E5A9E4F2C
:100E10002AE634E0FC013183208389818F5F898356
:100E20008981282F30E0C901880F991F820F931FF5
:100E3000880F991F880F991F885B9E4FFC011182B4
:100E400010828981282F30E0C901880F991F820FF5
:100E5000931F880F991F880F991F9C01265B3E4F97
:100E60008CE291E0A0E0B0E0F90180839183A2835D
:100E7000B3838981282F30E0C901880F991F820F21
:100E8000931F880F991F880F991F825B9E4FFC014B
:100E900010821182128213828981282F30E0C901C9
:100EA000880F991F820F931F880F991F880F991F12
:100EB0008E5A9E4F25E035E0FC013183208364E6A5
:100EC00070E080E090E00E9462010E941F010E9499
:100ED0009202FFCF0E94170808F481E008950E9453
:100EE00083070C9452080E944B0858F00E94440853
:100EF00040F029F45F3F29F00C943B0851110C9409
:100F000086080C9441080E94630868F39923B1F3A2
:100F1000552391F3951B550BBB27AA27621773071F
:100F2000840738F09F5F5F4F220F331F441FAA1FB3
:100F3000A9F335D00E2E3AF0E0E832D0915050406F
:100F4000E695001CCAF72BD0FE2F29D0660F771F1D
:100F5000881FBB1F261737074807AB07B0E809F003
:100F6000BB0B802DBF01FF2793585F4F3AF09E3F88
:100F7000510578F00C943B080C9486085F3FE4F32D
:100F8000983ED4F3869577956795B795F7959F5FCB
:100F9000C9F7880F911D9695879597F90895E1E017
:100FA000660F771F881FBB1F621773078407BA0776
:100FB00020F0621B730B840BBA0BEE1F88F7E095D1
:100FC00008950E94E8076894B1110C94860808956A
:100FD0000E946B0888F09F5798F0B92F9927B75156
:100FE000B0F0E1F0660F771F881F991F1AF0BA95CD
:100FF000C9F714C0B13091F00E948508B1E008959E
:101000000C948508672F782F8827B85F39F0B93F8F
:10101000CCF3869577956795B395D9F73EF490957F
:101020008095709561957F4F8F4F9F4F0895990FD1
:101030000008550FAA0BE0E8FEEF16161706E807A2
:10104000F907C0F012161306E407F50798F0621BC3
:10105000730B840B950B39F40A2661F0232B242B98
:10106000252B21F408950A2609F4A140A6958FEFB7
:10107000811D811D089597F99F6780E870E060E009
:1010800008959FEF80EC089500240A941616170621
:1010900018060906089500240A9412161306140669
:1010A00005060895092E0394000C11F4882352F0CC
:1010B000BB0F40F4BF2B11F460FF04C06F5F7F4F84
:1010C0008F4F9F4F089557FD9058440F551F59F06B
:1010D0005F3F71F04795880F97FB991F61F09F3F25
:1010E00079F087950895121613061406551FF2CF4E
:1010F0004695F1DF08C0161617061806991FF1CF9E
:1011000086957105610508940895E894BB276627C4
:101110007727CB0197F908950E94170808F48FEFFD
:1011200008950E94A4080C9452080E94440838F0C4
:101130000E944B0820F0952311F00C943B080C946E
:10114000410811240C9486080E94630870F3959F4F
:10115000C1F3950F50E0551F629FF001729FBB27AE
:10116000F00DB11D639FAA27F00DB11DAA1F649F4A
:101170006627B00DA11D661F829F2227B00DA11DFD
:10118000621F739FB00DA11D621F839FA00D611D83
:10119000221F749F3327A00D611D231F849F600DA4
:1011A000211D822F762F6A2F11249F5750409AF0CD
:1011B000F1F088234AF0EE0FFF1FBB1F661F771F59
:1011C000881F91505040A9F79E3F510580F00C9424
:1011D0003B080C9486085F3FE4F3983ED4F3869571
:1011E00077956795B795F795E7959F5FC1F7FE2BC4
:1011F000880F911D9695879597F90895F894FFCFDC
:10120000010000000000000200000000B902000020
:101210000000000102077BD49243A4D08243D7A3ED
:10122000764300005C430000C443A4D0A443B8FE4E
:0A123000B843A4D0A4437BD492433A
:00000001FF
