:100000000C9446000C9465000C9465000C946500FB
:100010000C9465000C9465000C9465000C946500CC
:100020000C9465000C9465000C9465000C946500BC
:100030000C9465000C9490010C9465000C94650080
:100040000C9465000C9465000C9465000C9465009C
:100050000C9465000C9465000C9465000C9465008C
:100060000C9465000C9465000C9465000C9465007C
:100070000C9465000C9465000C9465000C9465006C
:100080000C9465000C9465000C94650011241FBE4F
:10009000CFEFD0E4DEBFCDBF11E0A0E0B1E0E0E102
:1000A000F6E100E00BBF02C007900D92A834B10743
:1000B000D9F721E0A8E4B1E001C01D92A63BB20748
:1000C000E1F70E9432070C94060B0C9400000F938A
:1000D0001F93CF93DF931F92CDB7DEB71982A4C0D1
:1000E0008981282F30E0C901880F991F820F931F43
:1000F000880F991F880F991F835A9E4FFC012081FA
:100100003181428153818981682F70E0CB01880F52
:10011000991F860F971F880F991F880F991F875A5D
:100120009E4FFC0180819181A281B38128173907FC
:100130004A075B0708F449C08981082F10E08981CC
:10014000282F30E0C901880F991F820F931F880F55
:10015000991F880F991F8F599E4FFC014081518133
:100160008981282F30E0C901880F991F820F931FC2
:10017000880F991F880F991F895A9E4FFC01808113
:100180009181FA0109959C01C801880F991F800F80
:10019000911F880F991F880F991F895A9E4FFC0144
:1001A000318320838981282F30E0C901880F991F6E
:1001B000820F931F880F991F880F991F835A9E4F94
:1001C000FC0110821182128213828981682F70E0F3
:1001D0008981282F30E0C901880F991F820F931F52
:1001E000880F991F880F991F835A9E4FFC018081A9
:1001F0009181A281B3819C01AD012C593F4F4F4F9A
:100200005F4FCB01880F991F860F971F880F991F8B
:10021000880F991F835A9E4FFC01208331834283AC
:10022000538389818F5F89838981863008F458CF11
:1002300000000F90DF91CF911F910F910895CF9300
:10024000DF93CDB7DEB781E890E02BE0FC0120839F
:1002500088E890E02DE730E0FC01318320838FE6D1
:1002600090E022E0FC01208384E890E0FC01118210
:1002700010828091000190910101A0910201B09142
:1002800003018093490190934A01A0934B01B093DD
:100290004C018FE590E02FE530E0F90120812068E6
:1002A000FC0120830000DF91CF910895CF93DF936D
:1002B000CDB7DEB781E890E0FC0110820000DF914D
:1002C000CF910895CF93DF9300D000D0CDB7DEB7A4
:1002D00069837A838B839C8389819A81AB81BC817A
:1002E0008093000190930101A0930201B093030158
:1002F0008091000190910101A0910201B091030150
:100300008093490190934A01A0934B01B0934C0113
:1003100000000F900F900F900F90DF91CF910895F4
:100320001F920F9200905F000F92112400905B00CB
:100330000F922F933F934F935F936F937F938F937E
:100340009F93AF93BF93EF93FF93CF93DF93CDB77B
:10035000DEB78091490190914A01A0914B01B09183
:100360004C010197A109B1098093490190934A0179
:10037000A0934B01B0934C018091490190914A01A7
:10038000A0914B01B0914C01892B8A2B8B2B91F4BE
:100390000E9467008091000190910101A0910201EB
:1003A000B09103018093490190934A01A0934B01BE
:1003B000B0934C010000DF91CF91FF91EF91BF917D
:1003C000AF919F918F917F916F915F914F913F91ED
:1003D0002F910F9000925B000F9000925F000F90A2
:1003E0001F9018950F931F93CF93DF9300D000D0E9
:1003F000CDB7DEB769837A838B839C83809150016C
:1004000090915101A0915201B09153019C01AD0115
:1004100069817A818B819C810E945C09882309F41F
:1004200077C020E030E0A90169817A818B819C81CD
:100430000E945C09882351F481E990E021E930E0D1
:10044000F90120812870FC01208309C081E990E036
:1004500021E930E0F90120812360FC01208328E5B7
:1004600039E344E75FE369817A818B819C810E9453
:100470005C09882344F488E990E02FEF3FEFFC010A
:100480003183208334C020E034E244EF56E46981B4
:100490007A818B819C810E947E0A181634F488E947
:1004A00090E0FC011182108222C008E910E020E0F7
:1004B00030E040E053E469817A818B819C810E9425
:1004C000830ADC01CB019C01AD0160E074E284EFA2
:1004D0009AE40E946109DC01CB01BC01CD010E94BC
:1004E000D309DC01CB010197F8019183808384E972
:1004F00090E0FC011182108289819A81AB81BC81DC
:100500008093500190935101A0935201B0935301F5
:1005100000000F900F900F900F90DF91CF911F91DF
:100520000F910895CF93DF93CDB7DEB780E990E0C8
:1005300020E4FC01208381E990E02BE0FC01208392
:1005400060E070E0CB010E94F2010000DF91CF91EA
:100550000895CF93DF93CDB7DEB780E990E0FC013B
:10056000108281E990E0FC0110820000DF91CF91C0
:100570000895CF93DF93CDB7DEB78CE790E02CE7FB
:1005800030E0F90120812064FC0120838AE790E0BB
:1005900027E8FC0120830000DF91CF910895CF93DD
:1005A000DF931F92CDB7DEB78983898187708983F6
:1005B0008CE790E02CE730E0F9012081322F387F82
:1005C0002981232BFC0120838AE790E02AE730E091
:1005D000F90120812064FC01208300008AE790E07B
:1005E000FC018081882F90E080749927892BB1F7D6
:1005F00088E790E0FC01808191810F90DF91CF919D
:100600000895CF93DF9300D01F92CDB7DEB78983D3
:100610007B836A8389818A3031F48A819B81BC0122
:100620008DE00E94010380EC90E0FC018081882F26
:1006300090E080729927892BB1F386EC90E02981B4
:10064000FC01208380E090E00F900F900F90DF91ED
:10065000CF910895CF93DF93CDB7DEB783E090E0DD
:100660009093B1018093B00183E090E09093A70153
:100670008093A60183E090E09093B5018093B4014C
:1006800084E090E09093AD018093AC018BE290E028
:100690002FEFFC0120830000DF91CF910895CF93CD
:1006A000DF9300D0CDB7DEB79A8389838091B00104
:1006B0009091B1018130910581F08130910530F048
:1006C0008230910589F00397B1F019C081E090E084
:1006D0009093B1018093B00113C082E090E09093B9
:1006E000B1018093B0010CC082E090E09093B10121
:1006F0008093B00105C01092B1011092B0010000CA
:100700008091B0019091B1018130910549F0813023
:10071000910568F08230910561F0039761F00CC09B
:1007200084E090E090934E0180934D0105C000005D
:1007300003C0000001C000008091B0019091B101A0
:100740000F900F90DF91CF910895CF93DF9300D05A
:10075000CDB7DEB79A83898380E290E0FC01808187
:10076000809584708093A0018091A6019091A7014B
:100770008130910581F08130910530F08230910512
:1007800001F10397B9F13BC081E090E09093A7019C
:100790008093A60134C08091A001882359F08091F4
:1007A0005601882339F082E090E09093A70180936E
:1007B000A60125C081E090E09093A7018093A60157
:1007C0001EC080914F01282F30E08091450190910B
:1007D0004601821793073CF082E090E09093A701D6
:1007E0008093A6010CC081E090E09093A7018093D4
:1007F000A60105C01092A7011092A60100008091E9
:10080000A6019091A7018130910559F081309105A1
:1008100008F456C08230910581F0039709F449C06D
:1008200052C01092AF011092AE0110924F0160E0E1
:1008300070E0CB010E94F20146C081E090E090930D
:10084000AF018093AE0180914F01282F30E080915D
:1008500045019091460182179307C4F080914F01A2
:10086000882F90E0880F991F880F991F8F5D9E4FEA
:10087000FC0180819181A281B381BC01CD010E94E4
:10088000F20180914F018F5F80934F0180914F0162
:10089000282F30E08091450190914601019628175C
:1008A000390781F482E090E09093AF018093AE012C
:1008B00009C064EA70ED82E893E40E94F20103C08B
:1008C000000001C000008091A6019091A7010F9047
:1008D0000F90DF91CF910895CF93DF9300D0CDB7E4
:1008E000DEB79A8389838091B4019091B5018130FC
:1008F000910581F08130910530F082309105E1F071
:10090000039799F136C081E090E09093B501809310
:10091000B40130C08091A001882339F082E090E0DA
:100920009093B5018093B40125C081E090E090934D
:10093000B5018093B4011EC080914F01282F30E093
:100940008091450190914601821793073CF481E024
:1009500090E09093B5018093B4010CC082E090E0E8
:100960009093B5018093B40105C01092B501109227
:10097000B40100008091B4019091B50181309105DE
:1009800001F181309105F8F08230910519F003975B
:10099000E1F01CC080914F01882369F08BE290E068
:1009A00020914F01222F30E0295E3E4FF901208136
:1009B000FC0120830BC08BE290E02FEFFC01208331
:1009C00005C0000003C0000001C000008091B40118
:1009D0009091B5010F900F90DF91CF910895CF9333
:1009E000DF9300D0CDB7DEB79A8389838091A201CF
:1009F0009091A3018230910591F18330910528F403
:100A0000009749F0019771F04FC08330910571F163
:100A1000049799F149C081E090E09093A3018093FD
:100A2000A20142C08091A001882391F090915601CB
:100A300081E08927882361F082E090E09093A30110
:100A40008093A2018BE290E02FEFFC0120832CC069
:100A500081E090E09093A3018093A20125C083E000
:100A600090E09093A3018093A2011EC084E090E0E7
:100A70009093A3018093A20117C08091A0018823C5
:100A800091F080915601882371F08091AE01909190
:100A9000AF01892B41F481E090E09093A301809312
:100AA000A2011092560100008091A2019091A30131
:100AB0008230910511F18330910528F4009769F196
:100AC000019739F02DC083309105F1F0049739F189
:100AD00027C080E090E00E94F00A8093A8018091F6
:100AE000A801882329F088E290E021E0FC0120831E
:100AF0008BE290E0FC01108213C060E070E08CEDAE
:100B000093E40E94F2010CC060E070E0CB010E940F
:100B1000F20181E08093560103C0000001C0000093
:100B20008091A2019091A3010F900F90DF91CF913E
:100B30000895CF93DF9300D0CDB7DEB79A83898332
:100B400080E290E0FC018081882F90E081709927FD
:100B500021E0892B09F020E0822F8093A90180E217
:100B600090E0FC0180818095827080939F0180E2FB
:100B700090E0FC018081809584708093A501809134
:100B8000AC019091AD0182309105E1F08330910587
:100B900028F4009749F0019771F03DC0833091052A
:100BA000C9F1049791F137C081E090E09093AD01D5
:100BB0008093AC0130C082E090E09093AD018093CF
:100BC000AC0129C080914D0190914E01892B19F4FF
:100BD0000E942A0320C08091AE019091AF0102973C
:100BE00069F480914D0190914E01892B39F083E099
:100BF00090E09093AD018093AC010DC082E090E055
:100C00009093AD018093AC0106C01092AD0110929B
:100C1000AC0101C000008091AC019091AD01823027
:100C2000910591F08330910538F4009709F48EC056
:100C3000019709F48DC08FC08330910509F44AC033
:100C4000049709F47DC087C080914F01817088238B
:100C5000D9F48091AE019091AF010197A9F48091F0
:100C6000A9018823A9F180914D0190914E01181698
:100C7000190674F580914D0190914E010197909362
:100C80004E0180934D0124C080914F0181708823D3
:100C900009F460C08091AE019091AF01019709F015
:100CA00059C080919F01882309F454C080914D015F
:100CB00090914E01181619060CF04CC080914D0110
:100CC00090914E01019790934E0180934D0142C047
:100CD000000040C08091A4018F5F8093A4018091A7
:100CE000A401813041F48091A401682F80E090E05C
:100CF0000E94F80A1CC08091A4018230C0F080E0FC
:100D000090E00E94F00A8093A8019091A801809140
:100D1000A401981760F48091A401682F80E090E00E
:100D20000E94F80A88E290E022E0FC01208360E063
:100D300070ED82E094E40E94F2010E942A030BC04D
:100D400060E070E0CB010E94F20105C0000003C02A
:100D5000000001C000008091AC019091AD010F90A6
:100D60000F90DF91CF910895CF93DF9300D0CDB74F
:100D7000DEB79A83898385E00E94CF029093550164
:100D80008093540184E00E94CF029093AB01809342
:100D9000AA018091B2019091B3018130910569F06F
:100DA0008130910518F0029779F015C081E090E04C
:100DB0009093B3018093B2010EC082E090E09093D3
:100DC000B3018093B20107C082E090E09093B30139
:100DD0008093B20100008091B2019091B301813003
:100DE000910591F18130910588F1029709F031C0A8
:100DF00080915401909155018835924020F081E016
:100E00008093A10125C08091AA019091AB01883502
:100E1000924020F082E08093A1011AC08091540199
:100E2000909155018536910520F483E08093A101CE
:100E30000FC08091AA019091AB018536910540F4D5
:100E400084E08093A10104C0000003C0000001C041
:100E500000008091B2019091B3010F900F90DF914B
:100E6000CF910895CF93DF931F92CDB7DEB781E284
:100E700090E0FC01108282E290E02FEFFC012083E1
:100E800084E290E02FEFFC01208385E290E0FC01FA
:100E9000108287E290E02FEFFC01208388E290E04F
:100EA000FC0110828AE290E02FEFFC0120838BE2AC
:100EB00090E0FC01108219828981282F30E0C9015D
:100EC000880F991F820F931F880F991F880F991FF2
:100ED000895A9E4FFC01118210828981282F30E0AF
:100EE000C901880F991F820F931F880F991F880FC0
:100EF000991F9C01275A3E4F8CE291E0A0E0B0E0A0
:100F0000F90180839183A283B3838981282F30E004
:100F1000C901880F991F820F931F880F991F880F8F
:100F2000991F835A9E4FFC011082118212821382F4
:100F30008981282F30E0C901880F991F820F931FE4
:100F4000880F991F880F991F8F599E4F2FE433E008
:100F5000FC013183208389818F5F89838981282FD8
:100F600030E0C901880F991F820F931F880F991FC6
:100F7000880F991F895A9E4FFC0111821082898126
:100F8000282F30E0C901880F991F820F931F880F07
:100F9000991F880F991F9C01275A3E4F8CEB92E0B6
:100FA000A0E0B0E0F90180839183A283B3838981BB
:100FB000282F30E0C901880F991F820F931F880FD7
:100FC000991F880F991F9C01235A3E4F8CEB92E08A
:100FD000A0E0B0E0F90180839183A283B38389818B
:100FE000282F30E0C901880F991F820F931F880FA7
:100FF000991F880F991F8F599E4F25EA33E0FC01F6
:101000003183208389818F5F89838981282F30E014
:10101000C901880F991F820F931F880F991F880F8E
:10102000991F895A9E4FFC01118210828981282FB5
:1010300030E0C901880F991F820F931F880F991FF5
:10104000880F991F9C01275A3E4F8CEB92E0A0E03D
:10105000B0E0F90180839183A283B3838981282F33
:1010600030E0C901880F991F820F931F880F991FC5
:10107000880F991F9C01235A3E4F8CEB92E0A0E011
:10108000B0E0F90180839183A283B3838981282F03
:1010900030E0C901880F991F820F931F880F991F95
:1010A000880F991F8F599E4F2CE634E0FC01318345
:1010B000208389818F5F89838981282F30E0C9014E
:1010C000880F991F820F931F880F991F880F991FF0
:1010D000895A9E4FFC01118210828981282F30E0AD
:1010E000C901880F991F820F931F880F991F880FBE
:1010F000991F9C01275A3E4F84EF91E0A0E0B0E099
:10110000F90180839183A283B3838981282F30E002
:10111000C901880F991F820F931F880F991F880F8D
:10112000991F835A9E4FFC011082118212821382F2
:101130008981282F30E0C901880F991F820F931FE2
:10114000880F991F880F991F8F599E4F2FEE34E0FB
:10115000FC013183208389818F5F89838981282FD6
:1011600030E0C901880F991F820F931F880F991FC4
:10117000880F991F895A9E4FFC0111821082898124
:10118000282F30E0C901880F991F820F931F880F05
:10119000991F880F991F9C01275A3E4F84EF91E0B9
:1011A000A0E0B0E0F90180839183A283B3838981B9
:1011B000282F30E0C901880F991F820F931F880FD5
:1011C000991F880F991F835A9E4FFC01108211822C
:1011D000128213828981282F30E0C901880F991F5C
:1011E000820F931F880F991F880F991F8F599E4F49
:1011F00029E935E0FC013183208389818F5F898370
:101200008981282F30E0C901880F991F820F931F11
:10121000880F991F880F991F895A9E4FFC011182D0
:1012200010828981282F30E0C901880F991F820F11
:10123000931F880F991F880F991F9C01275A3E4FB3
:1012400084EF91E0A0E0B0E0F90180839183A28374
:10125000B3838981282F30E0C901880F991F820F3D
:10126000931F880F991F880F991F835A9E4FFC0167
:1012700010821182128213828981282F30E0C901E5
:10128000880F991F820F931F880F991F880F991F2E
:101290008F599E4F24EB36E0FC013183208364E6B6
:1012A00070E080E090E00E9462010E941F010E94B5
:1012B00092020E94B902FFCF0E94090A08F481E05D
:1012C00008950E9475090C94440A0E943D0A58F042
:1012D0000E94360A40F029F45F3F29F00C942D0A51
:1012E00051110C94780A0C94330A0E94550A68F341
:1012F0009923B1F3552391F3951B550BBB27AA27CF
:1013000062177307840738F09F5F5F4F220F331F08
:10131000441FAA1FA9F335D00E2E3AF0E0E832D0D0
:1013200091505040E695001CCAF72BD0FE2F29D0D3
:10133000660F771F881FBB1F261737074807AB07A5
:10134000B0E809F0BB0B802DBF01FF2793585F4F1A
:101350003AF09E3F510578F00C942D0A0C94780ACF
:101360005F3FE4F3983ED4F3869577956795B795FC
:10137000F7959F5FC9F7880F911D9695879597F907
:101380000895E1E0660F771F881FBB1F6217730780
:101390008407BA0720F0621B730B840BBA0BEE1F95
:1013A00088F7E09508950E94DA096894B1110C94C9
:1013B000780A08950E945D0A88F09F5798F0B92F27
:1013C0009927B751B0F0E1F0660F771F881F991F7A
:1013D0001AF0BA95C9F714C0B13091F00E94770A9B
:1013E000B1E008950C94770A672F782F8827B85FAB
:1013F00039F0B93FCCF3869577956795B395D9F7D2
:101400003EF490958095709561957F4F8F4F9F4FDB
:101410000895990F0008550FAA0BE0E8FEEF161685
:101420001706E807F907C0F012161306E407F507D8
:1014300098F0621B730B840B950B39F40A2661F04C
:10144000232B242B252B21F408950A2609F4A140EF
:10145000A6958FEF811D811D089597F99F6780E8FC
:1014600070E060E008959FEF80EC089500240A94F6
:101470001616170618060906089500240A9412166F
:101480001306140605060895092E0394000C11F4A2
:10149000882352F0BB0F40F4BF2B11F460FF04C04F
:1014A0006F5F7F4F8F4F9F4F089557FD9058440FA8
:1014B000551F59F05F3F71F04795880F97FB991FB3
:1014C00061F09F3F79F08795089512161306140670
:1014D000551FF2CF4695F1DF08C0161617061806FD
:1014E000991FF1CF86957105610508940895E894D8
:1014F000BB2766277727CB0197F908950E94090A31
:1015000008F48FEF08950E94960A0C94440A0E94F2
:10151000360A38F00E943D0A20F0952311F00C9411
:101520002D0A0C94330A11240C94780A0E94550A4F
:1015300070F3959FC1F3950F50E0551F629FF00126
:10154000729FBB27F00DB11D639FAA27F00DB11D3F
:10155000AA1F649F6627B00DA11D661F829F2227C8
:10156000B00DA11D621F739FB00DA11D621F839F4F
:10157000A00D611D221F749F3327A00D611D231F25
:10158000849F600D211D822F762F6A2F11249F5773
:1015900050409AF0F1F088234AF0EE0FFF1FBB1F76
:1015A000661F771F881F91505040A9F79E3F510535
:1015B00080F00C942D0A0C94780A5F3FE4F3983E77
:1015C000D4F3869577956795B795F795E7959F5FDF
:1015D000C1F7FE2B880F911D9695879597F9089571
:1015E000F999FECF92BD81BDF89A992780B50895EB
:1015F000262FF999FECF1FBA92BD81BD20BD0FB62F
:10160000F894FA9AF99A0FBE01960895F894FFCFCC
:1016100001000000000000020000000001030000C3
:101620000000000004060700804020100FF00F00AB
:10163000FF7BD49243A4D08243D7A3764300005CBF
:10164000430000C443A4D0A443B8FEB843A4D0A42C
:08165000437BD4924309000022
:00000001FF
