:100000000C945A000C9479000C9479000C947900AB
:100010000C9479000C9479000C9479000C9479007C
:100020000C9479000C9479000C9479000C9479006C
:100030000C9479000C949F020C9479000C94790034
:100040000C9479000C9479000C9479000C9479004C
:100050000C9479000C9479000C9479000C9479003C
:100060000C9479000C9479000C9479000C9479002C
:100070000C9479000C9479000C9479000C9479001C
:100080000C9479000C9479000C94790005070C0706
:100090003F0746074D07540765078C079E079707DC
:1000A000D308D308BB07C107C707D307D9076B0815
:1000B000A108C90811241FBECFEFD0E4DEBFCDBF19
:1000C00011E0A0E0B1E0EEECFAE100E00BBF02C00D
:1000D00007900D92A43FB107D9F722E0A4EFB1E059
:1000E00001C01D92A236B207E1F70E9486090C9466
:1000F000650D0C940000CF93DF93CDB7DEB781E0A0
:100100000E94A2000000DF91CF910895CF93DF936A
:10011000CDB7DEB784E690E00E94460188E30E94F6
:10012000A20086E00E94A2008FE00E94A20081E06F
:100130000E94A2008AE090E00E9446010000DF9148
:10014000CF910895CF93DF931F92CDB7DEB7898308
:100150008BE290E02BE230E0F90120812F7BFC0163
:10016000208388E290E02981FC0120838BE290E0EB
:100170002BE230E0F90120812068FC01208300009F
:100180008BE290E02BE230E0F90120812F77FC0137
:10019000208382E090E00E94460100000F90DF91F2
:1001A000CF910895CF93DF931F92CDB7DEB78983A8
:1001B0008BE290E02BE230E0F90120812064FC0129
:1001C000208388E290E02981FC0120838BE290E08B
:1001D0002BE230E0F90120812068FC01208300003F
:1001E0008BE290E02BE230E0F90120812F77FC01D7
:1001F000208381E090E00E94460100000F90DF9193
:10020000CF910895CF93DF9300D000D0CDB7DEB764
:100210008A837C836B830E947B008A81898311C0DF
:10022000898191E0980F99830E942F018B819C8195
:100230009C012F5F3F4F3C832B83FC0180810E94F8
:10024000D2008B819C81FC018081882349F70000CA
:100250000F900F900F900F90DF91CF910895CF9353
:10026000DF931F92CDB7DEB789838981813128F46E
:10027000898181580E94A20004C0898181550E9411
:10028000A20000000F90DF91CF910895CF93DF93EC
:1002900000D000D000D0CDB7DEB79E838D831A8208
:1002A000198213C01C821B8206C000008B819C81B6
:1002B00001969C838B838B819C8187309340ACF328
:1002C00089819A8101969A83898329813A818D81D6
:1002D0009E812817390734F3000026960FB6F8944C
:1002E000DEBF0FBECDBFDF91CF9108950F931F9357
:1002F000CF93DF931F92CDB7DEB71982A4C0898157
:10030000282F30E0C901880F991F820F931F880F93
:10031000991F880F991F875F9D4FFC0120813181B4
:10032000428153818981682F70E0CB01880F991F2A
:10033000860F971F880F991F880F991F8B5F9D4FFE
:10034000FC0180819181A281B381281739074A0776
:100350005B0708F449C08981082F10E08981282FA4
:1003600030E0C901880F991F820F931F880F991FD2
:10037000880F991F835F9D4FFC01408151818981C6
:10038000282F30E0C901880F991F820F931F880F13
:10039000991F880F991F8D5F9D4FFC01808191816E
:1003A000FA0109959C01C801880F991F800F911FC0
:1003B000880F991F880F991F8D5F9D4FFC01318316
:1003C00020838981282F30E0C901880F991F820F6F
:1003D000931F880F991F880F991F875F9D4FFC01FE
:1003E00010821182128213828981682F70E08981C4
:1003F000282F30E0C901880F991F820F931F880FA3
:10040000991F880F991F875F9D4FFC018081918103
:10041000A281B3819C01AD012C593F4F4F4F5F4FDB
:10042000CB01880F991F860F971F880F991F880F80
:10043000991F875F9D4FFC01208331834283538343
:1004400089818F5F89838981863008F458CF0000C5
:100450000F90DF91CF911F910F910895CF93DF936C
:10046000CDB7DEB781E890E02BE0FC01208388E87F
:1004700090E02DE730E0FC01318320838FE690E0AF
:1004800022E0FC01208384E890E0FC0111821082CC
:100490008091000190910101A0910201B0910301AE
:1004A0008093F5019093F601A093F701B093F801C2
:1004B0008FE590E02FE530E0F90120812068FC0114
:1004C00020830000DF91CF910895CF93DF93CDB7C4
:1004D000DEB781E890E0FC0110820000DF91CF914F
:1004E0000895CF93DF9300D000D0CDB7DEB76983F6
:1004F0007A838B839C8389819A81AB81BC81809331
:10050000000190930101A0930201B0930301809137
:10051000000190910101A0910201B091030180932B
:10052000F5019093F601A093F701B093F801000054
:100530000F900F900F900F90DF91CF9108951F9221
:100540000F9200905F000F92112400905B000F92B9
:100550002F933F934F935F936F937F938F939F93CB
:10056000AF93BF93EF93FF93CF93DF93CDB7DEB7F6
:100570008091F5019091F601A091F701B091F801F9
:100580000197A109B1098093F5019093F601A09319
:10059000F701B093F8018091F5019091F601A091D7
:1005A000F701B091F801892B8A2B8B2B91F40E94D3
:1005B00076018091000190910101A0910201B0911A
:1005C00003018093F5019093F601A093F701B09396
:1005D000F8010000DF91CF91FF91EF91BF91AF91B2
:1005E0009F918F917F916F915F914F913F912F914B
:1005F0000F9000925B000F9000925F000F901F9091
:1006000018950F931F93CF93DF9300D000D0CDB7F1
:10061000DEB769837A838B839C838091FC01909100
:10062000FD01A091FE01B091FF019C01AD01698126
:100630007A818B819C810E94BB0B882309F477C04F
:1006400020E030E0A90169817A818B819C810E9440
:10065000BB0B882351F481E990E021E930E0F901F6
:1006600020812870FC01208309C081E990E021E904
:1006700030E0F90120812360FC01208328E539E383
:1006800044E75FE369817A818B819C810E94BB0B87
:10069000882344F488E990E02FEF3FEFFC01318399
:1006A000208334C020E034E244EF56E469817A814B
:1006B0008B819C810E94DD0C181634F488E990E04F
:1006C000FC011182108222C008E910E020E030E035
:1006D00040E053E469817A818B819C810E94E20C25
:1006E000DC01CB019C01AD0160E074E284EF9AE48F
:1006F0000E94C00BDC01CB01BC01CD010E94320C79
:10070000DC01CB010197F8019183808384E990E0BB
:10071000FC011182108289819A81AB81BC81809316
:10072000FC019093FD01A093FE01B093FF01000036
:100730000F900F900F900F90DF91CF911F910F911D
:100740000895CF93DF93CDB7DEB780E990E020E442
:10075000FC01208381E990E02BE0FC01208360E034
:1007600070E0CB010E9401030000DF91CF9108955A
:10077000CF93DF93CDB7DEB780E990E0FC01108224
:1007800081E990E0FC0110820000DF91CF91089593
:10079000CF93DF93CDB7DEB78CE790E02CE730E066
:1007A000F90120812064FC0120838AE790E027E89A
:1007B000FC0120830000DF91CF910895CF93DF9358
:1007C0001F92CDB7DEB789838981877089838CE7D3
:1007D00090E02CE730E0F9012081322F387F298129
:1007E000232BFC0120838AE790E02AE730E0F9011F
:1007F00020812064FC01208300008AE790E0FC0156
:100800008081882F90E080749927892BB1F788E741
:1008100090E0FC01808191810F90DF91CF9108954C
:10082000CF93DF9300D01F92CDB7DEB789837B8350
:100830006A8389818A3031F48A819B81BC018DE091
:100840000E94100480EC90E0FC018081882F90E0F1
:1008500080729927892BB1F386EC90E02981FC0105
:10086000208380E090E00F900F900F90DF91CF9168
:100870000895CF93DF93CDB7DEB783E090E09093F8
:100880005D0280935C0283E090E09093530280933A
:10089000520283E090E0909361028093600289E0CD
:1008A00090E090935902809358028BE290E02FE3FE
:1008B000FC01208310925B0210925A020000DF912B
:1008C000CF910895CF93DF9300D0CDB7DEB79A8351
:1008D000898380915C0290915D028130910581F065
:1008E0008130910530F08230910589F00397B1F0A5
:1008F00019C081E090E090935D0280935C0213C088
:1009000082E090E090935D0280935C020CC082E0F4
:1009100090E090935D0280935C0205C010925D02AE
:1009200010925C02000080915C0290915D02813027
:10093000910549F081309105D0F08230910551F058
:100940000397B9F017C084E090E09093FA01809388
:10095000F90110C085E290E02091F9013091FA018F
:100960002E5E3E4FF9012081FC01208303C0000070
:1009700001C0000080915C0290915D020F900F9089
:10098000DF91CF910895CF93DF9300D0CDB7DEB73D
:100990009A83898380E290E0FC0180818095847055
:1009A00080934C02809152029091530282309105C3
:1009B000E9F08330910528F4009751F0019779F020
:1009C0004BC08330910551F1049709F440C044C0F5
:1009D00082E090E090935302809352023DC082E007
:1009E00090E0909353028093520236C080915A0255
:1009F00090915B02019759F480910202882339F0AB
:100A000083E090E0909353028093520225C082E0ED
:100A100090E090935302809352021EC08091FB019C
:100A2000282F30E08091460190914701821793076B
:100A30003CF083E090E090935302809352020CC00C
:100A400082E090E0909353028093520205C010928E
:100A50005302109252020000809152029091530270
:100A600082309105A1F08330910530F4009709F4AC
:100A700053C0019741F053C08330910581F0049732
:100A800009F443C04CC010925B0210925A021092BB
:100A9000FB0160E070E0CB010E94010340C0809147
:100AA000FB01282F30E08091460190914701821789
:100AB0009307C4F08091FB01882F90E0880F991F65
:100AC000880F991F8E5D9E4FFC0180819181A281CC
:100AD000B381BC01CD010E9401038091FB018F5FB6
:100AE0008093FB018091FB01282F30E0809146012B
:100AF0009091470101962817390784F082E090E031
:100B000090935B0280935A0209C064EA70ED82E818
:100B100093E40E94010303C0000001C00000809123
:100B20005202909153020F900F90DF91CF91089550
:100B3000CF93DF9300D0CDB7DEB79A8389838091BE
:100B40006002909161028130910581F081309105C0
:100B500030F082309105F1F00397A9F138C081E0BF
:100B600090E0909361028093600232C080915A02BB
:100B700090915B02019739F482E090E090936102DA
:100B80008093600225C081E090E0909361028093A1
:100B900060021EC08091FB01282F30E08091460149
:100BA00090914701821793073CF481E090E0909385
:100BB0006102809360020CC082E090E09093610239
:100BC0008093600205C010926102109260020000E2
:100BD00080916002909161028130910501F1813034
:100BE0009105F8F08230910519F00397E1F01CC0EF
:100BF0008091FB01882369F08BE290E02091FB015A
:100C0000222F30E0285E3E4FF9012081FC01208335
:100C10000BC08BE290E02FE3FC01208305C00000B5
:100C200003C0000001C00000809160029091610249
:100C30000F900F90DF91CF910895CF93DF9300D065
:100C4000CDB7DEB79A83898380914E0290914F028F
:100C50008230910591F18330910528F4009749F095
:100C6000019771F04FC08330910571F1049799F1AC
:100C700049C081E090E090934F0280934E0242C0C1
:100C800080914C02882391F09091020281E08927A3
:100C9000882361F082E090E090934F0280934E02AF
:100CA0008BE290E02FE3FC0120832CC081E090E0F8
:100CB00090934F0280934E0225C083E090E0909382
:100CC0004F0280934E021EC084E090E090934F024A
:100CD00080934E0217C080914C02882391F080913E
:100CE0000202882371F080915A0290915B02892B55
:100CF00041F481E090E090934F0280934E02109275
:100D00000202000080914E0290914F0282309105C4
:100D1000C9F08330910528F4009769F1019739F003
:100D20002DC083309105A9F0049739F127C080E0E8
:100D300090E00E944F0D809354028BE290E0FC0102
:100D400010821CC060E070E08CED93E40E9401030F
:100D500015C060E070E0CB010E94010368E471E01F
:100D600081E00E940201809154020E94D20081E041
:100D70008093020203C0000001C0000080914E0277
:100D800090914F020F900F90DF91CF910895CF93E4
:100D9000DF9300D0CDB7DEB79A83898380E290E0FD
:100DA000FC018081882F90E08170992721E0892BB8
:100DB00009F020E0822F8093550280E290E0FC0150
:100DC00080818095827080934B0280E290E0FC01EC
:100DD0008081809588708093510210925402809196
:100DE000580290915902CC01A0E0B0E040E050E000
:100DF00029E030E0841B950B2817390708F49CC0C4
:100E00008A5B9F4FFC010C94B20B81E090E09093C1
:100E100059028093580299C080911701882F90E061
:100E2000AC014151510980911701882F90E09C013C
:100E300027513109429FC001439F900D529F900D51
:100E4000112499235CF480915102882339F082E0C7
:100E500090E0909359028093580272C080911701DC
:100E6000873109F06DC080915102882309F468C070
:100E700085E090E0909359028093580261C083E02E
:100E800090E090935902809358025FC084E090E014
:100E9000909359028093580258C086E090E0909356
:100EA00059028093580251C080915102882309F45D
:100EB00049C068E471E081E00E94020181E090E0B5
:100EC00090935902809358023DC08091F90190910E
:100ED000FA01892B39F488E090E0909359028093CD
:100EE000580233C080915A0290915B02029769F4D4
:100EF0008091F9019091FA01892B39F087E090E017
:100F0000909359028093580220C086E090E090931D
:100F100059028093580219C0809151028823A1F090
:100F200082E090E090935902809358020DC0109295
:100F300059021092580209C0000007C0000005C005
:100F4000000003C0000001C0000080915802909191
:100F50005902CC01A0E0B0E040E050E029E030E0F0
:100F6000841B950B2817390708F41BC1805B9F4F22
:100F7000FC010C94B20B61E671E081E00E94020179
:100F800015C16EE671E081E00E9402010FC165E7C4
:100F900071E081E00E94020181E090E090935B02A9
:100FA00080935A0203C169E771E081E00E94020167
:100FB000FDC08091FB018170882351F58091FB0178
:100FC000893031F180915A0290915B02019701F5CD
:100FD0006DE871E081E00E94020180915502882352
:100FE00029F480915102882309F471C08091F9019C
:100FF0009091FA01181619060CF069C08091F90158
:101000009091FA0101979093FA018093F9015FC0E2
:101010008091FB01853071F18091FB01813051F1AC
:101020008091FB018170882329F180915A0290916F
:101030005B020197F9F46EE971E081E00E94020120
:1010400080914B02882329F480915102882309F46E
:1010500040C08091F9019091FA0118161906CCF55B
:101060008091F9019091FA0101979093FA01809390
:10107000F9012FC08091FB01853049F08091FB017F
:10108000813029F08091FB01893009F08EC067EA38
:1010900071E081E00E94020180915502882329F4C9
:1010A00080914B02882309F480C08091F9019091CE
:1010B000FA01181619060CF078C08091F901909188
:1010C000FA0101979093FA018093F9016EC0000034
:1010D0006CC000006AC06EEA71E081E00E9402010B
:1010E000809150028F5F8093500280915002813036
:1010F00041F480915002682F80E090E00E94570DEB
:1011000017C080915002823098F080E090E00E94F9
:101110004F0D809354029091540280915002981781
:1011200038F480915002682F80E090E00E94570DC3
:1011300060E070ED82E094E40E9401030E943904B3
:1011400035C080E090E00E944F0D80935402909152
:10115000540280915002981768F480915002682FD1
:1011600080E090E00E94570D6EEC71E081E00E94FB
:10117000020107C06AEE71E081E00E940201109254
:10118000500280915002682F80E090E00E94570D3D
:101190000DC00E94390460E070E0CB010E940103A1
:1011A00005C0000003C0000001C00000809158028B
:1011B000909159020F900F90DF91CF910895CF93A6
:1011C000DF9300D0CDB7DEB79A83898385E00E9494
:1011D000DE03909301028093000284E00E94DE030C
:1011E000909357028093560280915E0290915F0225
:1011F0008130910569F08130910518F0029779F0FE
:1012000015C081E090E090935F0280935E020EC073
:1012100082E090E090935F0280935E0207C082E0DC
:1012200090E090935F0280935E02000080915E02E6
:1012300090915F028130910509F45CC08130910585
:1012400008F45AC0029709F058C0809100029091AA
:1012500001028935924070F081E080934D028091C7
:101260001701803208F041C0809117018F5F809391
:1012700017013BC0809156029091570289359240E8
:1012800068F082E080934D0280911701813168F50A
:1012900080911701805F8093170127C08091000221
:1012A000909101028436910568F483E080934D02A9
:1012B000809117018230C8F080911701815080938E
:1012C000170113C080915602909157028436910500
:1012D00060F484E080934D0280911701813128F001
:1012E00080911701805180931701809117010E940E
:1012F0002F0103C0000001C0000080915E029091A8
:101300005F020F900F90DF91CF910895CF93DF93FD
:101310001F92CDB7DEB781E290E0FC01108282E23D
:1013200090E02FEFFC01208384E290E02FEFFC019E
:10133000208385E290E0FC01108287E290E02FEFAD
:10134000FC01208388E290E0FC0110828AE290E0B8
:101350002FEFFC0120838BE290E0FC0110821982C8
:101360008981282F30E0C901880F991F820F931FB0
:10137000880F991F880F991F8D5F9D4FFC01118267
:1013800010828981282F30E0C901880F991F820FB0
:10139000931F880F991F880F991F9C012B5F3D4F4A
:1013A0008CE291E0A0E0B0E0F90180839183A28318
:1013B000B3838981282F30E0C901880F991F820FDC
:1013C000931F880F991F880F991F875F9D4FFC01FE
:1013D00010821182128213828981282F30E0C90184
:1013E000880F991F820F931F880F991F880F991FCD
:1013F000835F9D4F22E634E0FC01318320838981A5
:101400008F5F89838981282F30E0C901880F991F58
:10141000820F931F880F991F880F991F8D5F9D4F13
:10142000FC01118210828981282F30E0C901880FC8
:10143000991F820F931F880F991F880F991F9C0176
:101440002B5F3D4F80E293E0A0E0B0E0F9018083A4
:101450009183A283B3838981282F30E0C901880F4B
:10146000991F820F931F880F991F880F991F9C0146
:10147000275F3D4F80E293E0A0E0B0E0F901808378
:101480009183A283B3838981282F30E0C901880F1B
:10149000991F820F931F880F991F880F991F835FD1
:1014A0009D4F23EC34E0FC013183208389818F5FE1
:1014B00089838981282F30E0C901880F991F820F05
:1014C000931F880F991F880F991F8D5F9D4FFC01F7
:1014D000118210828981282F30E0C901880F991F5D
:1014E000820F931F880F991F880F991F9C012B5FF4
:1014F0003D4F80E293E0A0E0B0E0F901808391836A
:10150000A283B3838981282F30E0C901880F991FF6
:10151000820F931F880F991F880F991F9C01275FC7
:101520003D4F80E293E0A0E0B0E0F9018083918339
:10153000A283B3838981282F30E0C901880F991FC6
:10154000820F931F880F991F880F991F835F9D4FEC
:1015500028E935E0FC013183208389818F5F89830D
:101560008981282F30E0C901880F991F820F931FAE
:10157000880F991F880F991F8D5F9D4FFC01118265
:1015800010828981282F30E0C901880F991F820FAE
:10159000931F880F991F880F991F9C012B5F3D4F48
:1015A00084EF91E0A0E0B0E0F90180839183A28311
:1015B000B3838981282F30E0C901880F991F820FDA
:1015C000931F880F991F880F991F875F9D4FFC01FC
:1015D00010821182128213828981282F30E0C90182
:1015E000880F991F820F931F880F991F880F991FCB
:1015F000835F9D4F2DE136E0FC013183208389819B
:101600008F5F89838981282F30E0C901880F991F56
:10161000820F931F880F991F880F991F8D5F9D4F11
:10162000FC01118210828981282F30E0C901880FC6
:10163000991F820F931F880F991F880F991F9C0174
:101640002B5F3D4F84EF91E0A0E0B0E0F901808393
:101650009183A283B3838981282F30E0C901880F49
:10166000991F820F931F880F991F880F991F875FFB
:101670009D4FFC0110821182128213828981282FD2
:1016800030E0C901880F991F820F931F880F991F9F
:10169000880F991F835F9D4F27EC36E0FC01318353
:1016A000208389818F5F89838981282F30E0C90158
:1016B000880F991F820F931F880F991F880F991FFA
:1016C0008D5F9D4FFC01118210828981282F30E0AF
:1016D000C901880F991F820F931F880F991F880FC8
:1016E000991F9C012B5F3D4F84E690E0A0E0B0E0A5
:1016F000F90180839183A283B3838981282F30E00D
:10170000C901880F991F820F931F880F991F880F97
:10171000991F875F9D4FFC011082118212821382F4
:101720008981282F30E0C901880F991F820F931FEC
:10173000880F991F880F991F835F9D4F2FED38E009
:10174000FC013183208364E670E080E090E00E9439
:1017500071020E942E020E94A1030E94C8030E94EF
:101760008600FFCFEE0FFF1F0024001C0BBE07906A
:10177000F691E02D09940E94680C08F481E0089528
:101780000E94D40B0C94A30C0E949C0C58F00E9455
:10179000950C40F029F45F3F29F00C948C0C51110A
:1017A0000C94D70C0C94920C0E94B40C68F39923FF
:1017B000B1F3552391F3951B550BBB27AA2762174D
:1017C0007307840738F09F5F5F4F220F331F441F5A
:1017D000AA1FA9F335D00E2E3AF0E0E832D091508E
:1017E0005040E695001CCAF72BD0FE2F29D0660F7B
:1017F000771F881FBB1F261737074807AB07B0E8BE
:1018000009F0BB0B802DBF01FF2793585F4F3AF0C3
:101810009E3F510578F00C948C0C0C94D70C5F3FD4
:10182000E4F3983ED4F3869577956795B795F79549
:101830009F5FC9F7880F911D9695879597F9089531
:10184000E1E0660F771F881FBB1F621773078407CD
:10185000BA0720F0621B730B840BBA0BEE1F88F7DC
:10186000E09508950E94390C6894B1110C94D70C3E
:1018700008950E94BC0C88F09F5798F0B92F9927C3
:10188000B751B0F0E1F0660F771F881F991F1AF06B
:10189000BA95C9F714C0B13091F00E94D60CB1E0EE
:1018A00008950C94D60C672F782F8827B85F39F0ED
:1018B000B93FCCF3869577956795B395D9F73EF404
:1018C00090958095709561957F4F8F4F9F4F0895AC
:1018D000990F0008550FAA0BE0E8FEEF1616170641
:1018E000E807F907C0F012161306E407F50798F0A9
:1018F000621B730B840B950B39F40A2661F0232BC2
:10190000242B252B21F408950A2609F4A140A6953D
:101910008FEF811D811D089597F99F6780E870E022
:1019200060E008959FEF80EC089500240A94161655
:10193000170618060906089500240A9412161306BD
:10194000140605060895092E0394000C11F488234B
:1019500052F0BB0F40F4BF2B11F460FF04C06F5F67
:101960007F4F8F4F9F4F089557FD9058440F551F3D
:1019700059F05F3F71F04795880F97FB991F61F011
:101980009F3F79F087950895121613061406551F88
:10199000F2CF4695F1DF08C0161617061806991FF4
:1019A000F1CF86957105610508940895E894BB27E9
:1019B00066277727CB0197F908950E94680C08F4F1
:1019C0008FEF08950E94F50C0C94A30C0E94950CC7
:1019D00038F00E949C0C20F0952311F00C948C0C94
:1019E0000C94920C11240C94D70C0E94B40C70F33C
:1019F000959FC1F3950F50E0551F629FF001729FB4
:101A0000BB27F00DB11D639FAA27F00DB11DAA1FC2
:101A1000649F6627B00DA11D661F829F2227B00D0F
:101A2000A11D621F739FB00DA11D621F839FA00D9A
:101A3000611D221F749F3327A00D611D231F849FEA
:101A4000600D211D822F762F6A2F11249F57504041
:101A50009AF0F1F088234AF0EE0FFF1FBB1F661FBC
:101A6000771F881F91505040A9F79E3F510580F085
:101A70000C948C0C0C94D70C5F3FE4F3983ED4F399
:101A8000869577956795B795F795E7959F5FC1F729
:101A9000FE2B880F911D9695879597F90895F999D2
:101AA000FECF92BD81BDF89A992780B50895262F63
:101AB000F999FECF1FBA92BD81BD20BD0FB6F89433
:0E1AC000FA9AF99A0FBE01960895F894FFCF96
:101ACE0001000000000000020000000010040000F1
:101ADE00000000000406072000020408100FF00F9B
:101AEE0000FF7BD49243A4D08243D7A37643000059
:101AFE005C430000C443A4D0A443B8FEB843A4D0B2
:101B0E00A4437BD49243090057656C636F6D6520C7
:101B1E00746F2044445221205354415254202A20A1
:101B2E00004765742072656164792E2E2E00536510
:101B3E00742E2E2E00474F21005468652068696769
:101B4E00682073636F72652069733A20002020202D
:101B5E002020202020202020477265656E00202046
:101B6E002020426C75650059656C6C6F7700596F5B
:101B7E007520776F6E21202B31202020202052657A
:101B8E006164793F20507265737320594200596F1A
:101B9E0075206C6F73652120202020202020536338
:101BAE006F726520736176656400596F75206C6F76
:041BBE00736521002A
:00000001FF
