:100000000C9446000C9465000C9465000C946500FB
:100010000C9465000C9465000C9465000C946500CC
:100020000C9465000C9465000C9465000C946500BC
:100030000C9465000C9490010C9465000C94650080
:100040000C9465000C9465000C9465000C9465009C
:100050000C9465000C9465000C9465000C9465008C
:100060000C9465000C9465000C9465000C9465007C
:100070000C9465000C9465000C9465000C9465006C
:100080000C9465000C9465000C94650011241FBE4F
:10009000CFEFD0E4DEBFCDBF11E0A0E0B1E0E4E1FE
:1000A000F2E100E00BBF02C007900D92A634B10749
:1000B000D9F721E0A6E4B1E001C01D92AD39B20745
:1000C000E1F70E949E050C9408090C9400000F9320
:1000D0001F93CF93DF931F92CDB7DEB71982A4C0D1
:1000E0008981282F30E0C901880F991F820F931F43
:1000F000880F991F880F991F865A9E4FFC012081F7
:100100003181428153818981682F70E0CB01880F52
:10011000991F860F971F880F991F880F991F8A5A5A
:100120009E4FFC0180819181A281B38128173907FC
:100130004A075B0708F449C08981082F10E08981CC
:10014000282F30E0C901880F991F820F931F880F55
:10015000991F880F991F825A9E4FFC01408151813F
:100160008981282F30E0C901880F991F820F931FC2
:10017000880F991F880F991F8C5A9E4FFC01808110
:100180009181FA0109959C01C801880F991F800F80
:10019000911F880F991F880F991F8C5A9E4FFC0141
:1001A000318320838981282F30E0C901880F991F6E
:1001B000820F931F880F991F880F991F865A9E4F91
:1001C000FC0110821182128213828981682F70E0F3
:1001D0008981282F30E0C901880F991F820F931F52
:1001E000880F991F880F991F865A9E4FFC018081A6
:1001F0009181A281B3819C01AD012C593F4F4F4F9A
:100200005F4FCB01880F991F860F971F880F991F8B
:10021000880F991F865A9E4FFC01208331834283A9
:10022000538389818F5F89838981853008F458CF12
:1002300000000F90DF91CF911F910F910895CF9300
:10024000DF93CDB7DEB781E890E02BE0FC0120839F
:1002500088E890E02DE730E0FC01318320838FE6D1
:1002600090E022E0FC01208384E890E0FC01118210
:1002700010828091000190910101A0910201B09142
:1002800003018093470190934801A0934901B093E3
:100290004A018FE590E02FE530E0F90120812068E8
:1002A000FC0120830000DF91CF910895CF93DF936D
:1002B000CDB7DEB781E890E0FC0110820000DF914D
:1002C000CF910895CF93DF9300D000D0CDB7DEB7A4
:1002D00069837A838B839C8389819A81AB81BC817A
:1002E0008093000190930101A0930201B093030158
:1002F0008091000190910101A0910201B091030150
:100300008093470190934801A0934901B0934A011B
:1003100000000F900F900F900F90DF91CF910895F4
:100320001F920F9200905F000F92112400905B00CB
:100330000F922F933F934F935F936F937F938F937E
:100340009F93AF93BF93EF93FF93CF93DF93CDB77B
:10035000DEB78091470190914801A0914901B09189
:100360004A010197A109B10980934701909348017F
:10037000A0934901B0934A018091470190914801AF
:10038000A0914901B0914A01892B8A2B8B2B91F4C2
:100390000E9467008091000190910101A0910201EB
:1003A000B09103018093470190934801A0934901C4
:1003B000B0934A010000DF91CF91FF91EF91BF917F
:1003C000AF919F918F917F916F915F914F913F91ED
:1003D0002F910F9000925B000F9000925F000F90A2
:1003E0001F9018950F931F93CF93DF9300D000D0E9
:1003F000CDB7DEB769837A838B839C8380914E016E
:1004000090914F01A0915001B09151019C01AD011B
:1004100069817A818B819C810E947407882309F409
:1004200077C020E030E0A90169817A818B819C81CD
:100430000E947407882351F481E990E021E930E0BB
:10044000F90120812870FC01208309C081E990E036
:1004500021E930E0F90120812360FC01208328E5B7
:1004600039E344E75FE369817A818B819C810E9453
:100470007407882344F488E990E02FEF3FEFFC01F4
:100480003183208334C020E034E244EF56E46981B4
:100490007A818B819C810E949608181634F488E931
:1004A00090E0FC011182108222C008E910E020E0F7
:1004B00030E040E053E469817A818B819C810E9425
:1004C0009B08DC01CB019C01AD0160E074E284EF8C
:1004D0009AE40E947907DC01CB01BC01CD010E94A6
:1004E000EB07DC01CB010197F8019183808384E95C
:1004F00090E0FC011182108289819A81AB81BC81DC
:1005000080934E0190934F01A0935001B0935101FD
:1005100000000F900F900F900F90DF91CF911F91DF
:100520000F910895CF93DF93CDB7DEB780E990E0C8
:1005300020E4FC01208381E990E02BE0FC01208392
:1005400060E070E0CB010E94F2010000DF91CF91EA
:100550000895CF93DF93CDB7DEB780E990E0FC013B
:10056000108281E990E0FC0110820000DF91CF91C0
:100570000895CF93DF9300D01F92CDB7DEB7898364
:100580007B836A8389818A3031F48A819B81BC01B3
:100590008DE00E94B90280EC90E0FC018081882F00
:1005A00090E080729927892BB1F386EC90E0298145
:1005B000FC01208380E090E00F900F900F90DF917E
:1005C000CF910895CF93DF93CDB7DEB710929A0104
:1005D00010929901109295011092940110929C0131
:1005E00010929B0184E090E090939301809392019C
:1005F0008BE290E02FEFFC01208310929801109283
:1006000097010000DF91CF910895CF93DF9300D041
:10061000CDB7DEB79A8389838091990190919A0131
:100620008130910569F08130910518F0029779F0D9
:100630001EC081E090E090939A018093990117C0C9
:1006400082E090E090939A018093990110C080918C
:100650004B0190914C01892B19F40E94E20206C0D3
:1006600082E090E090939A0180939901000080913C
:10067000990190919A018130910531F08130910575
:10068000B8F0029741F015C083E090E090934C01E0
:1006900080934B010EC088E290E020914B01309195
:1006A0004C012E5E3E4FF9012081FC01208301C0E8
:1006B00000008091990190919A010F900F90DF9125
:1006C000CF910895CF93DF9300D0CDB7DEB79A8353
:1006D000898380E290E0FC01808180958470809322
:1006E000910180919401909195018130910569F07B
:1006F0008130910518F00297F1F036C081E090E06A
:1007000090939501809394012FC08091910188234B
:1007100059F080915301882339F082E090E0909362
:1007200095018093940120C081E090E09093950121
:100730008093940119C080914D01282F30E0809161
:10074000440190914501821793073CF082E090E0CC
:10075000909395018093940106C081E090E090937E
:1007600095018093940100008091940190919501EE
:100770008130910531F081309105A0F1029759F057
:1007800034C01092520110924D0160E070E0CB0134
:100790000E94F2012AC081E08093520180914D01B4
:1007A000282F30E0809144019091450182179307F2
:1007B000DCF080914D01882F90E0880F991F880F01
:1007C000991F805E9E4FFC0180819181A281B3813F
:1007D000BC01CD010E94F20180914D018F5F809399
:1007E0004D0102C0000001C0000080919401909171
:1007F00095010F900F90DF91CF910895CF93DF93E4
:1008000000D0CDB7DEB79A83898380919B01909108
:100810009C018130910569F08130910518F00297B3
:10082000D1F032C081E090E090939C0180939B01D5
:100830002BC080919101882339F082E090E0909361
:100840009C0180939B0120C081E090E090939C01EB
:1008500080939B0119C080914D01282F30E0809139
:10086000440190914501821793073CF481E090E0A8
:1008700090939C0180939B0106C082E090E090934E
:100880009C0180939B01000080919B0190919C01B1
:1008900081309105E9F081309105E0F0029709F08F
:1008A0001AC080914D01882369F08BE290E020917D
:1008B0004D01222F30E02A5E3E4FF9012081FC01DC
:1008C000208309C08BE290E02FEFFC01208303C05E
:1008D000000001C0000080919B0190919C010F904D
:1008E0000F90DF91CF910895CF93DF9300D0CDB7D4
:1008F000DEB79A838983809192019091930182302F
:10090000910591F18330910528F4009749F0019702
:1009100071F04FC08330910571F1049799F149C08E
:1009200081E090E0909393018093920142C0809186
:100930009101882391F09091530181E089278823C8
:1009400061F082E090E090939301809392018BE2BA
:1009500090E02FEFFC0120832CC081E090E0909389
:1009600093018093920125C083E090E090939301DE
:10097000809392011EC084E090E090939301809355
:10098000920117C080919101882391F080915301C9
:10099000882371F09091520181E08927882341F0EA
:1009A00081E090E090939301809392011092530123
:1009B000000080919201909193018230910599F00D
:1009C0008330910528F40097F1F0019739F01EC0AB
:1009D0008330910579F00497C1F018C08BE290E064
:1009E000FC01108213C060E070E08CED93E40E9483
:1009F000F2010CC060E070E0CB010E94F20181E0E6
:100A00008093530103C0000001C000008091920157
:100A1000909193010F900F90DF91CF910895CF9314
:100A2000DF9300D0CDB7DEB79A83898380E290E070
:100A3000FC018081882F90E08170992721E0892B2B
:100A400009F020E0822F8093960180E290E0FC0183
:100A50008081809582708093900180919701909120
:100A600098018130910569F08130910518F0029765
:100A700079F015C081E090E0909398018093970100
:100A80000EC082E090E0909398018093970107C098
:100A900082E090E09093980180939701000080910C
:100AA00097019091980181309105D1F181309105A4
:100AB000C8F1029709F039C080914D0181708823F7
:100AC000A9F480919601882379F180914B0190914E
:100AD0004C011816190644F580914B0190914C0178
:100AE000019790934C0180934B011EC080914D0162
:100AF00081708823C9F0809190018823A9F08091AA
:100B00004B0190914C011816190674F480914B0119
:100B100090914C01019790934C0180934B0104C03C
:100B2000000003C0000001C0000080919701909177
:100B300098010F900F90DF91CF910895CF93DF939D
:100B40001F92CDB7DEB781E290E0FC01108282E215
:100B500090E02FEFFC01208384E290E02FEFFC0176
:100B6000208385E290E0FC01108287E290E02FEF85
:100B7000FC01208388E290E0FC0110828AE290E090
:100B80002FEFFC0120838BE290E0FC0110821982A0
:100B90008981282F30E0C901880F991F820F931F88
:100BA000880F991F880F991F8C5A9E4FFC01118244
:100BB00010828981282F30E0C901880F991F820F88
:100BC000931F880F991F880F991F9C012A5A3E4F27
:100BD0008CE291E0A0E0B0E0F90180839183A283F0
:100BE000B3838981282F30E0C901880F991F820FB4
:100BF000931F880F991F880F991F865A9E4FFC01DB
:100C000010821182128213828981282F30E0C9015B
:100C1000880F991F820F931F880F991F880F991FA4
:100C2000825A9E4F25E033E0FC0131832083898185
:100C30008F5F89838981282F30E0C901880F991F30
:100C4000820F931F880F991F880F991F8C5A9E4FF0
:100C5000FC01118210828981282F30E0C901880FA0
:100C6000991F820F931F880F991F880F991F9C014E
:100C70002A5A3E4F8CEB92E0A0E0B0E0F90180836D
:100C80009183A283B3838981282F30E0C901880F23
:100C9000991F820F931F880F991F880F991F9C011E
:100CA000265A3E4F8CEB92E0A0E0B0E0F901808341
:100CB0009183A283B3838981282F30E0C901880FF3
:100CC000991F820F931F880F991F880F991F825AAF
:100CD0009E4F22E633E0FC013183208389818F5FC0
:100CE00089838981282F30E0C901880F991F820FDD
:100CF000931F880F991F880F991F8C5A9E4FFC01D4
:100D0000118210828981282F30E0C901880F991F34
:100D1000820F931F880F991F880F991F9C012A5AD1
:100D20003E4F8CEB92E0A0E0B0E0F901808391832C
:100D3000A283B3838981282F30E0C901880F991FCE
:100D4000820F931F880F991F880F991F9C01265AA5
:100D50003E4F8CEB92E0A0E0B0E0F90180839183FC
:100D6000A283B3838981282F30E0C901880F991F9E
:100D7000820F931F880F991F880F991F825A9E4FC9
:100D80002EEF33E0FC013183208389818F5F8983DB
:100D90008981282F30E0C901880F991F820F931F86
:100DA000880F991F880F991F8C5A9E4FFC01118242
:100DB00010828981282F30E0C901880F991F820F86
:100DC000931F880F991F880F991F9C012A5A3E4F25
:100DD0008CE291E0A0E0B0E0F90180839183A283EE
:100DE000B3838981282F30E0C901880F991F820FB2
:100DF000931F880F991F880F991F865A9E4FFC01D9
:100E000010821182128213828981282F30E0C90159
:100E1000880F991F820F931F880F991F880F991FA2
:100E2000825A9E4F24E734E0FC013183208389817C
:100E30008F5F89838981282F30E0C901880F991F2E
:100E4000820F931F880F991F880F991F8C5A9E4FEE
:100E5000FC01118210828981282F30E0C901880F9E
:100E6000991F820F931F880F991F880F991F9C014C
:100E70002A5A3E4F8CE291E0A0E0B0E0F901808375
:100E80009183A283B3838981282F30E0C901880F21
:100E9000991F820F931F880F991F880F991F865AD9
:100EA0009E4FFC0110821182128213828981282FA9
:100EB00030E0C901880F991F820F931F880F991F77
:100EC000880F991F825A9E4F2FE035E0FC01318335
:100ED000208364E670E080E090E00E9462010E945E
:100EE0001F010E949202FFCF0E94210808F481E0B6
:100EF00008950E948D070C945C080E94550858F0D4
:100F00000E944E0840F029F45F3F29F00C944508F8
:100F100051110C9490080C944B080E946D0868F3D2
:100F20009923B1F3552391F3951B550BBB27AA27A2
:100F300062177307840738F09F5F5F4F220F331FDC
:100F4000441FAA1FA9F335D00E2E3AF0E0E832D0A4
:100F500091505040E695001CCAF72BD0FE2F29D0A7
:100F6000660F771F881FBB1F261737074807AB0779
:100F7000B0E809F0BB0B802DBF01FF2793585F4FEE
:100F80003AF09E3F510578F00C9445080C94900877
:100F90005F3FE4F3983ED4F3869577956795B795D0
:100FA000F7959F5FC9F7880F911D9695879597F9DB
:100FB0000895E1E0660F771F881FBB1F6217730754
:100FC0008407BA0720F0621B730B840BBA0BEE1F69
:100FD00088F7E09508950E94F2076894B1110C9487
:100FE000900808950E94750888F09F5798F0B92FCF
:100FF0009927B751B0F0E1F0660F771F881F991F4E
:101000001AF0BA95C9F714C0B13091F00E948F0858
:10101000B1E008950C948F08672F782F8827B85F68
:1010200039F0B93FCCF3869577956795B395D9F7A5
:101030003EF490958095709561957F4F8F4F9F4FAF
:101040000895990F0008550FAA0BE0E8FEEF161659
:101050001706E807F907C0F012161306E407F507AC
:1010600098F0621B730B840B950B39F40A2661F020
:10107000232B242B252B21F408950A2609F4A140C3
:10108000A6958FEF811D811D089597F99F6780E8D0
:1010900070E060E008959FEF80EC089500240A94CA
:1010A0001616170618060906089500240A94121643
:1010B0001306140605060895092E0394000C11F476
:1010C000882352F0BB0F40F4BF2B11F460FF04C023
:1010D0006F5F7F4F8F4F9F4F089557FD9058440F7C
:1010E000551F59F05F3F71F04795880F97FB991F87
:1010F00061F09F3F79F08795089512161306140644
:10110000551FF2CF4695F1DF08C0161617061806D0
:10111000991FF1CF86957105610508940895E894AB
:10112000BB2766277727CB0197F908950E942108EE
:1011300008F48FEF08950E94AE080C945C080E949A
:101140004E0838F00E94550820F0952311F00C94B9
:1011500045080C944B0811240C9490080E946D08CB
:1011600070F3959FC1F3950F50E0551F629FF001FA
:10117000729FBB27F00DB11D639FAA27F00DB11D13
:10118000AA1F649F6627B00DA11D661F829F22279C
:10119000B00DA11D621F739FB00DA11D621F839F23
:1011A000A00D611D221F749F3327A00D611D231FF9
:1011B000849F600D211D822F762F6A2F11249F5747
:1011C00050409AF0F1F088234AF0EE0FFF1FBB1F4A
:1011D000661F771F881F91505040A9F79E3F510509
:1011E00080F00C9445080C9490085F3FE4F3983E1F
:1011F000D4F3869577956795B795F795E7959F5FB3
:10120000C1F7FE2B880F911D9695879597F9089544
:04121000F894FFCF80
:10121400010000000000000200000000B90200000C
:1012240000000001020700804020100FF00F00FFB3
:101234007BD49243A4D08243D7A3764300005C437B
:101244000000C443A4D0A443B8FEB843A4D0A4432C
:061254007BD49243090067
:00000001FF
