:100000000C9458000C9477000C9477000C947700B3
:100010000C9477000C9477000C9477000C94770084
:100020000C9477000C9477000C9477000C94770074
:100030000C9477000C949D020C9477000C9477003C
:100040000C9477000C9477000C9477000C94770054
:100050000C9477000C9477000C9477000C94770044
:100060000C9477000C9477000C9477000C94770034
:100070000C9477000C9477000C9477000C94770024
:100080000C9477000C9477000C947700F906000725
:1000900033073A074107480753077D077607870864
:1000A000870898079E07A407B007BC074E087F087B
:1000B00011241FBECFEFD0E4DEBFCDBF11E0A0E022
:1000C000B1E0E6E3FAE100E00BBF02C007900D9259
:1000D000A83AB107D9F722E0A8EAB1E001C01D9221
:1000E000A631B207E1F70E943A090C94190D0C945D
:1000F0000000CF93DF93CDB7DEB781E00E94A00070
:100100000000DF91CF910895CF93DF93CDB7DEB795
:1001100084E690E00E94440188E30E94A00086E00B
:100120000E94A0008FE00E94A00081E00E94A00039
:100130008AE090E00E9444010000DF91CF91089591
:10014000CF93DF931F92CDB7DEB789838BE290E028
:100150002BE230E0F90120812F7BFC01208388E233
:1001600090E02981FC0120838BE290E02BE230E0DB
:10017000F90120812068FC01208300008BE290E0DF
:100180002BE230E0F90120812F77FC01208382E00F
:1001900090E00E94440100000F90DF91CF910895FC
:1001A000CF93DF931F92CDB7DEB789838BE290E0C8
:1001B0002BE230E0F90120812064FC01208388E2F9
:1001C00090E02981FC0120838BE290E02BE230E07B
:1001D000F90120812068FC01208300008BE290E07F
:1001E0002BE230E0F90120812F77FC01208381E0B0
:1001F00090E00E94440100000F90DF91CF9108959C
:10020000CF93DF9300D000D0CDB7DEB78A837C8355
:100210006B830E9479008A81898311C0898191E072
:10022000980F99830E942D018B819C819C012F5FE7
:100230003F4F3C832B83FC0180810E94D0008B8147
:100240009C81FC018081882349F700000F900F906A
:100250000F900F90DF91CF910895CF93DF931F926E
:10026000CDB7DEB789838981813128F489818158AE
:100270000E94A00004C0898181550E94A000000056
:100280000F90DF91CF910895CF93DF9300D000D0EE
:1002900000D0CDB7DEB79E838D831A82198213C03A
:1002A0001C821B8206C000008B819C8101969C836E
:1002B0008B838B819C8187309340ACF389819A81B9
:1002C00001969A83898329813A818D819E8128179D
:1002D000390734F3000026960FB6F894DEBF0FBE40
:1002E000CDBFDF91CF9108950F931F93CF93DF93ED
:1002F0001F92CDB7DEB71982A4C08981282F30E0C4
:10030000C901880F991F820F931F880F991F880FAB
:10031000991F83549E4FFC0120813181428153817A
:100320008981682F70E0CB01880F991F860F971F76
:10033000880F991F880F991F87549E4FFC01808159
:100340009181A281B381281739074A075B0708F416
:1003500049C08981082F10E08981282F30E0C90128
:10036000880F991F820F931F880F991F880F991F5D
:100370008F539E4FFC01408151818981282F30E0AD
:10038000C901880F991F820F931F880F991F880F2B
:10039000991F89549E4FFC0180819181FA01099532
:1003A0009C01C801880F991F800F911F880F991F0A
:1003B000880F991F89549E4FFC01318320838981C6
:1003C000282F30E0C901880F991F820F931F880FD3
:1003D000991F880F991F83549E4FFC011082118230
:1003E000128213828981682F70E08981282F30E082
:1003F000C901880F991F820F931F880F991F880FBB
:10040000991F83549E4FFC0180819181A281B38109
:100410009C01AD012C593F4F4F4F5F4FCB01880FCF
:10042000991F860F971F880F991F880F991F835454
:100430009E4FFC01208331834283538389818F5FE8
:1004400089838981863008F458CF00000F90DF91AE
:10045000CF911F910F910895CF93DF93CDB7DEB762
:1004600081E890E02BE0FC01208388E890E02DE714
:1004700030E0FC01318320838FE690E022E0FC0134
:10048000208384E890E0FC011182108280910001B9
:1004900090910101A0910201B09103018093A90103
:1004A0009093AA01A093AB01B093AC018FE590E0CB
:1004B0002FE530E0F90120812068FC012083000055
:1004C000DF91CF910895CF93DF93CDB7DEB781E869
:1004D00090E0FC0110820000DF91CF910895CF934E
:1004E000DF9300D000D0CDB7DEB769837A838B83EA
:1004F0009C8389819A81AB81BC8180930001909318
:100500000101A0930201B093030180910001909139
:100510000101A0910201B09103018093A901909380
:10052000AA01A093AB01B093AC0100000F900F9013
:100530000F900F90DF91CF9108951F920F9200902E
:100540005F000F92112400905B000F922F933F9356
:100550004F935F936F937F938F939F93AF93BF93CB
:10056000EF93FF93CF93DF93CDB7DEB78091A901CF
:100570009091AA01A091AB01B091AC010197A109A2
:10058000B1098093A9019093AA01A093AB01B09304
:10059000AC018091A9019091AA01A091AB01B09109
:1005A000AC01892B8A2B8B2B91F40E9474018091D2
:1005B000000190910101A0910201B091030180938B
:1005C000A9019093AA01A093AB01B093AC010000E4
:1005D000DF91CF91FF91EF91BF91AF919F918F915B
:1005E0007F916F915F914F913F912F910F9000926A
:1005F0005B000F9000925F000F901F9018950F9373
:100600001F93CF93DF9300D000D0CDB7DEB76983BF
:100610007A838B839C838091B0019091B101A091EA
:10062000B201B091B3019C01AD0169817A818B81E6
:100630009C810E946F0B882309F477C020E030E092
:10064000A90169817A818B819C810E946F0B88232B
:1006500051F481E990E021E930E0F901208128702E
:10066000FC01208309C081E990E021E930E0F90133
:1006700020812360FC01208328E539E344E75FE320
:1006800069817A818B819C810E946F0B882344F45D
:1006900088E990E02FEF3FEFFC013183208334C0E5
:1006A00020E034E244EF56E469817A818B819C81B9
:1006B0000E94910C181634F488E990E0FC01118234
:1006C000108222C008E910E020E030E040E053E46E
:1006D00069817A818B819C810E94960CDC01CB011F
:1006E0009C01AD0160E074E284EF9AE40E94740B17
:1006F000DC01CB01BC01CD010E94E60BDC01CB018A
:100700000197F8019183808384E990E0FC011182D4
:10071000108289819A81AB81BC818093B0019093D2
:10072000B101A093B201B093B30100000F900F90FC
:100730000F900F90DF91CF911F910F910895CF935C
:10074000DF93CDB7DEB780E990E020E4FC012083A1
:1007500081E990E02BE0FC01208360E070E0CB01B8
:100760000E94FF020000DF91CF910895CF93DF93A5
:10077000CDB7DEB780E990E0FC01108281E990E01E
:10078000FC0110820000DF91CF910895CF93DF9399
:10079000CDB7DEB78CE790E02CE730E0F90120819F
:1007A0002064FC0120838AE790E027E8FC01208395
:1007B0000000DF91CF910895CF93DF931F92CDB7C3
:1007C000DEB789838981877089838CE790E02CE785
:1007D00030E0F9012081322F387F2981232BFC0161
:1007E00020838AE790E02AE730E0F9012081206445
:1007F000FC01208300008AE790E0FC018081882FC3
:1008000090E080749927892BB1F788E790E0FC018C
:10081000808191810F90DF91CF910895CF93DF93E5
:1008200000D01F92CDB7DEB789837B836A8389812D
:100830008A3031F48A819B81BC018DE00E940E04D4
:1008400080EC90E0FC018081882F90E080729927F5
:10085000892BB1F386EC90E02981FC01208380E0B4
:1008600090E00F900F900F90DF91CF910895CF936C
:10087000DF93CDB7DEB783E090E0909311028093D1
:10088000100283E090E0909307028093060283E0D9
:1008900090E0909315028093140288E090E090938A
:1008A0000D0280930C028BE290E02FE3FC01208389
:1008B0000000DF91CF910895CF93DF9300D0CDB7A3
:1008C000DEB79A8389838091100290911102813062
:1008D000910581F08130910530F08230910589F0E9
:1008E0000397B1F019C081E090E0909311028093DA
:1008F000100213C082E090E09093110280931002E6
:100900000CC082E090E0909311028093100205C029
:10091000109211021092100200008091100290912A
:1009200011028130910549F081309105D0F082307B
:10093000910551F00397B9F017C084E090E09093CF
:10094000AE018093AD0110C085E290E02091AD0131
:100950003091AE012E5E3E4FF9012081FC012083D3
:1009600003C0000001C000008091100290911102AC
:100970000F900F90DF91CF910895CF93DF9300D028
:10098000CDB7DEB79A83898380E290E0FC01808155
:1009900080958470809300028091060290910702F6
:1009A00082309105E9F08330910528F4009751F0E9
:1009B000019779F04BC08330910551F1049709F408
:1009C00040C044C082E090E090930702809306020A
:1009D0003DC082E090E0909307028093060236C00B
:1009E00080910E0290910F02019759F48091B60107
:1009F000882339F083E090E0909307028093060209
:100A000025C082E090E090930702809306021EC00A
:100A10008091AF01282F30E08091460190914701ED
:100A2000821793073CF083E090E090930702809355
:100A300006020CC082E090E09093070280930602C9
:100A400005C0109207021092060200008091060273
:100A50009091070282309105A1F08330910530F426
:100A6000009709F453C0019741F053C083309105BA
:100A700081F0049709F443C04CC010920F02109209
:100A80000E021092AF0160E070E0CB010E94FF0205
:100A900040C08091AF01282F30E0809146019091B5
:100AA0004701019682179307C4F08091AF01882F08
:100AB00090E0880F991F880F991F8E5D9E4FFC0153
:100AC00080819181A281B381BC01CD010E94FF028E
:100AD0008091AF018F5F8093AF018091AF01282F8C
:100AE00030E080914601909147012817390784F042
:100AF00082E090E090930F0280930E0209C064EAB6
:100B000070ED82E893E40E94FF0203C0000001C080
:100B1000000080910602909107020F900F90DF91E4
:100B2000CF910895CF93DF9300D0CDB7DEB79A83EE
:100B3000898380911402909115028130910581F092
:100B40008130910530F082309105F1F00397A9F1E1
:100B500038C081E090E0909315028093140232C077
:100B600080910E0290910F02019739F482E090E09B
:100B7000909315028093140225C081E090E0909339
:100B80001502809314021EC08091AF01282F30E01F
:100B90008091460190914701821793073CF481E0D0
:100BA00090E090931502809314020CC082E090E0D4
:100BB000909315028093140205C0109215021092B2
:100BC0001402000080911402909115028130910569
:100BD00001F181309105F8F08230910519F0039709
:100BE000E1F01CC08091AF01882369F08BE290E0B6
:100BF0002091AF01222F30E0285E3E4FF901208185
:100C0000FC0120830BC08BE290E02FE3FC012083EA
:100C100005C0000003C0000001C000008091140264
:100C2000909115020F900F90DF91CF910895CF937F
:100C3000DF9300D0CDB7DEB79A838983809102021B
:100C4000909103028230910591F18330910528F44F
:100C5000009749F0019771F04FC08330910571F111
:100C6000049799F149C081E090E09093030280934A
:100C7000020242C080910002882391F09091B60157
:100C800081E08927882361F082E090E0909303025D
:100C9000809302028BE290E02FE3FC0120832CC0C2
:100CA00081E090E0909303028093020225C083E0EC
:100CB00090E090930302809302021EC084E090E0D3
:100CC000909303028093020217C080910002882350
:100CD00091F08091B601882371F080910E0290917D
:100CE0000F02892B41F481E090E0909303028093FE
:100CF00002021092B601000080910202909103025C
:100D000082309105C9F08330910528F4009749F1AC
:100D1000019739F029C083309105A9F0049719F1A2
:100D200023C080E090E00E94030D809308028BE2D4
:100D300090E0FC01108218C060E070E08CED93E45C
:100D40000E94FF0211C060E070E0CB010E94FF0230
:100D500068E471E081E00E94000181E08093B601C7
:100D600003C0000001C000008091020290910302C4
:100D70000F900F90DF91CF910895CF93DF9300D024
:100D8000CDB7DEB79A83898380E290E0FC01808151
:100D9000882F90E08170992721E0892B09F020E0CD
:100DA000822F8093090280E290E0FC01808180958F
:100DB00082708093FF0180E290E0FC018081809549
:100DC00088708093050280910C0290910D02CC01F5
:100DD000A0E0B0E040E050E028E030E0841B950B5C
:100DE0002817390708F487C08A5B9F4FFC010C94D1
:100DF000660B81E090E090930D0280930C0282C01C
:100E000080911701882F90E0AC01425151098091E7
:100E10001701882F90E09C0126513109429FC001A3
:100E2000439F900D529F900D112499235CF4809163
:100E30000502882339F082E090E090930D028093C0
:100E40000C025DC080911701883109F058C0809173
:100E50000502882309F453C085E090E090930D02C9
:100E600080930C024CC083E090E090930D0280933D
:100E70000C0248C084E090E090930D0280930C0235
:100E800041C086E090E090930D0280930C023AC03E
:100E9000809105028823A9F181E090E090930D02F2
:100EA00080930C022EC08091AD019091AE01892BF0
:100EB00019F40E94370426C080910E0290910F020F
:100EC000029769F48091AD019091AE01892B39F0C0
:100ED00087E090E090930D0280930C0213C086E0AF
:100EE00090E090930D0280930C020CC010920D02C2
:100EF00010920C0207C0000005C0000003C00000F3
:100F000001C0000080910C0290910D02CC01A0E084
:100F1000B0E040E050E028E030E0841B950B28175B
:100F2000390708F4F2C0815B9F4FFC010C94660BFB
:100F300061E671E081E00E940001ECC06EE671E0C4
:100F400081E00E940001E6C065E771E081E00E9457
:100F5000000181E090E090930F0280930E02DAC0CE
:100F600080910802882F90E0C09687589E4FBC0160
:100F700081E00E940001CEC08091AF018170882382
:100F800051F58091AF01893031F180910E0290913D
:100F90000F02019701F566E871E081E00E9400010F
:100FA00080910902882329F480910502882309F49D
:100FB00071C08091AD019091AE01181619060CF028
:100FC00069C08091AD019091AE0101979093AE01FF
:100FD0008093AD015FC08091AF01853071F1809148
:100FE000AF01813051F18091AF018170882329F1E7
:100FF00080910E0290910F020197F9F467E971E078
:1010000081E00E9400018091FF01882329F48091F2
:101010000502882309F440C08091AD019091AE0192
:1010200018161906CCF58091AD019091AE0101978B
:101030009093AE018093AD012FC08091AF018530B8
:1010400049F08091AF01813029F08091AF01893062
:1010500009F05FC060EA71E081E00E9400018091C8
:101060000902882329F48091FF01882309F451C0E3
:101070008091AD019091AE01181619060CF049C08F
:101080008091AD019091AE0101979093AE01809354
:10109000AD013FC000003DC000003BC08091040294
:1010A0008F5F8093040280910402813041F480912B
:1010B0000402682F80E090E00E940B0D17C0809121
:1010C0000402823098F080E090E00E94030D80934B
:1010D00008029091080280910402981738F48091D8
:1010E0000402682F80E090E00E940B0D60E070ED3C
:1010F00082E094E40E94FF020E9437040BC060E08B
:1011000070E0CB010E94FF0205C0000003C0000098
:1011100001C0000080910C0290910D020F900F9081
:10112000DF91CF910895CF93DF9300D0CDB7DEB795
:101130009A83898385E00E94DC039093B5018093B4
:10114000B40184E00E94DC0390930B0280930A02B6
:1011500080911202909113028130910569F08130E3
:10116000910518F0029779F015C081E090E0909316
:101170001302809312020EC082E090E0909313025B
:101180008093120207C082E090E090931302809354
:101190001202000080911202909113028130910599
:1011A00009F45CC08130910508F45AC0029709F037
:1011B00058C08091B4019091B5018935924070F08A
:1011C00081E08093010280911701803208F041C0D4
:1011D000809117018F5F809317013BC080910A02B5
:1011E00090910B028935924068F082E08093010271
:1011F00080911701813168F580911701805F80939C
:10120000170127C08091B4019091B50184369105F2
:1012100068F483E080930102809117018230C8F066
:101220008091170181508093170113C080910A02A9
:1012300090910B028436910560F484E08093010262
:1012400080911701813128F080911701805180939E
:101250001701809117010E942D0103C0000001C0F9
:10126000000080911202909113020F900F90DF9175
:10127000CF910895CF93DF931F92CDB7DEB781E270
:1012800090E0FC01108282E290E02FEFFC012083CD
:1012900084E290E02FEFFC01208385E290E0FC01E6
:1012A000108287E290E02FEFFC01208388E290E03B
:1012B000FC0110828AE290E02FEFFC0120838BE298
:1012C00090E0FC01108219828981282F30E0C90149
:1012D000880F991F820F931F880F991F880F991FDE
:1012E00089549E4FFC01118210828981282F30E0A1
:1012F000C901880F991F820F931F880F991F880FAC
:10130000991F9C0127543E4F8CE291E0A0E0B0E091
:10131000F90180839183A283B3838981282F30E0F0
:10132000C901880F991F820F931F880F991F880F7B
:10133000991F83549E4FFC011082118212821382E6
:101340008981282F30E0C901880F991F820F931FD0
:10135000880F991F880F991F8F539E4F2CE534E0FB
:10136000FC013183208389818F5F89838981282FC4
:1013700030E0C901880F991F820F931F880F991FB2
:10138000880F991F89549E4FFC0111821082898118
:10139000282F30E0C901880F991F820F931F880FF3
:1013A000991F880F991F9C0127543E4F80E293E0BC
:1013B000A0E0B0E0F90180839183A283B3838981A7
:1013C000282F30E0C901880F991F820F931F880FC3
:1013D000991F880F991F9C0123543E4F80E293E090
:1013E000A0E0B0E0F90180839183A283B383898177
:1013F000282F30E0C901880F991F820F931F880F93
:10140000991F880F991F8F539E4F2DEB34E0FC01DD
:101410003183208389818F5F89838981282F30E000
:10142000C901880F991F820F931F880F991F880F7A
:10143000991F89549E4FFC01118210828981282FA7
:1014400030E0C901880F991F820F931F880F991FE1
:10145000880F991F9C0127543E4F80E293E0A0E043
:10146000B0E0F90180839183A283B3838981282F1F
:1014700030E0C901880F991F820F931F880F991FB1
:10148000880F991F9C0123543E4F80E293E0A0E017
:10149000B0E0F90180839183A283B3838981282FEF
:1014A00030E0C901880F991F820F931F880F991F81
:1014B000880F991F8F539E4F22E935E0FC0131833D
:1014C000208389818F5F89838981282F30E0C9013A
:1014D000880F991F820F931F880F991F880F991FDC
:1014E00089549E4FFC01118210828981282F30E09F
:1014F000C901880F991F820F931F880F991F880FAA
:10150000991F9C0127543E4F84EF91E0A0E0B0E08A
:10151000F90180839183A283B3838981282F30E0EE
:10152000C901880F991F820F931F880F991F880F79
:10153000991F83549E4FFC011082118212821382E4
:101540008981282F30E0C901880F991F820F931FCE
:10155000880F991F880F991F8F539E4F27E136E000
:10156000FC013183208389818F5F89838981282FC2
:1015700030E0C901880F991F820F931F880F991FB0
:10158000880F991F89549E4FFC0111821082898116
:10159000282F30E0C901880F991F820F931F880FF1
:1015A000991F880F991F9C0127543E4F84EF91E0AB
:1015B000A0E0B0E0F90180839183A283B3838981A5
:1015C000282F30E0C901880F991F820F931F880FC1
:1015D000991F880F991F83549E4FFC01108211821E
:1015E000128213828981282F30E0C901880F991F48
:1015F000820F931F880F991F880F991F8F539E4F3B
:101600002DEB36E0FC013183208389818F5F898354
:101610008981282F30E0C901880F991F820F931FFD
:10162000880F991F880F991F89549E4FFC011182C2
:1016300010828981282F30E0C901880F991F820FFD
:10164000931F880F991F880F991F9C0127543E4FA5
:1016500084E690E0A0E0B0E0F90180839183A2836A
:10166000B3838981282F30E0C901880F991F820F29
:10167000931F880F991F880F991F83549E4FFC0159
:1016800010821182128213828981282F30E0C901D1
:10169000880F991F820F931F880F991F880F991F1A
:1016A0008F539E4F23E938E0FC013183208364E6A9
:1016B00070E080E090E00E946F020E942C020E9485
:1016C0009F030E94C6030E948400FFCFEE0FFF1FFE
:1016D0000024001C0BBE0790F691E02D09940E9497
:1016E0001C0C08F481E008950E94880B0C94570CA0
:1016F0000E94500C58F00E94490C40F029F45F3FC2
:1017000029F00C94400C51110C948B0C0C94460C49
:101710000E94680C68F39923B1F3552391F3951B4C
:10172000550BBB27AA2762177307840738F09F5F02
:101730005F4F220F331F441FAA1FA9F335D00E2E6F
:101740003AF0E0E832D091505040E695001CCAF7DC
:101750002BD0FE2F29D0660F771F881FBB1F26179F
:1017600037074807AB07B0E809F0BB0B802DBF0176
:10177000FF2793585F4F3AF09E3F510578F00C9445
:10178000400C0C948B0C5F3FE4F3983ED4F38695A9
:1017900077956795B795F7959F5FC9F7880F911D66
:1017A0009695879597F90895E1E0660F771F881F52
:1017B000BB1F621773078407BA0720F0621B730B05
:1017C000840BBA0BEE1F88F7E09508950E94ED0B8D
:1017D0006894B1110C948B0C08950E94700C88F0E1
:1017E0009F5798F0B92F9927B751B0F0E1F0660FE5
:1017F000771F881F991F1AF0BA95C9F714C0B13026
:1018000091F00E948A0CB1E008950C948A0C672F25
:10181000782F8827B85F39F0B93FCCF38695779554
:101820006795B395D9F73EF490958095709561953D
:101830007F4F8F4F9F4F0895990F0008550FAA0BA8
:10184000E0E8FEEF16161706E807F907C0F01216D3
:101850001306E407F50798F0621B730B840B950BD6
:1018600039F40A2661F0232B242B252B21F408952B
:101870000A2609F4A140A6958FEF811D811D0895C8
:1018800097F99F6780E870E060E008959FEF80EC33
:10189000089500240A9416161706180609060895D6
:1018A00000240A9412161306140605060895092E3C
:1018B0000394000C11F4882352F0BB0F40F4BF2BAB
:1018C00011F460FF04C06F5F7F4F8F4F9F4F0895EB
:1018D00057FD9058440F551F59F05F3F71F04795E1
:1018E000880F97FB991F61F09F3F79F087950895C6
:1018F000121613061406551FF2CF4695F1DF08C0E5
:10190000161617061806991FF1CF86957105610501
:1019100008940895E894BB2766277727CB0197F9A9
:1019200008950E941C0C08F48FEF08950E94A90CE2
:101930000C94570C0E94490C38F00E94500C20F077
:10194000952311F00C94400C0C94460C11240C942B
:101950008B0C0E94680C70F3959FC1F3950F50E0BB
:10196000551F629FF001729FBB27F00DB11D639F51
:10197000AA27F00DB11DAA1F649F6627B00DA11DF7
:10198000661F829F2227B00DA11D621F739FB00D9D
:10199000A11D621F839FA00D611D221F749F33270D
:1019A000A00D611D231F849F600D211D822F762FA6
:1019B0006A2F11249F5750409AF0F1F088234AF083
:1019C000EE0FFF1FBB1F661F771F881F91505040EF
:1019D000A9F79E3F510580F00C94400C0C948B0CA1
:1019E0005F3FE4F3983ED4F3869577956795B79576
:1019F000F795E7959F5FC1F7FE2B880F911D969590
:101A0000879597F90895F999FECF92BD81BDF89A0F
:101A1000992780B50895262FF999FECF1FBA92BD58
:101A200081BD20BD0FB6F894FA9AF99A0FBE0196BF
:061A30000895F894FFCFB9
:101A36000100000000000002000000000E0400008B
:101A4600000000000406072000804020100FF00F61
:101A560000FF7BD49243A4D08243D7A376430000F1
:101A66005C430000C443A4D0A443B8FEB843A4D04A
:101A7600A4437BD49243090057656C636F6D652060
:101A8600746F20444452210A205354415254202A50
:101A9600004765742072656164792E2E2E005365A9
:101AA600742E2E2E00474F21004869676820736305
:101AB6006F72653A20002020202020202020202040
:101AC60020477265656E0020202020426C756500F7
:081AD60059656C6C6F7700008C
:00000001FF
