:100000000C9446000C9465000C9465000C946500FB
:100010000C9465000C9465000C9465000C946500CC
:100020000C9465000C9465000C9465000C946500BC
:100030000C9465000C94E3000C9465000C9465002E
:100040000C9465000C9465000C9465000C9465009C
:100050000C9465000C9465000C9465000C9465008C
:100060000C9465000C9465000C9465000C9465007C
:100070000C9465000C9465000C9465000C9465006C
:100080000C9465000C9465000C94650011241FBE4F
:10009000CFEFD0E4DEBFCDBF11E0A0E0B1E0E2EBF6
:1000A000FBE000E00BBF02C007900D92A233B10746
:1000B000D9F721E0A2E3B1E001C01D92AA34B20752
:1000C000E1F70E94FC030C94D7050C940000CF9339
:1000D000DF93CDB7DEB781E0809332010000DF917E
:1000E000CF910895CF93DF93CDB7DEB781E890E04D
:1000F0002BE0FC01208388E890E02DE730E0FC0154
:10010000318320838FE690E022E0FC01208384E8A5
:1001100090E0FC0111821082809100019091010118
:10012000A0910201B09103018093330190933401B7
:10013000A0933501B09336018FE590E02FE530E0D4
:10014000F90120812068FC0120830000DF91CF911C
:100150000895CF93DF93CDB7DEB781E890E0FC013F
:1001600010820000DF91CF910895CF93DF9300D0EC
:1001700000D0CDB7DEB769837A838B839C83898176
:100180009A81AB81BC818093000190930101A0937F
:100190000201B09303018091000190910101A091AF
:1001A0000201B09103018093330190933401A09335
:1001B0003501B093360100000F900F900F900F9013
:1001C000DF91CF9108951F920F9200905F000F92E0
:1001D000112400905B000F922F933F934F935F93F6
:1001E0006F937F938F939F93AF93BF93EF93FF93FF
:1001F000CF93DF93CDB7DEB7809133019091340177
:10020000A0913501B09136010197A109B109809300
:10021000330190933401A0933501B093360180915E
:10022000330190913401A0913501B0913601892BB1
:100230008A2B8B2B91F40E94670080910001909192
:100240000101A0910201B0910301809333019093C9
:100250003401A0933501B09336010000DF91CF91B6
:10026000FF91EF91BF91AF919F918F917F916F918E
:100270005F914F913F912F910F9000925B000F90F3
:1002800000925F000F901F9018950F931F93CF93CC
:10029000DF9300D000D0CDB7DEB769837A838B833C
:1002A0009C838091380190913901A0913A01B091DD
:1002B0003B019C01AD0169817A818B819C810E9407
:1002C0004304882309F477C020E030E0A901698164
:1002D0007A818B819C810E944304882351F481E9B7
:1002E00090E021E930E0F90120812870FC012083B1
:1002F00009C081E990E021E930E0F9012081236023
:10030000FC01208328E539E344E75FE369817A81D2
:100310008B819C810E944304882344F488E990E007
:100320002FEF3FEFFC013183208334C020E034E223
:1003300044EF56E469817A818B819C810E94650536
:10034000181634F488E990E0FC011182108222C072
:1003500008E910E020E030E040E053E469817A8170
:100360008B819C810E946A05DC01CB019C01AD015F
:1003700060E074E284EF9AE40E944804DC01CB015F
:10038000BC01CD010E94BA04DC01CB010197F80148
:100390009183808384E990E0FC011182108289813D
:1003A0009A81AB81BC818093380190933901A093ED
:1003B0003A01B0933B0100000F900F900F900F9007
:1003C000DF91CF911F910F910895CF93DF93CDB718
:1003D000DEB780E990E020E4FC01208381E990E031
:1003E0002BE0FC01208360E070E0CB010E9445011E
:1003F0000000DF91CF910895CF93DF93CDB7DEB7A3
:1004000080E990E0FC01108281E990E0FC0110821B
:100410000000DF91CF910895CF93DF9300D01F921A
:10042000CDB7DEB789837B836A8389818A3031F4D3
:100430008A819B81BC018DE00E940C0280EC90E0DF
:10044000FC018081882F90E080729927892BB1F37D
:1004500086EC90E02981FC01208380E090E00F9001
:100460000F900F90DF91CF910895CF93DF93CDB789
:10047000DEB780914601909147018130910569F086
:100480008130910518F0029779F015C081E090E075
:1004900090934701809346010EC082E090E09093D4
:1004A00047018093460107C082E090E090934701A6
:1004B0008093460100008091460190914701813070
:1004C000910531F08130910570F0029729F00CC050
:1004D00087E08093420108C088E290E020914201C9
:1004E000FC01208301C000000000DF91CF9108953E
:1004F000CF93DF93CDB7DEB780E290E0FC0180813F
:100500008095847080933F018091430190914401D4
:100510008130910581F08130910530F08230910574
:1005200011F1039739F138C081E090E090934401D4
:100530008093430131C010923C0180913F01882398
:1005400059F080913D01882339F082E090E090934A
:1005500044018093430120C081E090E090934401E6
:100560008093430119C083E090E09093440180930D
:10057000430112C080913701883038F483E090E065
:10058000909344018093430106C081E090E09093F2
:100590004401809343010000809143019091440104
:1005A0008130910549F18130910540F1823091050A
:1005B00039F1039709F027C081E080933C018091D5
:1005C00037018830F8F480913701882F90E0880F48
:1005D000991F880F991F8E5E9E4FFC01808191812B
:1005E000A281B381BC01CD010E94450180913701F8
:1005F0008F5F8093370106C0000005C0000003C074
:10060000000001C000000000DF91CF910895CF935A
:10061000DF93CDB7DEB780914801909149018130D9
:10062000910569F08130910518F00297D1F02BC047
:1006300081E090E0909349018093480124C080912B
:100640003F01882339F082E090E090934901809344
:10065000480119C081E090E09093490180934801DE
:1006600012C080913701893038F081E090E090939A
:1006700049018093480106C082E090E090934901CF
:100680008093480100008091480190914901813098
:10069000910539F08130910508F447C0029761F067
:1006A00047C08BE290E02FEFFC01208360E070E018
:1006B000CB010E9445013CC080913701813021F07F
:1006C00080913701853031F48BE290E028E8FC011D
:1006D00020832AC080913701823021F08091370138
:1006E000863031F48BE290E024E4FC0120831CC0CE
:1006F00080913701833021F080913701873031F4C8
:100700008BE290E022E2FC0120830EC08091370151
:10071000843021F080913701883049F48BE290E0F9
:1007200021E1FC01208303C002C0000001C00000E1
:100730000000DF91CF910895CF93DF93CDB7DEB75F
:1007400080914001909141018130910569F08130A3
:10075000910518F0029719F139C081E090E090936B
:1007600041018093400132C080913F01882381F094
:1007700090913D0181E08927882351F082E090E04B
:10078000909341018093400181E080933D011EC020
:1007900081E090E0909341018093400117C08091E7
:1007A0003F01882391F080913D01882371F0909161
:1007B0003C0181E08927882341F081E090E090931B
:1007C00041018093400110923D0100008091400161
:1007D000909141018130910531F08130910528F0EF
:1007E000029729F005C0000003C0000001C000000E
:1007F0000000DF91CF910895CF93DF93CDB7DEB79F
:1008000081E290E0FC01108282E290E02FEFFC0197
:10081000208384E290E02FEFFC01208385E290E0CA
:10082000FC01108287E290E02FEFFC01208388E238
:1008300090E0FC0110828AE290E02FEFFC0120831F
:100840008BE290E0FC0110820E94E50160E070E024
:10085000CB010E94450164EF71E080E090E00E94CE
:10086000B5000E9472000E9435020E9478020E9428
:1008700007030E949C030000809132018823E1F36A
:1008800010923201F0CF0E94F00408F481E0089544
:100890000E945C040C942B050E94240558F00E94D1
:1008A0001D0540F029F45F3F29F00C941405511107
:1008B0000C945F050C941A050E943C0568F399237B
:1008C000B1F3552391F3951B550BBB27AA2762174C
:1008D0007307840738F09F5F5F4F220F331F441F59
:1008E000AA1FA9F335D00E2E3AF0E0E832D091508D
:1008F0005040E695001CCAF72BD0FE2F29D0660F7A
:10090000771F881FBB1F261737074807AB07B0E8BC
:1009100009F0BB0B802DBF01FF2793585F4F3AF0C2
:100920009E3F510578F00C9414050C945F055F3FD1
:10093000E4F3983ED4F3869577956795B795F79548
:100940009F5FC9F7880F911D9695879597F9089530
:10095000E1E0660F771F881FBB1F621773078407CC
:10096000BA0720F0621B730B840BBA0BEE1F88F7DB
:10097000E09508950E94C1046894B1110C945F053C
:1009800008950E94440588F09F5798F0B92F992741
:10099000B751B0F0E1F0660F771F881F991F1AF06A
:1009A000BA95C9F714C0B13091F00E945E05B1E06C
:1009B00008950C945E05672F782F8827B85F39F06B
:1009C000B93FCCF3869577956795B395D9F73EF403
:1009D00090958095709561957F4F8F4F9F4F0895AB
:1009E000990F0008550FAA0BE0E8FEEF1616170640
:1009F000E807F907C0F012161306E407F50798F0A8
:100A0000621B730B840B950B39F40A2661F0232BC0
:100A1000242B252B21F408950A2609F4A140A6953C
:100A20008FEF811D811D089597F99F6780E870E021
:100A300060E008959FEF80EC089500240A94161654
:100A4000170618060906089500240A9412161306BC
:100A5000140605060895092E0394000C11F488234A
:100A600052F0BB0F40F4BF2B11F460FF04C06F5F66
:100A70007F4F8F4F9F4F089557FD9058440F551F3C
:100A800059F05F3F71F04795880F97FB991F61F010
:100A90009F3F79F087950895121613061406551F87
:100AA000F2CF4695F1DF08C0161617061806991FF3
:100AB000F1CF86957105610508940895E894BB27E8
:100AC00066277727CB0197F908950E94F00408F470
:100AD0008FEF08950E947D050C942B050E941D0543
:100AE00038F00E94240520F0952311F00C94140591
:100AF0000C941A0511240C945F050E943C0570F3B8
:100B0000959FC1F3950F50E0551F629FF001729FB2
:100B1000BB27F00DB11D639FAA27F00DB11DAA1FC1
:100B2000649F6627B00DA11D661F829F2227B00D0E
:100B3000A11D621F739FB00DA11D621F839FA00D99
:100B4000611D221F749F3327A00D611D231F849FE9
:100B5000600D211D822F762F6A2F11249F57504040
:100B60009AF0F1F088234AF0EE0FFF1FBB1F661FBB
:100B7000771F881F91505040A9F79E3F510580F084
:100B80000C9414050C945F055F3FE4F3983ED4F396
:100B9000869577956795B795F795E7959F5FC1F728
:100BA000FE2B880F911D9695879597F90895F894D7
:020BB000FFCF75
:100BB2000100000000000002000000000C02000022
:100BC20000000AA7CF43719DAE43A4D0A443A4F072
:100BD200F6437BD492430AA7CF4300D00244A4D069
:020BE20082434C
:00000001FF
