:100000000C9460000C947F000C947F000C947F0093
:100010000C947F000C947F000C947F000C947F0064
:100020000C947F000C947F000C947F000C947F0054
:100030000C947F000C94A5020C947F000C947F001C
:100040000C947F000C947F000C947F000C947F0034
:100050000C947F000C947F000C947F000C947F0024
:100060000C947F000C947F000C947F000C947F0014
:100070000C947F000C947F000C947F000C947F0004
:100080000C947F000C947F000C947F00720779071A
:100090008007B307BA07C107C807D9071C08480873
:1000A0003A083F08480860096009600965086B085C
:1000B00071087D0888081A092F0944094C0960094C
:1000C00011241FBECFEFD0E4DEBFCDBF12E0A0E011
:1000D000B1E0E4EFFBE100E00BBF02C007900D923E
:1000E000A638B107D9F722E0A6E8B2E001C01D9218
:1000F000A93FB207E1F70E94130A0C94F80D0C9483
:100100000000CF93DF93CDB7DEB781E00E94A80057
:100110000000DF91CF910895CF93DF93CDB7DEB785
:1001200084E690E00E944C0188E30E94A80086E0EB
:100130000E94A8008FE00E94A80081E00E94A80011
:100140008AE090E00E944C010000DF91CF91089579
:10015000CF93DF931F92CDB7DEB789838BE290E018
:100160002BE230E0F90120812F7BFC01208388E223
:1001700090E02981FC0120838BE290E02BE230E0CB
:10018000F90120812068FC01208300008BE290E0CF
:100190002BE230E0F90120812F77FC01208382E0FF
:1001A00090E00E944C0100000F90DF91CF910895E4
:1001B000CF93DF931F92CDB7DEB789838BE290E0B8
:1001C0002BE230E0F90120812064FC01208388E2E9
:1001D00090E02981FC0120838BE290E02BE230E06B
:1001E000F90120812068FC01208300008BE290E06F
:1001F0002BE230E0F90120812F77FC01208381E0A0
:1002000090E00E944C0100000F90DF91CF91089583
:10021000CF93DF9300D000D0CDB7DEB78A837C8345
:100220006B830E9481008A81898311C0898191E05A
:10023000980F99830E9435018B819C819C012F5FCF
:100240003F4F3C832B83FC0180810E94D8008B812F
:100250009C81FC018081882349F700000F900F905A
:100260000F900F90DF91CF910895CF93DF931F925E
:10027000CDB7DEB789838981813128F4898181589E
:100280000E94A80004C0898181550E94A800000036
:100290000F90DF91CF910895CF93DF9300D000D0DE
:1002A00000D0CDB7DEB79E838D831A82198213C02A
:1002B0001C821B8206C000008B819C8101969C835E
:1002C0008B838B819C8187309340ACF389819A81A9
:1002D00001969A83898329813A818D819E8128178D
:1002E000390734F3000026960FB6F894DEBF0FBE30
:1002F000CDBFDF91CF9108950F931F93CF93DF93DD
:100300001F92CDB7DEB71982A4C08981282F30E0B3
:10031000C901880F991F820F931F880F991F880F9B
:10032000991F83569D4FFC01208131814281538169
:100330008981682F70E0CB01880F991F860F971F66
:10034000880F991F880F991F87569D4FFC01808148
:100350009181A281B381281739074A075B0708F406
:1003600049C08981082F10E08981282F30E0C90118
:10037000880F991F820F931F880F991F880F991F4D
:100380008F559D4FFC01408151818981282F30E09C
:10039000C901880F991F820F931F880F991F880F1B
:1003A000991F89569D4FFC0180819181FA01099521
:1003B0009C01C801880F991F800F911F880F991FFA
:1003C000880F991F89569D4FFC01318320838981B5
:1003D000282F30E0C901880F991F820F931F880FC3
:1003E000991F880F991F83569D4FFC01108211821F
:1003F000128213828981682F70E08981282F30E072
:10040000C901880F991F820F931F880F991F880FAA
:10041000991F83569D4FFC0180819181A281B381F8
:100420009C01AD012C593F4F4F4F5F4FCB01880FBF
:10043000991F860F971F880F991F880F991F835642
:100440009D4FFC01208331834283538389818F5FD9
:1004500089838981863008F458CF00000F90DF919E
:10046000CF911F910F910895CF93DF93CDB7DEB752
:1004700081E890E02BE0FC01208388E890E02DE704
:1004800030E0FC01318320838FE690E022E0FC0124
:10049000208384E890E0FC011182108280910001A9
:1004A00090910101A0910201B09103018093870214
:1004B00090938802A0938902B0938A028FE590E01E
:1004C0002FE530E0F90120812068FC012083000045
:1004D000DF91CF910895CF93DF93CDB7DEB781E859
:1004E00090E0FC0110820000DF91CF910895CF933E
:1004F000DF9300D000D0CDB7DEB769837A838B83DA
:100500009C8389819A81AB81BC8180930001909307
:100510000101A0930201B093030180910001909129
:100520000101A0910201B091030180938702909391
:100530008802A0938902B0938A0200000F900F9066
:100540000F900F90DF91CF9108951F920F9200901E
:100550005F000F92112400905B000F922F933F9346
:100560004F935F936F937F938F939F93AF93BF93BB
:10057000EF93FF93CF93DF93CDB7DEB780918702E0
:1005800090918802A0918902B0918A020197A109F5
:10059000B1098093870290938802A0938902B09357
:1005A0008A028091870290918802A0918902B0917D
:1005B0008A02892B8A2B8B2B91F40E947C018091DB
:1005C000000190910101A0910201B091030180937B
:1005D000870290938802A0938902B0938A02000058
:1005E000DF91CF91FF91EF91BF91AF919F918F914B
:1005F0007F916F915F914F913F912F910F9000925A
:100600005B000F9000925F000F901F9018950F9362
:100610001F93CF93DF9300D000D0CDB7DEB76983AF
:100620007A838B839C8380918E0290918F02A0911C
:100630009002B09191029C01AD0169817A818B8118
:100640009C810E944E0C882309F477C020E030E0A2
:10065000A90169817A818B819C810E944E0C88233B
:1006600051F481E990E021E930E0F901208128701E
:10067000FC01208309C081E990E021E930E0F90123
:1006800020812360FC01208328E539E344E75FE310
:1006900069817A818B819C810E944E0C882344F46D
:1006A00088E990E02FEF3FEFFC013183208334C0D5
:1006B00020E034E244EF56E469817A818B819C81A9
:1006C0000E94700D181634F488E990E0FC01118244
:1006D000108222C008E910E020E030E040E053E45E
:1006E00069817A818B819C810E94750DDC01CB012F
:1006F0009C01AD0160E074E284EF9AE40E94530C27
:10070000DC01CB01BC01CD010E94C50CDC01CB0199
:100710000197F8019183808384E990E0FC011182C4
:10072000108289819A81AB81BC8180938E029093E3
:100730008F02A0939002B093910200000F900F904F
:100740000F900F90DF91CF911F910F910895CF934C
:10075000DF93CDB7DEB780E990E020E4FC01208391
:1007600081E990E02BE0FC01208360E070E0CB01A8
:100770000E9407030000DF91CF910895CF93DF938C
:10078000CDB7DEB780E990E0FC01108281E990E00E
:10079000FC0110820000DF91CF910895CF93DF9389
:1007A000CDB7DEB78CE790E02CE730E0F90120818F
:1007B0002064FC0120838AE790E027E8FC01208385
:1007C0000000DF91CF910895CF93DF931F92CDB7B3
:1007D000DEB789838981877089838CE790E02CE775
:1007E00030E0F9012081322F387F2981232BFC0151
:1007F00020838AE790E02AE730E0F9012081206435
:10080000FC01208300008AE790E0FC018081882FB2
:1008100090E080749927892BB1F788E790E0FC017C
:10082000808191810F90DF91CF910895CF93DF93D5
:1008300000D01F92CDB7DEB789837B836A8389811D
:100840008A3031F48A819B81BC018DE00E941604BC
:1008500080EC90E0FC018081882F90E080729927E5
:10086000892BB1F386EC90E02981FC01208380E0A4
:1008700090E00F900F900F90DF91CF910895CF935C
:10088000DF93CDB7DEB783E090E09093F4028093DE
:10089000F30283E090E09093E9028093E80283E022
:1008A00090E09093F8028093F7028AE090E09093B2
:1008B000F0028093EF028BE290E02FE3FC012083B3
:1008C0001092F2021092F1020000DF91CF91089590
:1008D000CF93DF9300D0CDB7DEB79A838983809121
:1008E000F3029091F4028130910581F081309105FD
:1008F00030F08230910589F00397B1F019C081E0A2
:1009000090E09093F4028093F30213C082E090E0B1
:100910009093F4028093F3020CC082E090E09093F5
:10092000F4028093F30205C01092F4021092F302D5
:1009300000008091F3029091F4028130910549F01A
:1009400081309105D0F08230910551F00397B9F0D4
:1009500017C084E090E090938C0280938B0210C0CB
:1009600085E290E020918B0230918C022E5E3E4F0A
:10097000F9012081FC01208303C0000001C00000B8
:100980008091F3029091F4020F900F90DF91CF913C
:100990000895CF93DF9300D0CDB7DEB79A838983D4
:1009A00080E290E0FC018081809584708093E00279
:1009B0008091E8029091E90282309105E9F083305C
:1009C000910528F4009751F0019779F04BC08330DE
:1009D000910551F1049709F440C044C082E090E0D1
:1009E0009093E9028093E8023DC082E090E090930A
:1009F000E9028093E80236C08091F1029091F20200
:100A0000019759F480919602882339F083E090E0B1
:100A10009093E9028093E80225C082E090E09093F1
:100A2000E9028093E8021EC080918D02282F30E0F9
:100A30008091EA029091EB02821793073CF083E0E9
:100A400090E09093E9028093E8020CC082E090E08D
:100A50009093E9028093E80205C01092E902109297
:100A6000E80200008091E8029091E902823091054D
:100A7000A9F08330910530F4009709F491C00197F3
:100A800049F093C08330910509F449C0049709F4F3
:100A900080C08BC01092F2021092F10210928D026F
:100AA00060E070E0CB010E9407038091CA01909141
:100AB000CB01019769F48EE391E0909393028093C8
:100AC00092028BE090E09093EB028093EA026AC07E
:100AD0008091CA019091CB01029769F48AE691E076
:100AE000909393028093920287E090E09093EB02C0
:100AF0008093EA0257C08091CA019091CB0103977D
:100B000009F050C086E891E090939302809392029E
:100B100081E190E09093EB028093EA0243C08091E0
:100B20008D02282F30E08091EA029091EB0282172B
:100B30009307E4F0209192023091930280918D020C
:100B4000882F90E0880F991F880F991F820F931F9D
:100B5000FC0180819181A281B381BC01CD010E9401
:100B6000070380918D028F5F80938D0280918D02AB
:100B7000282F30E08091EA029091EB02019628172D
:100B8000390794F082E090E09093F2028093F102B2
:100B90000BC064EA70ED82E893E40E94070305C08D
:100BA000000003C0000001C000008091E8029091A5
:100BB000E9020F900F90DF91CF910895CF93DF93CB
:100BC00000D0CDB7DEB79A8389838091F7029091E8
:100BD000F8028130910581F08130910530F082304A
:100BE0009105F1F00397A9F138C081E090E090936E
:100BF000F8028093F70232C08091F1029091F202E4
:100C0000019739F482E090E09093F8028093F70224
:100C100025C081E090E09093F8028093F7021EC017
:100C200080918D02282F30E08091EA029091EB02B2
:100C3000821793073CF481E090E09093F802809350
:100C4000F7020CC082E090E09093F8028093F702E4
:100C500005C01092F8021092F70200008091F7028E
:100C60009091F8028130910559F08130910508F496
:100C700049C08230910559F1039709F445C047C036
:100C80008091CA019091CB01019739F489E191E0FB
:100C90009093E3028093E20239C08091CA0190915F
:100CA000CB01029739F484E291E09093E3028093C0
:100CB000E2022CC08091CA019091CB01039731F5DB
:100CC0008CE291E09093E3028093E2021FC0809156
:100CD0008D02882389F08BE290E04091E2025091EE
:100CE000E30220918D02222F30E0240F351FF901FD
:100CF0002081FC0120830BC08BE290E02FE3FC01FC
:100D0000208305C0000003C0000001C000008091E6
:100D1000F7029091F8020F900F90DF91CF91089514
:100D2000CF93DF9300D0CDB7DEB79A8389838091CC
:100D3000E4029091E5028230910591F183309105B2
:100D400028F4009749F0019771F04FC08330910566
:100D500071F1049799F149C081E090E09093E50228
:100D60008093E40242C08091E002882391F0909148
:100D7000960281E08927882361F082E090E09093D9
:100D8000E5028093E4028BE290E02FE3FC012083F4
:100D90002CC081E090E09093E5028093E40225C0AE
:100DA00083E090E09093E5028093E4021EC084E02B
:100DB00090E09093E5028093E40217C08091E002F6
:100DC000882391F080919602882371F08091F1023E
:100DD0009091F202892B41F481E090E09093E5023A
:100DE0008093E4021092960200008091E4029091B8
:100DF000E50282309105C9F08330910528F400970F
:100E000049F1019739F029C083309105A9F0049781
:100E100019F123C080E090E00E94E20D8093170159
:100E20008BE290E0FC01108218C060E070E08CED75
:100E300093E40E94070311C060E070E0CB010E94C0
:100E400007036CEC71E081E00E94080181E080936F
:100E5000960203C0000001C000008091E40290915E
:100E6000E5020F900F90DF91CF910895CF93DF931C
:100E700000D0CDB7DEB79A83898380E290E0FC0191
:100E80008081882F90E08170992721E0892B09F0DB
:100E900020E0822F8093EC0280E290E0FC018081D0
:100EA000809582708093DF0280E290E0FC01808177
:100EB000809588708093E7028091EF029091F00214
:100EC000CC01A0E0B0E040E050E02CE030E0841B3A
:100ED000950B2817390708F4D9C08A5B9F4FFC018E
:100EE0000C94450C81E090E09093F0028093EF0227
:100EF000D6C082E090E09093F0028093EF02CFC0E2
:100F000080911801882F90E0AC01415151098091E6
:100F10001801882F90E09C0127513109429FC001A0
:100F2000439F900D529F900D112499235CF4809162
:100F3000E702882339F083E090E09093F0028093F9
:100F4000EF02A8C080911801873109F0A3C08091F9
:100F5000E702882309F49EC086E090E09093F002B7
:100F60008093EF0297C084E090E09093F00280932A
:100F7000EF0295C085E090E09093F0028093EF023D
:100F80008EC087E090E09093F0028093EF0287C0DC
:100F90008091E702882309F47FC06CEC71E081E066
:100FA0000E94080182E090E09093F0028093EF02AB
:100FB00073C080918B0290918C02892B39F489E067
:100FC00090E09093F0028093EF0269C08091F1026B
:100FD0009091F202029741F580918B0290918C02E0
:100FE000892B11F18091CA019091CB0101969093C8
:100FF000CB018093CA018091E6028F5F8093E60265
:101000008091CA019091CB01049739F088E090E07B
:101010009093F0028093EF020EC08BE090E09093EB
:10102000F0028093EF0207C087E090E09093F00217
:101030008093EF0234C033C08091E702882369F0C7
:101040008091CA019091CB01049739F083E090E040
:101050009093F0028093EF0221C08091CA01909199
:10106000CB010497D9F48BE090E09093F002809349
:10107000EF0214C01092F0021092EF0210C08CE048
:1010800090E09093F0028093EF0209C0000007C047
:10109000000005C0000003C0000001C000008091F6
:1010A000EF029091F002CC01A0E0B0E040E050E00F
:1010B0002CE030E0841B950B2817390708F4FEC09C
:1010C0008D5A9F4FFC010C94450C65EE71E081E058
:1010D0000E940801F8C062EF71E081E00E940801FF
:1010E000F2C069EF71E081E00E94080181E090E0C8
:1010F0009093F2028093F102E6C06DEF71E081E01F
:101100000E94080180911701805D0E94D800DBC019
:1011100080918D028170882351F580918D028930F4
:1011200031F18091F1029091F202019701F56AE0AC
:1011300072E081E00E9408018091EC02882329F48A
:101140008091E702882309F471C080918B0290910D
:101150008C02181619060CF069C080918B029091D0
:101160008C02019790938C0280938B025FC08091D8
:101170008D02853071F180918D02813051F1809125
:101180008D028170882329F18091F1029091F20201
:101190000197F9F46BE172E081E00E94080180910F
:1011A000DF02882329F48091E702882309F440C0F4
:1011B00080918B0290918C0218161906CCF58091C3
:1011C0008B0290918C02019790938C0280938B02FA
:1011D0002FC080918D02853049F080918D02813041
:1011E00029F080918D02893009F06CC064E272E0D0
:1011F00081E00E9408018091EC02882329F480910B
:10120000DF02882309F45EC080918B0290918C02EA
:10121000181619060CF056C080918B0290918C0222
:10122000019790938C0280938B024CC000004AC0BF
:10123000000048C06BE272E081E00E9408018091EA
:10124000E602682F80E090E00E94EA0D60E070ED19
:1012500082E094E40E9407030E943F0434C080911E
:10126000E602682F80E090E00E94EA0D80E090E0C6
:101270000E94E20D809317016BE472E081E00E940E
:1012800008011092E6021FC00E943F0460E070E077
:10129000CB010E94070317C067E672E081E00E945D
:1012A00008018091E602805D0E94D8008091E602EC
:1012B000682F80E090E00E94EA0D05C0000003C0A6
:1012C000000001C000008091EF029091F0020F90A9
:1012D0000F90DF91CF910895CF93DF9300D0CDB7DA
:1012E000DEB79A83898385E00E94E4039093950298
:1012F0008093940284E00E94E4039093EE02809332
:10130000ED028091F5029091F6028130910569F02D
:101310008130910518F0029779F015C081E090E0D6
:101320009093F6028093F5020EC082E090E09093D5
:10133000F6028093F50207C082E090E09093F602F7
:101340008093F50200008091F5029091F6028130C1
:10135000910509F45CC08130910508F45AC00297E8
:1013600009F058C08091940290919502893592407D
:1013700070F081E08093E10280911801803208F0E2
:1013800041C0809118018F5F809318013BC080910C
:10139000ED029091EE028935924068F082E08093F0
:1013A000E10280911801813168F580911801805F18
:1013B0008093180127C08091940290919502843601
:1013C000910568F483E08093E102809118018230F6
:1013D000C8F08091180181508093180113C080914A
:1013E000ED029091EE028436910560F484E08093E2
:1013F000E10280911801813128F08091180180511B
:1014000080931801809118010E94350103C00000EB
:1014100001C000008091F5029091F6020F900F90AC
:10142000DF91CF910895CF93DF931F92CDB7DEB7B1
:1014300081E290E0FC01108282E290E02FEFFC015B
:10144000208384E290E02FEFFC01208385E290E08E
:10145000FC01108287E290E02FEFFC01208388E2FC
:1014600090E0FC0110828AE290E02FEFFC012083E3
:101470008BE290E0FC01108219828981282F30E0F4
:10148000C901880F991F820F931F880F991F880F1A
:10149000991F89569D4FFC01118210828981282F46
:1014A00030E0C901880F991F820F931F880F991F81
:1014B000880F991F9C0127563D4F8CE291E0A0E0D8
:1014C000B0E0F90180839183A283B3838981282FBF
:1014D00030E0C901880F991F820F931F880F991F51
:1014E000880F991F83569D4FFC0110821182128232
:1014F00013828981282F30E0C901880F991F820F3C
:10150000931F880F991F880F991F8F559D4F28E6AD
:1015100034E0FC013183208389818F5F8983898155
:10152000282F30E0C901880F991F820F931F880F61
:10153000991F880F991F89569D4FFC0111821082B7
:101540008981282F30E0C901880F991F820F931FCE
:10155000880F991F880F991F9C0127563D4F80E2E5
:1015600093E0A0E0B0E0F90180839183A283B3838C
:101570008981282F30E0C901880F991F820F931F9E
:10158000880F991F880F991F9C0123563D4F80E2B9
:1015900093E0A0E0B0E0F90180839183A283B3835C
:1015A0008981282F30E0C901880F991F820F931F6E
:1015B000880F991F880F991F8F559D4F29EC34E094
:1015C000FC013183208389818F5F89838981282F62
:1015D00030E0C901880F991F820F931F880F991F50
:1015E000880F991F89569D4FFC01118210828981B5
:1015F000282F30E0C901880F991F820F931F880F91
:10160000991F880F991F9C0127563D4F80E293E058
:10161000A0E0B0E0F90180839183A283B383898144
:10162000282F30E0C901880F991F820F931F880F60
:10163000991F880F991F9C0123563D4F80E293E02C
:10164000A0E0B0E0F90180839183A283B383898114
:10165000282F30E0C901880F991F820F931F880F30
:10166000991F880F991F8F559D4F2EED35E0FC0176
:101670003183208389818F5F89838981282F30E09E
:10168000C901880F991F820F931F880F991F880F18
:10169000991F89569D4FFC01118210828981282F44
:1016A00030E0C901880F991F820F931F880F991F7F
:1016B000880F991F9C0127563D4F84EF91E0A0E0D1
:1016C000B0E0F90180839183A283B3838981282FBD
:1016D00030E0C901880F991F820F931F880F991F4F
:1016E000880F991F83569D4FFC0110821182128230
:1016F00013828981282F30E0C901880F991F820F3A
:10170000931F880F991F880F991F8F559D4F20E9B0
:1017100036E0FC013183208389818F5F8983898151
:10172000282F30E0C901880F991F820F931F880F5F
:10173000991F880F991F89569D4FFC0111821082B5
:101740008981282F30E0C901880F991F820F931FCC
:10175000880F991F880F991F9C0127563D4F84EFD2
:1017600091E0A0E0B0E0F90180839183A283B3838C
:101770008981282F30E0C901880F991F820F931F9C
:10178000880F991F880F991F83569D4FFC01108267
:101790001182128213828981282F30E0C901880FBB
:1017A000991F820F931F880F991F880F991F8F55BC
:1017B0009D4F26E337E0FC013183208389818F5FD1
:1017C00089838981282F30E0C901880F991F820FF2
:1017D000931F880F991F880F991F89569D4FFC01F1
:1017E000118210828981282F30E0C901880F991F4A
:1017F000820F931F880F991F880F991F9C012756EE
:101800003D4F84E690E0A0E0B0E0F9018083918351
:10181000A283B3838981282F30E0C901880F991FE3
:10182000820F931F880F991F880F991F83569D4F12
:10183000FC0110821182128213828981282F30E0EC
:10184000C901880F991F820F931F880F991F880F56
:10185000991F8F559D4F2CE639E0FC013183208381
:1018600064E670E080E090E00E9477020E9434021B
:101870000E94A7030E94CE030E948C0080E090E0AB
:101880000E94E20D80931701FFCFEE0FFF1F00248F
:10189000001C0BBE0790F691E02D09940E94FB0CF2
:1018A00008F481E008950E94670C0C94360D0E94A4
:1018B0002F0D58F00E94280D40F029F45F3F29F0C9
:1018C0000C941F0D51110C946A0D0C94250D0E945F
:1018D000470D68F39923B1F3552391F3951B550BED
:1018E000BB27AA2762177307840738F09F5F5F4FF3
:1018F000220F331F441FAA1FA9F335D00E2E3AF032
:10190000E0E832D091505040E695001CCAF72BD049
:10191000FE2F29D0660F771F881FBB1F261737079A
:101920004807AB07B0E809F0BB0B802DBF01FF27CC
:1019300093585F4F3AF09E3F510578F00C941F0D7D
:101940000C946A0D5F3FE4F3983ED4F38695779547
:101950006795B795F7959F5FC9F7880F911D969585
:10196000879597F90895E1E0660F771F881FBB1FE1
:10197000621773078407BA0720F0621B730B840B8E
:10198000BA0BEE1F88F7E09508950E94CC0C68947E
:10199000B1110C946A0D08950E944F0D88F09F5765
:1019A00098F0B92F9927B751B0F0E1F0660F771F83
:1019B000881F991F1AF0BA95C9F714C0B13091F079
:1019C0000E94690DB1E008950C94690D672F782F7E
:1019D0008827B85F39F0B93FCCF38695779567953E
:1019E000B395D9F73EF490958095709561957F4FAA
:1019F0008F4F9F4F0895990F0008550FAA0BE0E8ED
:101A0000FEEF16161706E807F907C0F012161306C0
:101A1000E407F50798F0621B730B840B950B39F400
:101A20000A2661F0232B242B252B21F408950A2666
:101A300009F4A140A6958FEF811D811D089597F9A6
:101A40009F6780E870E060E008959FEF80EC089564
:101A500000240A941616170618060906089500248D
:101A60000A9412161306140605060895092E039407
:101A7000000C11F4882352F0BB0F40F4BF2B11F47B
:101A800060FF04C06F5F7F4F8F4F9F4F089557FDDA
:101A90009058440F551F59F05F3F71F04795880FDC
:101AA00097FB991F61F09F3F79F087950895121673
:101AB00013061406551FF2CF4695F1DF08C016161F
:101AC00017061806991FF1CF8695710561050894D0
:101AD0000895E894BB2766277727CB0197F90895E7
:101AE0000E94FB0C08F48FEF08950E94880D0C945F
:101AF000360D0E94280D38F00E942F0D20F09523FE
:101B000011F00C941F0D0C94250D11240C946A0DEA
:101B10000E94470D70F3959FC1F3950F50E0551F3C
:101B2000629FF001729FBB27F00DB11D639FAA2732
:101B3000F00DB11DAA1F649F6627B00DA11D661F81
:101B4000829F2227B00DA11D621F739FB00DA11DA2
:101B5000621F839FA00D611D221F749F3327A00D5C
:101B6000611D231F849F600D211D822F762F6A2FF8
:101B700011249F5750409AF0F1F088234AF0EE0F5D
:101B8000FF1FBB1F661F771F881F91505040A9F78A
:101B90009E3F510580F00C941F0D0C946A0D5F3F21
:101BA000E4F3983ED4F3869577956795B795F795C6
:101BB000E7959F5FC1F7FE2B880F911D969587953E
:101BC00097F90895F999FECF92BD81BDF89A9927AA
:101BD00080B50895262FF999FECF1FBA92BD81BD19
:101BE00020BD0FB6F894FA9AF99A0FBE019608959F
:041BF000F894FFCF97
:101BF40001000000000000020000000016040000C4
:101C040000000000040607052000020408100FF07D
:101C14000F00FFFF00303C3F3C30FF000020303815
:101C24003C3E3F0103070F3F30030C00FF007BD411
:101C34009243A4D08243D7A3764300005C430000C0
:101C4400C443A4D0A443B8FEB843A4D0A4437BD4D3
:101C540092430000000000000000A4D0A443000050
:101C6400C44300D0244400D002441FD512445CFF76
:101C7400434400000000719DAE430000DC43A4F027
:101C8400F643719DAE430000DC43A4F0F643719D1E
:101C9400AE430000DC43A4F0F64300D024441FD537
:101CA4001244A4F0F64300D00244A4F0F64300002A
:101CB400C443A4D0A44300000000010057656C6332
:101CC4006F6D6520746F2044445221205354415257
:101CD40054202A20004765742072656164792E2E91
:101CE4002E005365742E2E2E00474F21004869673D
:101CF400682073636F72653A200020202020202022
:101D04002020202020477265656E0020202020427C
:101D14006C75650059656C6C6F7700526F756E64F5
:101D240020776F6E21202B31202020526561647949
:101D34003F20507265737320594200596F75206CAF
:101D44006F7365212020202020202053636F72654B
:101D5400207361766564005961792120596F75207B
:101D6400776F6E21202020546F74616C2073636F31
:061D740072653A20000038
:00000001FF
