:100000000C9446000C9465000C9465000C946500FB
:100010000C9465000C9465000C9465000C946500CC
:100020000C9465000C9465000C9465000C946500BC
:100030000C9465000C948B020C9465000C94650084
:100040000C9465000C9465000C9465000C9465009C
:100050000C9465000C9465000C9465000C9465008C
:100060000C9465000C9465000C9465000C9465007C
:100070000C9465000C9465000C9465000C9465006C
:100080000C9465000C9465000C94650011241FBE4F
:10009000CFEFD0E4DEBFCDBF11E0A0E0B1E0EAE1F8
:1000A000F8E100E00BBF02C007900D92AC37B1073A
:1000B000D9F721E0ACE7B1E001C01D92AC3EB20738
:1000C000E1F70E9435080C940B0C0C940000CF93C0
:1000D000DF93CDB7DEB781E00E948E000000DF9194
:1000E000CF910895CF93DF93CDB7DEB784E690E04C
:1000F0000E94320188E30E948E0086E00E948E00FA
:100100008FE00E948E0081E00E948E008AE090E0E5
:100110000E9432010000DF91CF910895CF93DF93C9
:100120001F92CDB7DEB789838BE290E02BE230E0FF
:10013000F90120812F7BFC01208388E290E0298156
:10014000FC0120838BE290E02BE230E0F90120817A
:100150002068FC01208300008BE290E02BE230E07D
:10016000F90120812F77FC01208382E090E00E943A
:10017000320100000F90DF91CF910895CF93DF936C
:100180001F92CDB7DEB789838BE290E02BE230E09F
:10019000F90120812064FC01208388E290E029811C
:1001A000FC0120838BE290E02BE230E0F90120811A
:1001B0002068FC01208300008BE290E02BE230E01D
:1001C000F90120812F77FC01208381E090E00E94DB
:1001D000320100000F90DF91CF910895CF93DF930C
:1001E00000D000D0CDB7DEB78A837C836B830E94BA
:1001F00067008A81898311C0898191E0980F998372
:100200000E941B018B819C819C012F5F3F4F3C838F
:100210002B83FC0180810E94BE008B819C81FC01AC
:100220008081882349F700000F900F900F900F9066
:10023000DF91CF910895CF93DF931F92CDB7DEB7B3
:1002400089838981813128F4898181580E948E00B7
:1002500004C0898181550E948E0000000F90DF91BB
:10026000CF910895CF93DF9300D000D000D0CDB7C9
:10027000DEB79E838D831A82198213C01C821B8273
:1002800006C000008B819C8101969C838B838B81AF
:100290009C8187309340ACF389819A8101969A833F
:1002A000898329813A818D819E812817390734F30A
:1002B000000026960FB6F894DEBF0FBECDBFDF91CB
:1002C000CF9108950F931F93CF93DF931F92CDB7D4
:1002D000DEB71982A4C08981282F30E0C901880FB8
:1002E000991F820F931F880F991F880F991F8F5690
:1002F0009E4FFC0120813181428153818981682F89
:1003000070E0CB01880F991F860F971F880F991FE8
:10031000880F991F83579E4FFC0180819181A28194
:10032000B381281739074A075B0708F449C0898158
:10033000082F10E08981282F30E0C901880F991F0C
:10034000820F931F880F991F880F991F8B569E4FFE
:10035000FC01408151818981282F30E0C901880F3B
:10036000991F820F931F880F991F880F991F855718
:100370009E4FFC0180819181FA0109959C01C80181
:10038000880F991F800F911F880F991F880F991F41
:1003900085579E4FFC01318320838981282F30E0CF
:1003A000C901880F991F820F931F880F991F880F0B
:1003B000991F8F569E4FFC01108211821282138268
:1003C0008981682F70E08981282F30E0C901880F6A
:1003D000991F820F931F880F991F880F991F8F569F
:1003E0009E4FFC0180819181A281B3819C01AD016E
:1003F0002C593F4F4F4F5F4FCB01880F991F860FEE
:10040000971F880F991F880F991F8F569E4FFC01C9
:10041000208331834283538389818F5F89838981DC
:10042000863008F458CF00000F90DF91CF911F91D4
:100430000F910895CF93DF93CDB7DEB781E890E0B9
:100440002BE0FC01208388E890E02DE730E0FC0100
:10045000318320838FE690E022E0FC01208384E852
:1004600090E0FC01118210828091000190910101C5
:10047000A0910201B091030180937D0190937E01D0
:10048000A0937F01B09380018FE590E02FE530E0ED
:10049000F90120812068FC0120830000DF91CF91C9
:1004A0000895CF93DF93CDB7DEB781E890E0FC01EC
:1004B00010820000DF91CF910895CF93DF9300D099
:1004C00000D0CDB7DEB769837A838B839C83898123
:1004D0009A81AB81BC818093000190930101A0932C
:1004E0000201B09303018091000190910101A0915C
:1004F0000201B091030180937D0190937E01A0934E
:100500007F01B093800100000F900F900F900F902B
:10051000DF91CF9108951F920F9200905F000F928C
:10052000112400905B000F922F933F934F935F93A2
:100530006F937F938F939F93AF93BF93EF93FF93AB
:10054000CF93DF93CDB7DEB780917D0190917E018F
:10055000A0917F01B09180010197A109B109809319
:100560007D0190937E01A0937F01B09380018091E3
:100570007D0190917E01A0917F01B0918001892B36
:100580008A2B8B2B91F40E94620180910001909143
:100590000101A0910201B091030180937D0190932C
:1005A0007E01A0937F01B09380010000DF91CF9185
:1005B000FF91EF91BF91AF919F918F917F916F913B
:1005C0005F914F913F912F910F9000925B000F90A0
:1005D00000925F000F901F9018950F931F93CF9379
:1005E000DF9300D000D0CDB7DEB769837A838B83E9
:1005F0009C838091840190918501A0918601B091A6
:1006000087019C01AD0169817A818B819C810E9467
:10061000610A882309F477C020E030E0A9016981EC
:100620007A818B819C810E94610A882351F481E93F
:1006300090E021E930E0F90120812870FC0120835D
:1006400009C081E990E021E930E0F90120812360CF
:10065000FC01208328E539E344E75FE369817A817F
:100660008B819C810E94610A882344F488E990E090
:100670002FEF3FEFFC013183208334C020E034E2D0
:1006800044EF56E469817A818B819C810E94830BBF
:10069000181634F488E990E0FC011182108222C01F
:1006A00008E910E020E030E040E053E469817A811D
:1006B0008B819C810E94880BDC01CB019C01AD01E8
:1006C00060E074E284EF9AE40E94660ADC01CB01E8
:1006D000BC01CD010E94D80ADC01CB010197F801D1
:1006E0009183808384E990E0FC01118210828981EA
:1006F0009A81AB81BC818093840190938501A09302
:100700008601B093870100000F900F900F900F901B
:10071000DF91CF911F910F910895CF93DF93CDB7C4
:10072000DEB780E990E020E4FC01208381E990E0DD
:100730002BE0FC01208360E070E0CB010E94ED0221
:100740000000DF91CF910895CF93DF93CDB7DEB74F
:1007500080E990E0FC01108281E990E0FC011082C8
:100760000000DF91CF910895CF93DF93CDB7DEB72F
:100770008CE790E02CE730E0F90120812064FC0157
:1007800020838AE790E027E8FC0120830000DF91C6
:10079000CF910895CF93DF931F92CDB7DEB78983B2
:1007A0008981877089838CE790E02CE730E0F9013C
:1007B0002081322F387F2981232BFC0120838AE777
:1007C00090E02AE730E0F90120812064FC012083D9
:1007D00000008AE790E0FC018081882F90E080741F
:1007E0009927892BB1F788E790E0FC0180819181FE
:1007F0000F90DF91CF910895CF93DF9300D01F9298
:10080000CDB7DEB789837B836A8389818A3031F4EF
:100810008A819B81BC018DE00E94FC0380EC90E00A
:10082000FC018081882F90E080729927892BB1F399
:1008300086EC90E02981FC01208380E090E00F901D
:100840000F900F90DF91CF910895CF93DF93CDB7A5
:10085000DEB783E090E09093E7018093E60183E0C8
:1008600090E09093DD018093DC0183E090E0909331
:10087000EB018093EA0184E090E09093E3018093A0
:10088000E2018BE290E02FE3FC0120830000DF9186
:10089000CF910895CF93DF9300D0CDB7DEB79A8381
:1008A00089838091E6019091E7018130910581F083
:1008B0008130910530F08230910589F00397B1F0D5
:1008C00019C081E090E09093E7018093E60113C0A6
:1008D00082E090E09093E7018093E6010CC082E013
:1008E00090E09093E7018093E60105C01092E70144
:1008F0001092E60100008091E6019091E7018130BD
:10090000910549F081309105D0F08230910551F088
:100910000397B9F017C084E090E090938201809330
:10092000810110C085E290E0209181013091820127
:100930002E5E3E4FF9012081FC01208303C00000A0
:1009400001C000008091E6019091E7010F900F90A7
:10095000DF91CF910895CF93DF9300D0CDB7DEB76D
:100960009A83898380E290E0FC0180818095847085
:100970008093D4018091DC019091DD01813091055B
:1009800081F08130910530F08230910501F10397BB
:10099000B9F13BC081E090E09093DD018093DC01F0
:1009A00034C08091D401882359F080918A01882332
:1009B00039F082E090E09093DD018093DC0125C066
:1009C00081E090E09093DD018093DC011EC0809176
:1009D0008301282F30E080914501909146018217D4
:1009E00093073CF082E090E09093DD018093DC017E
:1009F0000CC081E090E09093DD018093DC0105C0A4
:100A00001092DD011092DC0100008091DC019091D8
:100A1000DD018130910559F08130910508F456C00F
:100A20008230910581F0039709F449C052C01092B9
:100A3000E5011092E4011092830160E070E0CB01C7
:100A40000E94ED0246C081E090E09093E501809322
:100A5000E40180918301282F30E08091450190913D
:100A6000460182179307C4F080918301882F90E09C
:100A7000880F991F880F991F8F5D9E4FFC01808101
:100A80009181A281B381BC01CD010E94ED028091D0
:100A900083018F5F8093830180918301282F30E051
:100AA000809145019091460101962817390781F4FC
:100AB00082E090E09093E5018093E40109C064EA4C
:100AC00070ED82E893E40E94ED0203C0000001C0D3
:100AD00000008091DC019091DD010F900F90DF917B
:100AE000CF910895CF93DF9300D0CDB7DEB79A832F
:100AF00089838091EA019091EB018130910581F029
:100B00008130910530F082309105E1F0039799F141
:100B100036C081E090E09093EB018093EA0130C011
:100B20008091D401882339F082E090E09093EB012A
:100B30008093EA0125C081E090E09093EB018093DF
:100B4000EA011EC080918301282F30E08091450189
:100B500090914601821793073CF481E090E09093D6
:100B6000EB018093EA010CC082E090E09093EB01EE
:100B70008093EA0105C01092EB011092EA01000097
:100B80008091EA019091EB018130910501F1813072
:100B90009105F8F08230910519F00397E1F01CC03F
:100BA00080918301882369F08BE290E0209183019A
:100BB000222F30E0295E3E4FF9012081FC01208385
:100BC0000BC08BE290E02FE3FC01208305C0000006
:100BD00003C0000001C000008091EA019091EB0188
:100BE0000F900F90DF91CF910895CF93DF9300D0B6
:100BF000CDB7DEB79A8389838091D6019091D701D2
:100C00008230910591F18330910528F4009749F0E5
:100C1000019771F04FC08330910571F1049799F1FC
:100C200049C081E090E09093D7018093D60142C003
:100C30008091D401882391F090918A0181E08927E5
:100C4000882361F082E090E09093D7018093D601F1
:100C50008BE290E02FE3FC0120832CC081E090E048
:100C60009093D7018093D60125C083E090E09093C4
:100C7000D7018093D6011EC084E090E09093D70105
:100C80008093D60117C08091D401882391F0809180
:100C90008A01882371F08091E4019091E501892B0C
:100CA00041F481E090E09093D7018093D6011092B7
:100CB0008A0100008091D6019091D7018230910580
:100CC00099F08330910528F4009729F1019739F0C4
:100CD00025C08330910579F00497F9F01FC08BE2AD
:100CE00090E0FC0110821AC060E070E08CED93E4AB
:100CF0000E94ED0213C060E070E0CB010E94ED02A3
:100D00000E94670067E471E081E00E94EE0081E0EC
:100D100080938A0103C0000001C000008091D601C9
:100D20009091D7010F900F90DF91CF910895CF93BD
:100D3000DF9300D0CDB7DEB79A83898380E290E05D
:100D4000FC018081882F90E08170992721E0892B18
:100D500009F020E0822F8093DF0180E290E0FC0127
:100D60008081809582708093D30180E290E0FC01C5
:100D70008081809584708093DB018091E201909165
:100D8000E30182309105E1F08330910528F400976A
:100D900049F0019771F03DC083309105C9F1049786
:100DA00091F137C081E090E09093E3018093E201FC
:100DB00030C082E090E09093E3018093E20129C08B
:100DC0008091810190918201892B19F40E94250460
:100DD00020C08091E4019091E501029769F480912F
:100DE000810190918201892B39F083E090E090930A
:100DF000E3018093E2010DC082E090E09093E30173
:100E00008093E20106C01092E3011092E20101C05A
:100E100000008091E2019091E3018230910591F010
:100E20008330910538F4009709F493C0019709F4D1
:100E300092C094C08330910509F454C0049709F41A
:100E400082C08CC0809183018170882301F58091DC
:100E5000E4019091E5010197D1F467E771E081E049
:100E60000E94EE008091DF018823D1F18091810101
:100E700090918201181619069CF58091810190913C
:100E800082010197909382018093810129C0809112
:100E900083018170882309F460C08091E4019091FE
:100EA000E501019709F059C069E771E081E00E940E
:100EB000EE008091D301882309F44FC08091810115
:100EC00090918201181619060CF047C0809181019B
:100ED00090918201019790938201809381013DC09E
:100EE00000003BC08091D8018F5F8093D801809132
:100EF000D801813041F48091D801682F80E090E0E2
:100F00000E94FD0B17C08091D801823098F080E0DC
:100F100090E00E94F50B8093DE019091DE018091BC
:100F2000D801981738F48091D801682F80E090E0BC
:100F30000E94FD0B60E070ED82E094E40E94ED02FF
:100F40000E9425040BC060E070E0CB010E94ED021E
:100F500005C0000003C0000001C000008091E20154
:100F60009091E3010F900F90DF91CF910895CF936F
:100F7000DF9300D0CDB7DEB79A83898385E00E94E6
:100F8000CA03909389018093880184E00E94CA0378
:100F90009093E1018093E0018091E8019091E90153
:100FA0008130910569F08130910518F0029779F050
:100FB00015C081E090E09093E9018093E8010EC0B4
:100FC00082E090E09093E9018093E80107C082E01D
:100FD00090E09093E9018093E80100008091E8019E
:100FE0009091E9018130910591F18130910588F16D
:100FF000029709F031C0809188019091890188356C
:10100000924020F081E08093D50125C08091E001DD
:101010009091E1018835924020F082E08093D501E3
:101020001AC080918801909189018536910520F43C
:1010300083E08093D5010FC08091E0019091E101A0
:101040008536910540F484E08093D50104C000000A
:1010500003C0000001C000008091E8019091E90107
:101060000F900F90DF91CF910895CF93DF931F9250
:10107000CDB7DEB781E290E0FC01108282E290E021
:101080002FEFFC01208384E290E02FEFFC0120830E
:1010900085E290E0FC01108287E290E02FEFFC01F6
:1010A000208388E290E0FC0110828AE290E02FEF3A
:1010B000FC0120838BE290E0FC011082198289817F
:1010C000282F30E0C901880F991F820F931F880FC6
:1010D000991F880F991F85579E4FFC01118210821E
:1010E0008981282F30E0C901880F991F820F931F33
:1010F000880F991F880F991F9C0123573E4F8CE240
:1011000091E0A0E0B0E0F90180839183A283B383F2
:101110008981282F30E0C901880F991F820F931F02
:10112000880F991F880F991F8F569E4FFC011082C0
:101130001182128213828981282F30E0C901880F21
:10114000991F820F931F880F991F880F991F8B5625
:101150009E4F2AE434E0FC013183208389818F5F34
:1011600089838981282F30E0C901880F991F820F58
:10117000931F880F991F880F991F85579E4FFC0159
:10118000118210828981282F30E0C901880F991FB0
:10119000820F931F880F991F880F991F9C01235757
:1011A0003E4F8CEB92E0A0E0B0E0F90180839183A8
:1011B000A283B3838981282F30E0C901880F991F4A
:1011C000820F931F880F991F880F991F9C012F561C
:1011D0003E4F8CEB92E0A0E0B0E0F9018083918378
:1011E000A283B3838981282F30E0C901880F991F1A
:1011F000820F931F880F991F880F991F8B569E4F40
:101200002BEA34E0FC013183208389818F5F89835D
:101210008981282F30E0C901880F991F820F931F01
:10122000880F991F880F991F85579E4FFC011182C7
:1012300010828981282F30E0C901880F991F820F01
:10124000931F880F991F880F991F9C0123573E4FAA
:101250008CEB92E0A0E0B0E0F90180839183A2835F
:10126000B3838981282F30E0C901880F991F820F2D
:10127000931F880F991F880F991F9C012F563E4F6F
:101280008CEB92E0A0E0B0E0F90180839183A2832F
:10129000B3838981282F30E0C901880F991F820FFD
:1012A000931F880F991F880F991F8B569E4F22E717
:1012B00035E0FC013183208389818F5F89838981B7
:1012C000282F30E0C901880F991F820F931F880FC4
:1012D000991F880F991F85579E4FFC01118210821C
:1012E0008981282F30E0C901880F991F820F931F31
:1012F000880F991F880F991F9C0123573E4F84EF39
:1013000091E0A0E0B0E0F90180839183A283B383F0
:101310008981282F30E0C901880F991F820F931F00
:10132000880F991F880F991F8F569E4FFC011082BE
:101330001182128213828981282F30E0C901880F1F
:10134000991F820F931F880F991F880F991F8B5623
:101350009E4F25EF35E0FC013183208389818F5F2B
:1013600089838981282F30E0C901880F991F820F56
:10137000931F880F991F880F991F85579E4FFC0157
:10138000118210828981282F30E0C901880F991FAE
:10139000820F931F880F991F880F991F9C01235755
:1013A0003E4F84EF91E0A0E0B0E0F90180839183AB
:1013B000A283B3838981282F30E0C901880F991F48
:1013C000820F931F880F991F880F991F8F569E4F6A
:1013D000FC0110821182128213828981282F30E051
:1013E000C901880F991F820F931F880F991F880FBB
:1013F000991F8B569E4F27E936E0FC0131832083ED
:1014000089818F5F89838981282F30E0C901880F06
:10141000991F820F931F880F991F880F991F855757
:101420009E4FFC01118210828981282F30E0C90172
:10143000880F991F820F931F880F991F880F991F7C
:101440009C0123573E4F84EF91E0A0E0B0E0F9010A
:1014500080839183A283B3838981282F30E0C901DF
:10146000880F991F820F931F880F991F880F991F4C
:101470008F569E4FFC011082118212821382898145
:10148000282F30E0C901880F991F820F931F880F02
:10149000991F880F991F8B569E4F27EB37E0FC0151
:1014A0003183208364E670E080E090E00E945D027A
:1014B0000E941A020E948D030E94B4030E947200CF
:1014C000FFCF0E940E0B08F481E008950E947A0A73
:1014D0000C94490B0E94420B58F00E943B0B40F0C9
:1014E00029F45F3F29F00C94320B51110C947D0BC1
:1014F0000C94380B0E945A0B68F39923B1F35523CF
:1015000091F3951B550BBB27AA2762177307840716
:1015100038F09F5F5F4F220F331F441FAA1FA9F3AC
:1015200035D00E2E3AF0E0E832D091505040E6959A
:10153000001CCAF72BD0FE2F29D0660F771F881FFB
:10154000BB1F261737074807AB07B0E809F0BB0BEE
:10155000802DBF01FF2793585F4F3AF09E3F510502
:1015600078F00C94320B0C947D0B5F3FE4F3983EC3
:10157000D4F3869577956795B795F7959F5FC9F7EB
:10158000880F911D9695879597F90895E1E0660F6C
:10159000771F881FBB1F621773078407BA0720F0E5
:1015A000621B730B840BBA0BEE1F88F7E09508954E
:1015B0000E94DF0A6894B1110C947D0B08950E947B
:1015C000620B88F09F5798F0B92F9927B751B0F068
:1015D000E1F0660F771F881F991F1AF0BA95C9F7B7
:1015E00014C0B13091F00E947C0BB1E008950C94CE
:1015F0007C0B672F782F8827B85F39F0B93FCCF381
:10160000869577956795B395D9F73EF49095809533
:10161000709561957F4F8F4F9F4F0895990F0008E8
:10162000550FAA0BE0E8FEEF16161706E807F907B4
:10163000C0F012161306E407F50798F0621B730B4F
:10164000840B950B39F40A2661F0232B242B252BD0
:1016500021F408950A2609F4A140A6958FEF811D73
:10166000811D089597F99F6780E870E060E0089514
:101670009FEF80EC089500240A94161617061806AA
:101680000906089500240A94121613061406050686
:101690000895092E0394000C11F4882352F0BB0F17
:1016A00040F4BF2B11F460FF04C06F5F7F4F8F4F7A
:1016B0009F4F089557FD9058440F551F59F05F3FB5
:1016C00071F04795880F97FB991F61F09F3F79F064
:1016D00087950895121613061406551FF2CF4695E6
:1016E000F1DF08C0161617061806991FF1CF869568
:1016F0007105610508940895E894BB27662777274C
:10170000CB0197F908950E940E0B08F48FEF08950E
:101710000E949B0B0C94490B0E943B0B38F00E94DB
:10172000420B20F0952311F00C94320B0C94380BE3
:1017300011240C947D0B0E945A0B70F3959FC1F3FA
:10174000950F50E0551F629FF001729FBB27F00D6F
:10175000B11D639FAA27F00DB11DAA1F649F6627C4
:10176000B00DA11D661F829F2227B00DA11D621F13
:10177000739FB00DA11D621F839FA00D611D221FCD
:10178000749F3327A00D611D231F849F600D211DB1
:10179000822F762F6A2F11249F5750409AF0F1F034
:1017A00088234AF0EE0FFF1FBB1F661F771F881F9D
:1017B00091505040A9F79E3F510580F00C94320B98
:1017C0000C947D0B5F3FE4F3983ED4F386957795B8
:1017D0006795B795F795E7959F5FC1F7FE2B880F43
:1017E000911D9695879597F90895F999FECF92BD29
:1017F00081BDF89A992780B50895262FF999FECFD3
:101800001FBA92BD81BD20BD0FB6F894FA9AF99A1D
:0A1810000FBE01960895F894FFCF73
:10181A00010000000000000200000000FC030000BC
:10182A000000000004060700804020100FF00F009F
:10183A00FF7BD49243A4D08243D7A3764300005CB3
:10184A00430000C443A4D0A443B8FEB843A4D0A420
:10185A00437BD49243090057656C636F6D652074AE
:10186A006F20444452212050726573732074686556
:10187A002072656420627574746F6E20746F2062C2
:0C188A006567696E2E20004700420000D8
:00000001FF
